{
	"VotingSystem.sol": {
		"Voting": {
			"abi": [
				{
					"inputs": [],
					"stateMutability": "nonpayable",
					"type": "constructor"
				},
				{
					"inputs": [
						{
							"internalType": "string",
							"name": "_name",
							"type": "string"
						}
					],
					"name": "addTheCand",
					"outputs": [],
					"stateMutability": "nonpayable",
					"type": "function"
				},
				{
					"inputs": [],
					"name": "admin",
					"outputs": [
						{
							"internalType": "address",
							"name": "",
							"type": "address"
						}
					],
					"stateMutability": "view",
					"type": "function"
				},
				{
					"inputs": [],
					"name": "allVotesIn",
					"outputs": [
						{
							"internalType": "uint256",
							"name": "",
							"type": "uint256"
						}
					],
					"stateMutability": "view",
					"type": "function"
				},
				{
					"inputs": [
						{
							"internalType": "bytes32",
							"name": "_representativesHash",
							"type": "bytes32"
						}
					],
					"name": "castBallot",
					"outputs": [],
					"stateMutability": "nonpayable",
					"type": "function"
				},
				{
					"inputs": [
						{
							"internalType": "bytes32",
							"name": "_representativesHash",
							"type": "bytes32"
						}
					],
					"name": "checkVotesPerGotRep",
					"outputs": [
						{
							"internalType": "uint256",
							"name": "",
							"type": "uint256"
						}
					],
					"stateMutability": "view",
					"type": "function"
				},
				{
					"inputs": [],
					"name": "getTheCandList",
					"outputs": [
						{
							"components": [
								{
									"internalType": "string",
									"name": "name",
									"type": "string"
								},
								{
									"internalType": "uint256",
									"name": "votes",
									"type": "uint256"
								},
								{
									"internalType": "bytes32",
									"name": "hash",
									"type": "bytes32"
								}
							],
							"internalType": "struct Voting.TheCand[]",
							"name": "",
							"type": "tuple[]"
						}
					],
					"stateMutability": "view",
					"type": "function"
				},
				{
					"inputs": [],
					"name": "numberOfTotalVotes",
					"outputs": [
						{
							"internalType": "uint256",
							"name": "",
							"type": "uint256"
						}
					],
					"stateMutability": "view",
					"type": "function"
				},
				{
					"inputs": [
						{
							"internalType": "address",
							"name": "_TheVoter",
							"type": "address"
						},
						{
							"internalType": "string",
							"name": "_name",
							"type": "string"
						}
					],
					"name": "registerTheVoter",
					"outputs": [],
					"stateMutability": "nonpayable",
					"type": "function"
				},
				{
					"inputs": [
						{
							"internalType": "uint256",
							"name": "",
							"type": "uint256"
						}
					],
					"name": "representativesList",
					"outputs": [
						{
							"internalType": "string",
							"name": "name",
							"type": "string"
						},
						{
							"internalType": "uint256",
							"name": "votes",
							"type": "uint256"
						},
						{
							"internalType": "bytes32",
							"name": "hash",
							"type": "bytes32"
						}
					],
					"stateMutability": "view",
					"type": "function"
				},
				{
					"inputs": [],
					"name": "winnerChecking",
					"outputs": [
						{
							"components": [
								{
									"internalType": "string",
									"name": "name",
									"type": "string"
								},
								{
									"internalType": "uint256",
									"name": "votes",
									"type": "uint256"
								},
								{
									"internalType": "bytes32",
									"name": "hash",
									"type": "bytes32"
								}
							],
							"internalType": "struct Voting.TheCand",
							"name": "winner",
							"type": "tuple"
						}
					],
					"stateMutability": "view",
					"type": "function"
				}
			],
			"devdoc": {
				"kind": "dev",
				"methods": {},
				"version": 1
			},
			"evm": {
				"assembly": "    /* \"VotingSystem.sol\":95:5257  contract Voting {\r... */\n  mstore(0x40, 0x80)\n    /* \"VotingSystem.sol\":966:1018  constructor ()   {\r... */\n  callvalue\n  dup1\n  iszero\n  tag_1\n  jumpi\n  0x00\n  dup1\n  revert\ntag_1:\n  pop\n    /* \"VotingSystem.sol\":1000:1010  msg.sender */\n  caller\n    /* \"VotingSystem.sol\":992:997  admin */\n  0x00\n  dup1\n    /* \"VotingSystem.sol\":992:1010  admin = msg.sender */\n  0x0100\n  exp\n  dup2\n  sload\n  dup2\n  0xffffffffffffffffffffffffffffffffffffffff\n  mul\n  not\n  and\n  swap1\n  dup4\n  0xffffffffffffffffffffffffffffffffffffffff\n  and\n  mul\n  or\n  swap1\n  sstore\n  pop\n    /* \"VotingSystem.sol\":95:5257  contract Voting {\r... */\n  dataSize(sub_0)\n  dup1\n  dataOffset(sub_0)\n  0x00\n  codecopy\n  0x00\n  return\nstop\n\nsub_0: assembly {\n        /* \"VotingSystem.sol\":95:5257  contract Voting {\r... */\n      mstore(0x40, 0x80)\n      callvalue\n      dup1\n      iszero\n      tag_1\n      jumpi\n      0x00\n      dup1\n      revert\n    tag_1:\n      pop\n      jumpi(tag_2, lt(calldatasize, 0x04))\n      shr(0xe0, calldataload(0x00))\n      dup1\n      0x8d78e74c\n      gt\n      tag_13\n      jumpi\n      dup1\n      0x8d78e74c\n      eq\n      tag_8\n      jumpi\n      dup1\n      0x9ab05535\n      eq\n      tag_9\n      jumpi\n      dup1\n      0x9e9cf22e\n      eq\n      tag_10\n      jumpi\n      dup1\n      0xd4abd19a\n      eq\n      tag_11\n      jumpi\n      dup1\n      0xf851a440\n      eq\n      tag_12\n      jumpi\n      jump(tag_2)\n    tag_13:\n      dup1\n      0x05b6a8c6\n      eq\n      tag_3\n      jumpi\n      dup1\n      0x10f8963f\n      eq\n      tag_4\n      jumpi\n      dup1\n      0x120d7b9e\n      eq\n      tag_5\n      jumpi\n      dup1\n      0x27f8bb9d\n      eq\n      tag_6\n      jumpi\n      dup1\n      0x7067accb\n      eq\n      tag_7\n      jumpi\n    tag_2:\n      0x00\n      dup1\n      revert\n        /* \"VotingSystem.sol\":2919:3369  function castBallot(bytes32 _representativesHash) external {\r... */\n    tag_3:\n      tag_14\n      0x04\n      dup1\n      calldatasize\n      sub\n      dup2\n      add\n      swap1\n      tag_15\n      swap2\n      swap1\n      tag_16\n      jump\t// in\n    tag_15:\n      tag_17\n      jump\t// in\n    tag_14:\n      stop\n        /* \"VotingSystem.sol\":784:820  TheCand[] public representativesList */\n    tag_4:\n      tag_18\n      0x04\n      dup1\n      calldatasize\n      sub\n      dup2\n      add\n      swap1\n      tag_19\n      swap2\n      swap1\n      tag_20\n      jump\t// in\n    tag_19:\n      tag_21\n      jump\t// in\n    tag_18:\n      mload(0x40)\n      tag_22\n      swap4\n      swap3\n      swap2\n      swap1\n      tag_23\n      jump\t// in\n    tag_22:\n      mload(0x40)\n      dup1\n      swap2\n      sub\n      swap1\n      return\n        /* \"VotingSystem.sol\":5158:5254  function numberOfTotalVotes() external view returns(uint256){\r... */\n    tag_5:\n      tag_24\n      tag_25\n      jump\t// in\n    tag_24:\n      mload(0x40)\n      tag_26\n      swap2\n      swap1\n      tag_27\n      jump\t// in\n    tag_26:\n      mload(0x40)\n      dup1\n      swap2\n      sub\n      swap1\n      return\n        /* \"VotingSystem.sol\":4615:5113  function winnerChecking() external view returns (TheCand memory winner) {\r... */\n    tag_6:\n      tag_28\n      tag_29\n      jump\t// in\n    tag_28:\n      mload(0x40)\n      tag_30\n      swap2\n      swap1\n      tag_31\n      jump\t// in\n    tag_30:\n      mload(0x40)\n      dup1\n      swap2\n      sub\n      swap1\n      return\n        /* \"VotingSystem.sol\":2777:2887  function getTheCandList() public view returns (TheCand[] memory) {\r... */\n    tag_7:\n      tag_32\n      tag_33\n      jump\t// in\n    tag_32:\n      mload(0x40)\n      tag_34\n      swap2\n      swap1\n      tag_35\n      jump\t// in\n    tag_34:\n      mload(0x40)\n      dup1\n      swap2\n      sub\n      swap1\n      return\n        /* \"VotingSystem.sol\":1068:1405  function registerTheVoter(address _TheVoter, string memory _name) external {\r... */\n    tag_8:\n      tag_36\n      0x04\n      dup1\n      calldatasize\n      sub\n      dup2\n      add\n      swap1\n      tag_37\n      swap2\n      swap1\n      tag_38\n      jump\t// in\n    tag_37:\n      tag_39\n      jump\t// in\n    tag_36:\n      stop\n        /* \"VotingSystem.sol\":873:895  uint public allVotesIn */\n    tag_9:\n      tag_40\n      tag_41\n      jump\t// in\n    tag_40:\n      mload(0x40)\n      tag_42\n      swap2\n      swap1\n      tag_27\n      jump\t// in\n    tag_42:\n      mload(0x40)\n      dup1\n      swap2\n      sub\n      swap1\n      return\n        /* \"VotingSystem.sol\":2043:2382  function addTheCand(string memory _name) external {\r... */\n    tag_10:\n      tag_43\n      0x04\n      dup1\n      calldatasize\n      sub\n      dup2\n      add\n      swap1\n      tag_44\n      swap2\n      swap1\n      tag_45\n      jump\t// in\n    tag_44:\n      tag_46\n      jump\t// in\n    tag_43:\n      stop\n        /* \"VotingSystem.sol\":3772:4202  function checkVotesPerGotRep(bytes32 _representativesHash) external view returns (uint256) {\r... */\n    tag_11:\n      tag_47\n      0x04\n      dup1\n      calldatasize\n      sub\n      dup2\n      add\n      swap1\n      tag_48\n      swap2\n      swap1\n      tag_16\n      jump\t// in\n    tag_48:\n      tag_49\n      jump\t// in\n    tag_47:\n      mload(0x40)\n      tag_50\n      swap2\n      swap1\n      tag_27\n      jump\t// in\n    tag_50:\n      mload(0x40)\n      dup1\n      swap2\n      sub\n      swap1\n      return\n        /* \"VotingSystem.sol\":165:185  address public admin */\n    tag_12:\n      tag_51\n      tag_52\n      jump\t// in\n    tag_51:\n      mload(0x40)\n      tag_53\n      swap2\n      swap1\n      tag_54\n      jump\t// in\n    tag_53:\n      mload(0x40)\n      dup1\n      swap2\n      sub\n      swap1\n      return\n        /* \"VotingSystem.sol\":2919:3369  function castBallot(bytes32 _representativesHash) external {\r... */\n    tag_17:\n        /* \"VotingSystem.sol\":2998:3007  TheVoters */\n      0x02\n        /* \"VotingSystem.sol\":2998:3019  TheVoters[msg.sender] */\n      0x00\n        /* \"VotingSystem.sol\":3008:3018  msg.sender */\n      caller\n        /* \"VotingSystem.sol\":2998:3019  TheVoters[msg.sender] */\n      0xffffffffffffffffffffffffffffffffffffffff\n      and\n      0xffffffffffffffffffffffffffffffffffffffff\n      and\n      dup2\n      mstore\n      0x20\n      add\n      swap1\n      dup2\n      mstore\n      0x20\n      add\n      0x00\n      keccak256\n        /* \"VotingSystem.sol\":2998:3028  TheVoters[msg.sender].hasVoted */\n      0x01\n      add\n      0x01\n      swap1\n      sload\n      swap1\n      0x0100\n      exp\n      swap1\n      div\n      0xff\n      and\n        /* \"VotingSystem.sol\":2997:3028  !TheVoters[msg.sender].hasVoted */\n      iszero\n        /* \"VotingSystem.sol\":2989:3047  require(!TheVoters[msg.sender].hasVoted, \"TheVoter voted\") */\n      tag_56\n      jumpi\n      mload(0x40)\n      0x08c379a000000000000000000000000000000000000000000000000000000000\n      dup2\n      mstore\n      0x04\n      add\n      tag_57\n      swap1\n      tag_58\n      jump\t// in\n    tag_57:\n      mload(0x40)\n      dup1\n      swap2\n      sub\n      swap1\n      revert\n    tag_56:\n        /* \"VotingSystem.sol\":3066:3075  TheVoters */\n      0x02\n        /* \"VotingSystem.sol\":3066:3087  TheVoters[msg.sender] */\n      0x00\n        /* \"VotingSystem.sol\":3076:3086  msg.sender */\n      caller\n        /* \"VotingSystem.sol\":3066:3087  TheVoters[msg.sender] */\n      0xffffffffffffffffffffffffffffffffffffffff\n      and\n      0xffffffffffffffffffffffffffffffffffffffff\n      and\n      dup2\n      mstore\n      0x20\n      add\n      swap1\n      dup2\n      mstore\n      0x20\n      add\n      0x00\n      keccak256\n        /* \"VotingSystem.sol\":3066:3100  TheVoters[msg.sender].isRegistered */\n      0x01\n      add\n      0x00\n      swap1\n      sload\n      swap1\n      0x0100\n      exp\n      swap1\n      div\n      0xff\n      and\n        /* \"VotingSystem.sol\":3058:3123  require(TheVoters[msg.sender].isRegistered, \"TheVoters function\") */\n      tag_59\n      jumpi\n      mload(0x40)\n      0x08c379a000000000000000000000000000000000000000000000000000000000\n      dup2\n      mstore\n      0x04\n      add\n      tag_60\n      swap1\n      tag_61\n      jump\t// in\n    tag_60:\n      mload(0x40)\n      dup1\n      swap2\n      sub\n      swap1\n      revert\n    tag_59:\n        /* \"VotingSystem.sol\":3142:3185  representativesExists(_representativesHash) */\n      tag_62\n        /* \"VotingSystem.sol\":3164:3184  _representativesHash */\n      dup2\n        /* \"VotingSystem.sol\":3142:3163  representativesExists */\n      tag_63\n        /* \"VotingSystem.sol\":3142:3185  representativesExists(_representativesHash) */\n      jump\t// in\n    tag_62:\n        /* \"VotingSystem.sol\":3134:3217  require(representativesExists(_representativesHash), \"Not a valid representatives\") */\n      tag_64\n      jumpi\n      mload(0x40)\n      0x08c379a000000000000000000000000000000000000000000000000000000000\n      dup2\n      mstore\n      0x04\n      add\n      tag_65\n      swap1\n      tag_66\n      jump\t// in\n    tag_65:\n      mload(0x40)\n      dup1\n      swap2\n      sub\n      swap1\n      revert\n    tag_64:\n        /* \"VotingSystem.sol\":3240:3250  allVotesIn */\n      0x04\n      0x00\n        /* \"VotingSystem.sol\":3240:3252  allVotesIn++ */\n      dup2\n      sload\n      dup1\n      swap3\n      swap2\n      swap1\n      tag_67\n      swap1\n      tag_68\n      jump\t// in\n    tag_67:\n      swap2\n      swap1\n      pop\n      sstore\n      pop\n        /* \"VotingSystem.sol\":3263:3303  updateTheCandVotes(_representativesHash) */\n      tag_69\n        /* \"VotingSystem.sol\":3282:3302  _representativesHash */\n      dup2\n        /* \"VotingSystem.sol\":3263:3281  updateTheCandVotes */\n      tag_70\n        /* \"VotingSystem.sol\":3263:3303  updateTheCandVotes(_representativesHash) */\n      jump\t// in\n    tag_69:\n        /* \"VotingSystem.sol\":3347:3351  true */\n      0x01\n        /* \"VotingSystem.sol\":3314:3323  TheVoters */\n      0x02\n        /* \"VotingSystem.sol\":3314:3335  TheVoters[msg.sender] */\n      0x00\n        /* \"VotingSystem.sol\":3324:3334  msg.sender */\n      caller\n        /* \"VotingSystem.sol\":3314:3335  TheVoters[msg.sender] */\n      0xffffffffffffffffffffffffffffffffffffffff\n      and\n      0xffffffffffffffffffffffffffffffffffffffff\n      and\n      dup2\n      mstore\n      0x20\n      add\n      swap1\n      dup2\n      mstore\n      0x20\n      add\n      0x00\n      keccak256\n        /* \"VotingSystem.sol\":3314:3344  TheVoters[msg.sender].hasVoted */\n      0x01\n      add\n      0x01\n        /* \"VotingSystem.sol\":3314:3351  TheVoters[msg.sender].hasVoted = true */\n      0x0100\n      exp\n      dup2\n      sload\n      dup2\n      0xff\n      mul\n      not\n      and\n      swap1\n      dup4\n      iszero\n      iszero\n      mul\n      or\n      swap1\n      sstore\n      pop\n        /* \"VotingSystem.sol\":2919:3369  function castBallot(bytes32 _representativesHash) external {\r... */\n      pop\n      jump\t// out\n        /* \"VotingSystem.sol\":784:820  TheCand[] public representativesList */\n    tag_21:\n      0x03\n      dup2\n      dup2\n      sload\n      dup2\n      lt\n      tag_71\n      jumpi\n      0x00\n      dup1\n      revert\n    tag_71:\n      swap1\n      0x00\n      mstore\n      keccak256(0x00, 0x20)\n      swap1\n      0x03\n      mul\n      add\n      0x00\n      swap2\n      pop\n      swap1\n      pop\n      dup1\n      0x00\n      add\n      dup1\n      sload\n      tag_73\n      swap1\n      tag_74\n      jump\t// in\n    tag_73:\n      dup1\n      0x1f\n      add\n      0x20\n      dup1\n      swap2\n      div\n      mul\n      0x20\n      add\n      mload(0x40)\n      swap1\n      dup2\n      add\n      0x40\n      mstore\n      dup1\n      swap3\n      swap2\n      swap1\n      dup2\n      dup2\n      mstore\n      0x20\n      add\n      dup3\n      dup1\n      sload\n      tag_75\n      swap1\n      tag_74\n      jump\t// in\n    tag_75:\n      dup1\n      iszero\n      tag_76\n      jumpi\n      dup1\n      0x1f\n      lt\n      tag_77\n      jumpi\n      0x0100\n      dup1\n      dup4\n      sload\n      div\n      mul\n      dup4\n      mstore\n      swap2\n      0x20\n      add\n      swap2\n      jump(tag_76)\n    tag_77:\n      dup3\n      add\n      swap2\n      swap1\n      0x00\n      mstore\n      keccak256(0x00, 0x20)\n      swap1\n    tag_78:\n      dup2\n      sload\n      dup2\n      mstore\n      swap1\n      0x01\n      add\n      swap1\n      0x20\n      add\n      dup1\n      dup4\n      gt\n      tag_78\n      jumpi\n      dup3\n      swap1\n      sub\n      0x1f\n      and\n      dup3\n      add\n      swap2\n    tag_76:\n      pop\n      pop\n      pop\n      pop\n      pop\n      swap1\n      dup1\n      0x01\n      add\n      sload\n      swap1\n      dup1\n      0x02\n      add\n      sload\n      swap1\n      pop\n      dup4\n      jump\t// out\n        /* \"VotingSystem.sol\":5158:5254  function numberOfTotalVotes() external view returns(uint256){\r... */\n    tag_25:\n        /* \"VotingSystem.sol\":5210:5217  uint256 */\n      0x00\n        /* \"VotingSystem.sol\":5236:5246  allVotesIn */\n      sload(0x04)\n        /* \"VotingSystem.sol\":5229:5246  return allVotesIn */\n      swap1\n      pop\n        /* \"VotingSystem.sol\":5158:5254  function numberOfTotalVotes() external view returns(uint256){\r... */\n      swap1\n      jump\t// out\n        /* \"VotingSystem.sol\":4615:5113  function winnerChecking() external view returns (TheCand memory winner) {\r... */\n    tag_29:\n        /* \"VotingSystem.sol\":4664:4685  TheCand memory winner */\n      tag_80\n      tag_81\n      jump\t// in\n    tag_80:\n        /* \"VotingSystem.sol\":4735:4736  0 */\n      0x00\n        /* \"VotingSystem.sol\":4706:4725  representativesList */\n      0x03\n        /* \"VotingSystem.sol\":4706:4732  representativesList.length */\n      dup1\n      sload\n      swap1\n      pop\n        /* \"VotingSystem.sol\":4706:4736  representativesList.length > 0 */\n      gt\n        /* \"VotingSystem.sol\":4698:4770  require(representativesList.length > 0, \"No representativess in memory\") */\n      tag_83\n      jumpi\n      mload(0x40)\n      0x08c379a000000000000000000000000000000000000000000000000000000000\n      dup2\n      mstore\n      0x04\n      add\n      tag_84\n      swap1\n      tag_85\n      jump\t// in\n    tag_84:\n      mload(0x40)\n      dup1\n      swap2\n      sub\n      swap1\n      revert\n    tag_83:\n        /* \"VotingSystem.sol\":4792:4811  representativesList */\n      0x03\n        /* \"VotingSystem.sol\":4812:4813  0 */\n      0x00\n        /* \"VotingSystem.sol\":4792:4814  representativesList[0] */\n      dup2\n      sload\n      dup2\n      lt\n      tag_86\n      jumpi\n      mstore(0x00, 0x4e487b7100000000000000000000000000000000000000000000000000000000)\n      mstore(0x04, 0x32)\n      revert(0x00, 0x24)\n    tag_86:\n      swap1\n      0x00\n      mstore\n      keccak256(0x00, 0x20)\n      swap1\n      0x03\n      mul\n      add\n        /* \"VotingSystem.sol\":4783:4814  winner = representativesList[0] */\n      mload(0x40)\n      dup1\n      0x60\n      add\n      0x40\n      mstore\n      swap1\n      dup2\n      0x00\n      dup3\n      add\n      dup1\n      sload\n      tag_88\n      swap1\n      tag_74\n      jump\t// in\n    tag_88:\n      dup1\n      0x1f\n      add\n      0x20\n      dup1\n      swap2\n      div\n      mul\n      0x20\n      add\n      mload(0x40)\n      swap1\n      dup2\n      add\n      0x40\n      mstore\n      dup1\n      swap3\n      swap2\n      swap1\n      dup2\n      dup2\n      mstore\n      0x20\n      add\n      dup3\n      dup1\n      sload\n      tag_89\n      swap1\n      tag_74\n      jump\t// in\n    tag_89:\n      dup1\n      iszero\n      tag_90\n      jumpi\n      dup1\n      0x1f\n      lt\n      tag_91\n      jumpi\n      0x0100\n      dup1\n      dup4\n      sload\n      div\n      mul\n      dup4\n      mstore\n      swap2\n      0x20\n      add\n      swap2\n      jump(tag_90)\n    tag_91:\n      dup3\n      add\n      swap2\n      swap1\n      0x00\n      mstore\n      keccak256(0x00, 0x20)\n      swap1\n    tag_92:\n      dup2\n      sload\n      dup2\n      mstore\n      swap1\n      0x01\n      add\n      swap1\n      0x20\n      add\n      dup1\n      dup4\n      gt\n      tag_92\n      jumpi\n      dup3\n      swap1\n      sub\n      0x1f\n      and\n      dup3\n      add\n      swap2\n    tag_90:\n      pop\n      pop\n      pop\n      pop\n      pop\n      dup2\n      mstore\n      0x20\n      add\n      0x01\n      dup3\n      add\n      sload\n      dup2\n      mstore\n      0x20\n      add\n      0x02\n      dup3\n      add\n      sload\n      dup2\n      mstore\n      pop\n      pop\n      swap1\n      pop\n        /* \"VotingSystem.sol\":4826:4842  uint256 maxVotes */\n      0x00\n        /* \"VotingSystem.sol\":4845:4851  winner */\n      dup2\n        /* \"VotingSystem.sol\":4845:4857  winner.votes */\n      0x20\n      add\n      mload\n        /* \"VotingSystem.sol\":4826:4857  uint256 maxVotes = winner.votes */\n      swap1\n      pop\n        /* \"VotingSystem.sol\":4875:4884  uint256 i */\n      0x00\n        /* \"VotingSystem.sol\":4887:4888  1 */\n      0x01\n        /* \"VotingSystem.sol\":4875:4888  uint256 i = 1 */\n      swap1\n      pop\n        /* \"VotingSystem.sol\":4870:5106  for (uint256 i = 1; i < representativesList.length; i++) {\r... */\n    tag_93:\n        /* \"VotingSystem.sol\":4894:4913  representativesList */\n      0x03\n        /* \"VotingSystem.sol\":4894:4920  representativesList.length */\n      dup1\n      sload\n      swap1\n      pop\n        /* \"VotingSystem.sol\":4890:4891  i */\n      dup2\n        /* \"VotingSystem.sol\":4890:4920  i < representativesList.length */\n      lt\n        /* \"VotingSystem.sol\":4870:5106  for (uint256 i = 1; i < representativesList.length; i++) {\r... */\n      iszero\n      tag_94\n      jumpi\n        /* \"VotingSystem.sol\":4977:4985  maxVotes */\n      dup2\n        /* \"VotingSystem.sol\":4946:4965  representativesList */\n      0x03\n        /* \"VotingSystem.sol\":4966:4967  i */\n      dup3\n        /* \"VotingSystem.sol\":4946:4968  representativesList[i] */\n      dup2\n      sload\n      dup2\n      lt\n      tag_96\n      jumpi\n      mstore(0x00, 0x4e487b7100000000000000000000000000000000000000000000000000000000)\n      mstore(0x04, 0x32)\n      revert(0x00, 0x24)\n    tag_96:\n      swap1\n      0x00\n      mstore\n      keccak256(0x00, 0x20)\n      swap1\n      0x03\n      mul\n      add\n        /* \"VotingSystem.sol\":4946:4974  representativesList[i].votes */\n      0x01\n      add\n      sload\n        /* \"VotingSystem.sol\":4946:4985  representativesList[i].votes > maxVotes */\n      gt\n        /* \"VotingSystem.sol\":4942:5095  if (representativesList[i].votes > maxVotes) {\r... */\n      iszero\n      tag_98\n      jumpi\n        /* \"VotingSystem.sol\":5015:5034  representativesList */\n      0x03\n        /* \"VotingSystem.sol\":5035:5036  i */\n      dup2\n        /* \"VotingSystem.sol\":5015:5037  representativesList[i] */\n      dup2\n      sload\n      dup2\n      lt\n      tag_99\n      jumpi\n      mstore(0x00, 0x4e487b7100000000000000000000000000000000000000000000000000000000)\n      mstore(0x04, 0x32)\n      revert(0x00, 0x24)\n    tag_99:\n      swap1\n      0x00\n      mstore\n      keccak256(0x00, 0x20)\n      swap1\n      0x03\n      mul\n      add\n        /* \"VotingSystem.sol\":5006:5037  winner = representativesList[i] */\n      mload(0x40)\n      dup1\n      0x60\n      add\n      0x40\n      mstore\n      swap1\n      dup2\n      0x00\n      dup3\n      add\n      dup1\n      sload\n      tag_101\n      swap1\n      tag_74\n      jump\t// in\n    tag_101:\n      dup1\n      0x1f\n      add\n      0x20\n      dup1\n      swap2\n      div\n      mul\n      0x20\n      add\n      mload(0x40)\n      swap1\n      dup2\n      add\n      0x40\n      mstore\n      dup1\n      swap3\n      swap2\n      swap1\n      dup2\n      dup2\n      mstore\n      0x20\n      add\n      dup3\n      dup1\n      sload\n      tag_102\n      swap1\n      tag_74\n      jump\t// in\n    tag_102:\n      dup1\n      iszero\n      tag_103\n      jumpi\n      dup1\n      0x1f\n      lt\n      tag_104\n      jumpi\n      0x0100\n      dup1\n      dup4\n      sload\n      div\n      mul\n      dup4\n      mstore\n      swap2\n      0x20\n      add\n      swap2\n      jump(tag_103)\n    tag_104:\n      dup3\n      add\n      swap2\n      swap1\n      0x00\n      mstore\n      keccak256(0x00, 0x20)\n      swap1\n    tag_105:\n      dup2\n      sload\n      dup2\n      mstore\n      swap1\n      0x01\n      add\n      swap1\n      0x20\n      add\n      dup1\n      dup4\n      gt\n      tag_105\n      jumpi\n      dup3\n      swap1\n      sub\n      0x1f\n      and\n      dup3\n      add\n      swap2\n    tag_103:\n      pop\n      pop\n      pop\n      pop\n      pop\n      dup2\n      mstore\n      0x20\n      add\n      0x01\n      dup3\n      add\n      sload\n      dup2\n      mstore\n      0x20\n      add\n      0x02\n      dup3\n      add\n      sload\n      dup2\n      mstore\n      pop\n      pop\n      swap3\n      pop\n        /* \"VotingSystem.sol\":5067:5073  winner */\n      dup3\n        /* \"VotingSystem.sol\":5067:5079  winner.votes */\n      0x20\n      add\n      mload\n        /* \"VotingSystem.sol\":5056:5079  maxVotes = winner.votes */\n      swap2\n      pop\n        /* \"VotingSystem.sol\":4942:5095  if (representativesList[i].votes > maxVotes) {\r... */\n    tag_98:\n        /* \"VotingSystem.sol\":4922:4925  i++ */\n      dup1\n      dup1\n      tag_106\n      swap1\n      tag_68\n      jump\t// in\n    tag_106:\n      swap2\n      pop\n      pop\n        /* \"VotingSystem.sol\":4870:5106  for (uint256 i = 1; i < representativesList.length; i++) {\r... */\n      jump(tag_93)\n    tag_94:\n      pop\n        /* \"VotingSystem.sol\":4615:5113  function winnerChecking() external view returns (TheCand memory winner) {\r... */\n      pop\n      swap1\n      jump\t// out\n        /* \"VotingSystem.sol\":2777:2887  function getTheCandList() public view returns (TheCand[] memory) {\r... */\n    tag_33:\n        /* \"VotingSystem.sol\":2824:2840  TheCand[] memory */\n      0x60\n        /* \"VotingSystem.sol\":2860:2879  representativesList */\n      0x03\n        /* \"VotingSystem.sol\":2853:2879  return representativesList */\n      dup1\n      sload\n      dup1\n      0x20\n      mul\n      0x20\n      add\n      mload(0x40)\n      swap1\n      dup2\n      add\n      0x40\n      mstore\n      dup1\n      swap3\n      swap2\n      swap1\n      dup2\n      dup2\n      mstore\n      0x20\n      add\n      0x00\n      swap1\n    tag_108:\n      dup3\n      dup3\n      lt\n      iszero\n      tag_109\n      jumpi\n      dup4\n      dup3\n      swap1\n      0x00\n      mstore\n      keccak256(0x00, 0x20)\n      swap1\n      0x03\n      mul\n      add\n      mload(0x40)\n      dup1\n      0x60\n      add\n      0x40\n      mstore\n      swap1\n      dup2\n      0x00\n      dup3\n      add\n      dup1\n      sload\n      tag_111\n      swap1\n      tag_74\n      jump\t// in\n    tag_111:\n      dup1\n      0x1f\n      add\n      0x20\n      dup1\n      swap2\n      div\n      mul\n      0x20\n      add\n      mload(0x40)\n      swap1\n      dup2\n      add\n      0x40\n      mstore\n      dup1\n      swap3\n      swap2\n      swap1\n      dup2\n      dup2\n      mstore\n      0x20\n      add\n      dup3\n      dup1\n      sload\n      tag_112\n      swap1\n      tag_74\n      jump\t// in\n    tag_112:\n      dup1\n      iszero\n      tag_113\n      jumpi\n      dup1\n      0x1f\n      lt\n      tag_114\n      jumpi\n      0x0100\n      dup1\n      dup4\n      sload\n      div\n      mul\n      dup4\n      mstore\n      swap2\n      0x20\n      add\n      swap2\n      jump(tag_113)\n    tag_114:\n      dup3\n      add\n      swap2\n      swap1\n      0x00\n      mstore\n      keccak256(0x00, 0x20)\n      swap1\n    tag_115:\n      dup2\n      sload\n      dup2\n      mstore\n      swap1\n      0x01\n      add\n      swap1\n      0x20\n      add\n      dup1\n      dup4\n      gt\n      tag_115\n      jumpi\n      dup3\n      swap1\n      sub\n      0x1f\n      and\n      dup3\n      add\n      swap2\n    tag_113:\n      pop\n      pop\n      pop\n      pop\n      pop\n      dup2\n      mstore\n      0x20\n      add\n      0x01\n      dup3\n      add\n      sload\n      dup2\n      mstore\n      0x20\n      add\n      0x02\n      dup3\n      add\n      sload\n      dup2\n      mstore\n      pop\n      pop\n      dup2\n      mstore\n      0x20\n      add\n      swap1\n      0x01\n      add\n      swap1\n      jump(tag_108)\n    tag_109:\n      pop\n      pop\n      pop\n      pop\n      swap1\n      pop\n        /* \"VotingSystem.sol\":2777:2887  function getTheCandList() public view returns (TheCand[] memory) {\r... */\n      swap1\n      jump\t// out\n        /* \"VotingSystem.sol\":1068:1405  function registerTheVoter(address _TheVoter, string memory _name) external {\r... */\n    tag_39:\n        /* \"VotingSystem.sol\":1176:1181  admin */\n      0x00\n      dup1\n      sload\n      swap1\n      0x0100\n      exp\n      swap1\n      div\n      0xffffffffffffffffffffffffffffffffffffffff\n      and\n        /* \"VotingSystem.sol\":1162:1181  msg.sender == admin */\n      0xffffffffffffffffffffffffffffffffffffffff\n      and\n        /* \"VotingSystem.sol\":1162:1172  msg.sender */\n      caller\n        /* \"VotingSystem.sol\":1162:1181  msg.sender == admin */\n      0xffffffffffffffffffffffffffffffffffffffff\n      and\n      eq\n        /* \"VotingSystem.sol\":1154:1207  require(msg.sender == admin, \"Adminitrator function\") */\n      tag_117\n      jumpi\n      mload(0x40)\n      0x08c379a000000000000000000000000000000000000000000000000000000000\n      dup2\n      mstore\n      0x04\n      add\n      tag_118\n      swap1\n      tag_119\n      jump\t// in\n    tag_118:\n      mload(0x40)\n      dup1\n      swap2\n      sub\n      swap1\n      revert\n    tag_117:\n        /* \"VotingSystem.sol\":1247:1248  0 */\n      0x00\n        /* \"VotingSystem.sol\":1226:1249  _TheVoter != address(0) */\n      0xffffffffffffffffffffffffffffffffffffffff\n      and\n        /* \"VotingSystem.sol\":1226:1235  _TheVoter */\n      dup3\n        /* \"VotingSystem.sol\":1226:1249  _TheVoter != address(0) */\n      0xffffffffffffffffffffffffffffffffffffffff\n      and\n      eq\n      iszero\n        /* \"VotingSystem.sol\":1218:1272  require(_TheVoter != address(0), \"Not a TheVoter add\") */\n      tag_120\n      jumpi\n      mload(0x40)\n      0x08c379a000000000000000000000000000000000000000000000000000000000\n      dup2\n      mstore\n      0x04\n      add\n      tag_121\n      swap1\n      tag_122\n      jump\t// in\n    tag_121:\n      mload(0x40)\n      dup1\n      swap2\n      sub\n      swap1\n      revert\n    tag_120:\n        /* \"VotingSystem.sol\":1306:1345  TheVoter(_name, true, false, _TheVoter) */\n      mload(0x40)\n      dup1\n      0x80\n      add\n      0x40\n      mstore\n      dup1\n        /* \"VotingSystem.sol\":1315:1320  _name */\n      dup3\n        /* \"VotingSystem.sol\":1306:1345  TheVoter(_name, true, false, _TheVoter) */\n      dup2\n      mstore\n      0x20\n      add\n        /* \"VotingSystem.sol\":1322:1326  true */\n      0x01\n        /* \"VotingSystem.sol\":1306:1345  TheVoter(_name, true, false, _TheVoter) */\n      iszero\n      iszero\n      dup2\n      mstore\n      0x20\n      add\n        /* \"VotingSystem.sol\":1328:1333  false */\n      0x00\n        /* \"VotingSystem.sol\":1306:1345  TheVoter(_name, true, false, _TheVoter) */\n      iszero\n      iszero\n      dup2\n      mstore\n      0x20\n      add\n        /* \"VotingSystem.sol\":1335:1344  _TheVoter */\n      dup4\n        /* \"VotingSystem.sol\":1306:1345  TheVoter(_name, true, false, _TheVoter) */\n      0xffffffffffffffffffffffffffffffffffffffff\n      and\n      dup2\n      mstore\n      pop\n        /* \"VotingSystem.sol\":1283:1292  TheVoters */\n      0x02\n        /* \"VotingSystem.sol\":1283:1303  TheVoters[_TheVoter] */\n      0x00\n        /* \"VotingSystem.sol\":1293:1302  _TheVoter */\n      dup5\n        /* \"VotingSystem.sol\":1283:1303  TheVoters[_TheVoter] */\n      0xffffffffffffffffffffffffffffffffffffffff\n      and\n      0xffffffffffffffffffffffffffffffffffffffff\n      and\n      dup2\n      mstore\n      0x20\n      add\n      swap1\n      dup2\n      mstore\n      0x20\n      add\n      0x00\n      keccak256\n        /* \"VotingSystem.sol\":1283:1345  TheVoters[_TheVoter] = TheVoter(_name, true, false, _TheVoter) */\n      0x00\n      dup3\n      add\n      mload\n      dup2\n      0x00\n      add\n      swap1\n      dup1\n      mload\n      swap1\n      0x20\n      add\n      swap1\n      tag_123\n      swap3\n      swap2\n      swap1\n      tag_124\n      jump\t// in\n    tag_123:\n      pop\n      0x20\n      dup3\n      add\n      mload\n      dup2\n      0x01\n      add\n      exp(0x0100, 0x00)\n      dup2\n      sload\n      dup2\n      0xff\n      mul\n      not\n      and\n      swap1\n      dup4\n      iszero\n      iszero\n      mul\n      or\n      swap1\n      sstore\n      pop\n      0x40\n      dup3\n      add\n      mload\n      dup2\n      0x01\n      add\n      exp(0x0100, 0x01)\n      dup2\n      sload\n      dup2\n      0xff\n      mul\n      not\n      and\n      swap1\n      dup4\n      iszero\n      iszero\n      mul\n      or\n      swap1\n      sstore\n      pop\n      0x60\n      dup3\n      add\n      mload\n      dup2\n      0x01\n      add\n      exp(0x0100, 0x02)\n      dup2\n      sload\n      dup2\n      0xffffffffffffffffffffffffffffffffffffffff\n      mul\n      not\n      and\n      swap1\n      dup4\n      0xffffffffffffffffffffffffffffffffffffffff\n      and\n      mul\n      or\n      swap1\n      sstore\n      pop\n      swap1\n      pop\n      pop\n        /* \"VotingSystem.sol\":1356:1369  TheVotersList */\n      0x01\n        /* \"VotingSystem.sol\":1375:1384  TheVoters */\n      0x02\n        /* \"VotingSystem.sol\":1375:1395  TheVoters[_TheVoter] */\n      0x00\n        /* \"VotingSystem.sol\":1385:1394  _TheVoter */\n      dup5\n        /* \"VotingSystem.sol\":1375:1395  TheVoters[_TheVoter] */\n      0xffffffffffffffffffffffffffffffffffffffff\n      and\n      0xffffffffffffffffffffffffffffffffffffffff\n      and\n      dup2\n      mstore\n      0x20\n      add\n      swap1\n      dup2\n      mstore\n      0x20\n      add\n      0x00\n      keccak256\n        /* \"VotingSystem.sol\":1356:1397  TheVotersList.push(TheVoters[_TheVoter] ) */\n      swap1\n      dup1\n      0x01\n      dup2\n      sload\n      add\n      dup1\n      dup3\n      sstore\n      dup1\n      swap2\n      pop\n      pop\n      0x01\n      swap1\n      sub\n      swap1\n      0x00\n      mstore\n      keccak256(0x00, 0x20)\n      swap1\n      0x02\n      mul\n      add\n      0x00\n      swap1\n      swap2\n      swap1\n      swap2\n      swap1\n      swap2\n      pop\n      0x00\n      dup3\n      add\n      dup2\n      0x00\n      add\n      swap1\n      dup1\n      sload\n      tag_126\n      swap1\n      tag_74\n      jump\t// in\n    tag_126:\n      tag_127\n      swap3\n      swap2\n      swap1\n      tag_128\n      jump\t// in\n    tag_127:\n      pop\n      0x01\n      dup3\n      add\n      0x00\n      swap1\n      sload\n      swap1\n      0x0100\n      exp\n      swap1\n      div\n      0xff\n      and\n      dup2\n      0x01\n      add\n      exp(0x0100, 0x00)\n      dup2\n      sload\n      dup2\n      0xff\n      mul\n      not\n      and\n      swap1\n      dup4\n      iszero\n      iszero\n      mul\n      or\n      swap1\n      sstore\n      pop\n      0x01\n      dup3\n      add\n      0x01\n      swap1\n      sload\n      swap1\n      0x0100\n      exp\n      swap1\n      div\n      0xff\n      and\n      dup2\n      0x01\n      add\n      exp(0x0100, 0x01)\n      dup2\n      sload\n      dup2\n      0xff\n      mul\n      not\n      and\n      swap1\n      dup4\n      iszero\n      iszero\n      mul\n      or\n      swap1\n      sstore\n      pop\n      0x01\n      dup3\n      add\n      0x02\n      swap1\n      sload\n      swap1\n      0x0100\n      exp\n      swap1\n      div\n      0xffffffffffffffffffffffffffffffffffffffff\n      and\n      dup2\n      0x01\n      add\n      exp(0x0100, 0x02)\n      dup2\n      sload\n      dup2\n      0xffffffffffffffffffffffffffffffffffffffff\n      mul\n      not\n      and\n      swap1\n      dup4\n      0xffffffffffffffffffffffffffffffffffffffff\n      and\n      mul\n      or\n      swap1\n      sstore\n      pop\n      pop\n      pop\n        /* \"VotingSystem.sol\":1068:1405  function registerTheVoter(address _TheVoter, string memory _name) external {\r... */\n      pop\n      pop\n      jump\t// out\n        /* \"VotingSystem.sol\":873:895  uint public allVotesIn */\n    tag_41:\n      sload(0x04)\n      dup2\n      jump\t// out\n        /* \"VotingSystem.sol\":2043:2382  function addTheCand(string memory _name) external {\r... */\n    tag_46:\n        /* \"VotingSystem.sol\":2126:2131  admin */\n      0x00\n      dup1\n      sload\n      swap1\n      0x0100\n      exp\n      swap1\n      div\n      0xffffffffffffffffffffffffffffffffffffffff\n      and\n        /* \"VotingSystem.sol\":2112:2131  msg.sender == admin */\n      0xffffffffffffffffffffffffffffffffffffffff\n      and\n        /* \"VotingSystem.sol\":2112:2122  msg.sender */\n      caller\n        /* \"VotingSystem.sol\":2112:2131  msg.sender == admin */\n      0xffffffffffffffffffffffffffffffffffffffff\n      and\n      eq\n        /* \"VotingSystem.sol\":2104:2157  require(msg.sender == admin, \"Adminitrator function\") */\n      tag_130\n      jumpi\n      mload(0x40)\n      0x08c379a000000000000000000000000000000000000000000000000000000000\n      dup2\n      mstore\n      0x04\n      add\n      tag_131\n      swap1\n      tag_119\n      jump\t// in\n    tag_131:\n      mload(0x40)\n      dup1\n      swap2\n      sub\n      swap1\n      revert\n    tag_130:\n        /* \"VotingSystem.sol\":2198:2199  0 */\n      0x00\n        /* \"VotingSystem.sol\":2182:2187  _name */\n      dup2\n        /* \"VotingSystem.sol\":2176:2195  bytes(_name).length */\n      mload\n        /* \"VotingSystem.sol\":2176:2199  bytes(_name).length > 0 */\n      gt\n        /* \"VotingSystem.sol\":2168:2228  require(bytes(_name).length > 0, \"TheCand has to be filled\") */\n      tag_132\n      jumpi\n      mload(0x40)\n      0x08c379a000000000000000000000000000000000000000000000000000000000\n      dup2\n      mstore\n      0x04\n      add\n      tag_133\n      swap1\n      tag_134\n      jump\t// in\n    tag_133:\n      mload(0x40)\n      dup1\n      swap2\n      sub\n      swap1\n      revert\n    tag_132:\n        /* \"VotingSystem.sol\":2239:2251  bytes32 hash */\n      0x00\n        /* \"VotingSystem.sol\":2270:2275  _name */\n      dup2\n        /* \"VotingSystem.sol\":2254:2277  keccak256(bytes(_name)) */\n      dup1\n      mload\n      swap1\n      0x20\n      add\n      keccak256\n        /* \"VotingSystem.sol\":2239:2277  bytes32 hash = keccak256(bytes(_name)) */\n      swap1\n      pop\n        /* \"VotingSystem.sol\":2325:2344  representativesList */\n      0x03\n        /* \"VotingSystem.sol\":2350:2373  TheCand(_name, 0, hash) */\n      mload(0x40)\n      dup1\n      0x60\n      add\n      0x40\n      mstore\n      dup1\n        /* \"VotingSystem.sol\":2358:2363  _name */\n      dup5\n        /* \"VotingSystem.sol\":2350:2373  TheCand(_name, 0, hash) */\n      dup2\n      mstore\n      0x20\n      add\n        /* \"VotingSystem.sol\":2365:2366  0 */\n      0x00\n        /* \"VotingSystem.sol\":2350:2373  TheCand(_name, 0, hash) */\n      dup2\n      mstore\n      0x20\n      add\n        /* \"VotingSystem.sol\":2368:2372  hash */\n      dup4\n        /* \"VotingSystem.sol\":2350:2373  TheCand(_name, 0, hash) */\n      dup2\n      mstore\n      pop\n        /* \"VotingSystem.sol\":2325:2374  representativesList.push(TheCand(_name, 0, hash)) */\n      swap1\n      dup1\n      0x01\n      dup2\n      sload\n      add\n      dup1\n      dup3\n      sstore\n      dup1\n      swap2\n      pop\n      pop\n      0x01\n      swap1\n      sub\n      swap1\n      0x00\n      mstore\n      keccak256(0x00, 0x20)\n      swap1\n      0x03\n      mul\n      add\n      0x00\n      swap1\n      swap2\n      swap1\n      swap2\n      swap1\n      swap2\n      pop\n      0x00\n      dup3\n      add\n      mload\n      dup2\n      0x00\n      add\n      swap1\n      dup1\n      mload\n      swap1\n      0x20\n      add\n      swap1\n      tag_136\n      swap3\n      swap2\n      swap1\n      tag_124\n      jump\t// in\n    tag_136:\n      pop\n      0x20\n      dup3\n      add\n      mload\n      dup2\n      0x01\n      add\n      sstore\n      0x40\n      dup3\n      add\n      mload\n      dup2\n      0x02\n      add\n      sstore\n      pop\n      pop\n        /* \"VotingSystem.sol\":2043:2382  function addTheCand(string memory _name) external {\r... */\n      pop\n      pop\n      jump\t// out\n        /* \"VotingSystem.sol\":3772:4202  function checkVotesPerGotRep(bytes32 _representativesHash) external view returns (uint256) {\r... */\n    tag_49:\n        /* \"VotingSystem.sol\":3854:3861  uint256 */\n      0x00\n        /* \"VotingSystem.sol\":3882:3925  representativesExists(_representativesHash) */\n      tag_138\n        /* \"VotingSystem.sol\":3904:3924  _representativesHash */\n      dup3\n        /* \"VotingSystem.sol\":3882:3903  representativesExists */\n      tag_63\n        /* \"VotingSystem.sol\":3882:3925  representativesExists(_representativesHash) */\n      jump\t// in\n    tag_138:\n        /* \"VotingSystem.sol\":3874:3955  require(representativesExists(_representativesHash), \"Not valid representatives\") */\n      tag_139\n      jumpi\n      mload(0x40)\n      0x08c379a000000000000000000000000000000000000000000000000000000000\n      dup2\n      mstore\n      0x04\n      add\n      tag_140\n      swap1\n      tag_141\n      jump\t// in\n    tag_140:\n      mload(0x40)\n      dup1\n      swap2\n      sub\n      swap1\n      revert\n    tag_139:\n        /* \"VotingSystem.sol\":3971:3980  uint256 i */\n      0x00\n        /* \"VotingSystem.sol\":3966:4176  for (uint256 i = 0; i < representativesList.length; i++) {\r... */\n    tag_142:\n        /* \"VotingSystem.sol\":3990:4009  representativesList */\n      0x03\n        /* \"VotingSystem.sol\":3990:4016  representativesList.length */\n      dup1\n      sload\n      swap1\n      pop\n        /* \"VotingSystem.sol\":3986:3987  i */\n      dup2\n        /* \"VotingSystem.sol\":3986:4016  i < representativesList.length */\n      lt\n        /* \"VotingSystem.sol\":3966:4176  for (uint256 i = 0; i < representativesList.length; i++) {\r... */\n      iszero\n      tag_143\n      jumpi\n        /* \"VotingSystem.sol\":4073:4093  _representativesHash */\n      dup3\n        /* \"VotingSystem.sol\":4042:4061  representativesList */\n      0x03\n        /* \"VotingSystem.sol\":4062:4063  i */\n      dup3\n        /* \"VotingSystem.sol\":4042:4064  representativesList[i] */\n      dup2\n      sload\n      dup2\n      lt\n      tag_145\n      jumpi\n      mstore(0x00, 0x4e487b7100000000000000000000000000000000000000000000000000000000)\n      mstore(0x04, 0x32)\n      revert(0x00, 0x24)\n    tag_145:\n      swap1\n      0x00\n      mstore\n      keccak256(0x00, 0x20)\n      swap1\n      0x03\n      mul\n      add\n        /* \"VotingSystem.sol\":4042:4069  representativesList[i].hash */\n      0x02\n      add\n      sload\n        /* \"VotingSystem.sol\":4042:4093  representativesList[i].hash == _representativesHash */\n      eq\n        /* \"VotingSystem.sol\":4038:4165  if (representativesList[i].hash == _representativesHash) {\r... */\n      iszero\n      tag_147\n      jumpi\n        /* \"VotingSystem.sol\":4121:4140  representativesList */\n      0x03\n        /* \"VotingSystem.sol\":4141:4142  i */\n      dup2\n        /* \"VotingSystem.sol\":4121:4143  representativesList[i] */\n      dup2\n      sload\n      dup2\n      lt\n      tag_148\n      jumpi\n      mstore(0x00, 0x4e487b7100000000000000000000000000000000000000000000000000000000)\n      mstore(0x04, 0x32)\n      revert(0x00, 0x24)\n    tag_148:\n      swap1\n      0x00\n      mstore\n      keccak256(0x00, 0x20)\n      swap1\n      0x03\n      mul\n      add\n        /* \"VotingSystem.sol\":4121:4149  representativesList[i].votes */\n      0x01\n      add\n      sload\n        /* \"VotingSystem.sol\":4114:4149  return representativesList[i].votes */\n      swap2\n      pop\n      pop\n      jump(tag_137)\n        /* \"VotingSystem.sol\":4038:4165  if (representativesList[i].hash == _representativesHash) {\r... */\n    tag_147:\n        /* \"VotingSystem.sol\":4018:4021  i++ */\n      dup1\n      dup1\n      tag_150\n      swap1\n      tag_68\n      jump\t// in\n    tag_150:\n      swap2\n      pop\n      pop\n        /* \"VotingSystem.sol\":3966:4176  for (uint256 i = 0; i < representativesList.length; i++) {\r... */\n      jump(tag_142)\n    tag_143:\n      pop\n        /* \"VotingSystem.sol\":4193:4194  0 */\n      0x00\n        /* \"VotingSystem.sol\":4186:4194  return 0 */\n      swap1\n      pop\n        /* \"VotingSystem.sol\":3772:4202  function checkVotesPerGotRep(bytes32 _representativesHash) external view returns (uint256) {\r... */\n    tag_137:\n      swap2\n      swap1\n      pop\n      jump\t// out\n        /* \"VotingSystem.sol\":165:185  address public admin */\n    tag_52:\n      0x00\n      dup1\n      sload\n      swap1\n      0x0100\n      exp\n      swap1\n      div\n      0xffffffffffffffffffffffffffffffffffffffff\n      and\n      dup2\n      jump\t// out\n        /* \"VotingSystem.sol\":3406:3723  function representativesExists(bytes32 _representativesHash) internal view returns (bool) {\r... */\n    tag_63:\n        /* \"VotingSystem.sol\":3490:3494  bool */\n      0x00\n        /* \"VotingSystem.sol\":3512:3521  uint256 i */\n      dup1\n        /* \"VotingSystem.sol\":3524:3525  0 */\n      0x00\n        /* \"VotingSystem.sol\":3512:3525  uint256 i = 0 */\n      swap1\n      pop\n        /* \"VotingSystem.sol\":3507:3693  for (uint256 i = 0; i < representativesList.length; i++) {\r... */\n    tag_152:\n        /* \"VotingSystem.sol\":3531:3550  representativesList */\n      0x03\n        /* \"VotingSystem.sol\":3531:3557  representativesList.length */\n      dup1\n      sload\n      swap1\n      pop\n        /* \"VotingSystem.sol\":3527:3528  i */\n      dup2\n        /* \"VotingSystem.sol\":3527:3557  i < representativesList.length */\n      lt\n        /* \"VotingSystem.sol\":3507:3693  for (uint256 i = 0; i < representativesList.length; i++) {\r... */\n      iszero\n      tag_153\n      jumpi\n        /* \"VotingSystem.sol\":3614:3634  _representativesHash */\n      dup3\n        /* \"VotingSystem.sol\":3583:3602  representativesList */\n      0x03\n        /* \"VotingSystem.sol\":3603:3604  i */\n      dup3\n        /* \"VotingSystem.sol\":3583:3605  representativesList[i] */\n      dup2\n      sload\n      dup2\n      lt\n      tag_155\n      jumpi\n      mstore(0x00, 0x4e487b7100000000000000000000000000000000000000000000000000000000)\n      mstore(0x04, 0x32)\n      revert(0x00, 0x24)\n    tag_155:\n      swap1\n      0x00\n      mstore\n      keccak256(0x00, 0x20)\n      swap1\n      0x03\n      mul\n      add\n        /* \"VotingSystem.sol\":3583:3610  representativesList[i].hash */\n      0x02\n      add\n      sload\n        /* \"VotingSystem.sol\":3583:3634  representativesList[i].hash == _representativesHash */\n      eq\n        /* \"VotingSystem.sol\":3579:3682  if (representativesList[i].hash == _representativesHash) {\r... */\n      iszero\n      tag_157\n      jumpi\n        /* \"VotingSystem.sol\":3662:3666  true */\n      0x01\n        /* \"VotingSystem.sol\":3655:3666  return true */\n      swap2\n      pop\n      pop\n      jump(tag_151)\n        /* \"VotingSystem.sol\":3579:3682  if (representativesList[i].hash == _representativesHash) {\r... */\n    tag_157:\n        /* \"VotingSystem.sol\":3559:3562  i++ */\n      dup1\n      dup1\n      tag_158\n      swap1\n      tag_68\n      jump\t// in\n    tag_158:\n      swap2\n      pop\n      pop\n        /* \"VotingSystem.sol\":3507:3693  for (uint256 i = 0; i < representativesList.length; i++) {\r... */\n      jump(tag_152)\n    tag_153:\n      pop\n        /* \"VotingSystem.sol\":3710:3715  false */\n      0x00\n        /* \"VotingSystem.sol\":3703:3715  return false */\n      swap1\n      pop\n        /* \"VotingSystem.sol\":3406:3723  function representativesExists(bytes32 _representativesHash) internal view returns (bool) {\r... */\n    tag_151:\n      swap2\n      swap1\n      pop\n      jump\t// out\n        /* \"VotingSystem.sol\":4268:4582  function updateTheCandVotes(bytes32 _representativesHash) internal {\r... */\n    tag_70:\n        /* \"VotingSystem.sol\":4351:4360  uint256 i */\n      0x00\n        /* \"VotingSystem.sol\":4346:4575  for (uint256 i = 0; i < representativesList.length; i++) {\r... */\n    tag_160:\n        /* \"VotingSystem.sol\":4370:4389  representativesList */\n      0x03\n        /* \"VotingSystem.sol\":4370:4396  representativesList.length */\n      dup1\n      sload\n      swap1\n      pop\n        /* \"VotingSystem.sol\":4366:4367  i */\n      dup2\n        /* \"VotingSystem.sol\":4366:4396  i < representativesList.length */\n      lt\n        /* \"VotingSystem.sol\":4346:4575  for (uint256 i = 0; i < representativesList.length; i++) {\r... */\n      iszero\n      tag_161\n      jumpi\n        /* \"VotingSystem.sol\":4453:4473  _representativesHash */\n      dup2\n        /* \"VotingSystem.sol\":4422:4441  representativesList */\n      0x03\n        /* \"VotingSystem.sol\":4442:4443  i */\n      dup3\n        /* \"VotingSystem.sol\":4422:4444  representativesList[i] */\n      dup2\n      sload\n      dup2\n      lt\n      tag_163\n      jumpi\n      mstore(0x00, 0x4e487b7100000000000000000000000000000000000000000000000000000000)\n      mstore(0x04, 0x32)\n      revert(0x00, 0x24)\n    tag_163:\n      swap1\n      0x00\n      mstore\n      keccak256(0x00, 0x20)\n      swap1\n      0x03\n      mul\n      add\n        /* \"VotingSystem.sol\":4422:4449  representativesList[i].hash */\n      0x02\n      add\n      sload\n        /* \"VotingSystem.sol\":4422:4473  representativesList[i].hash == _representativesHash */\n      eq\n        /* \"VotingSystem.sol\":4418:4564  if (representativesList[i].hash == _representativesHash) {\r... */\n      iszero\n      tag_165\n      jumpi\n        /* \"VotingSystem.sol\":4494:4513  representativesList */\n      0x03\n        /* \"VotingSystem.sol\":4514:4515  i */\n      dup2\n        /* \"VotingSystem.sol\":4494:4516  representativesList[i] */\n      dup2\n      sload\n      dup2\n      lt\n      tag_166\n      jumpi\n      mstore(0x00, 0x4e487b7100000000000000000000000000000000000000000000000000000000)\n      mstore(0x04, 0x32)\n      revert(0x00, 0x24)\n    tag_166:\n      swap1\n      0x00\n      mstore\n      keccak256(0x00, 0x20)\n      swap1\n      0x03\n      mul\n      add\n        /* \"VotingSystem.sol\":4494:4522  representativesList[i].votes */\n      0x01\n      add\n      0x00\n        /* \"VotingSystem.sol\":4494:4524  representativesList[i].votes++ */\n      dup2\n      sload\n      dup1\n      swap3\n      swap2\n      swap1\n      tag_168\n      swap1\n      tag_68\n      jump\t// in\n    tag_168:\n      swap2\n      swap1\n      pop\n      sstore\n      pop\n        /* \"VotingSystem.sol\":4543:4548  break */\n      jump(tag_161)\n        /* \"VotingSystem.sol\":4418:4564  if (representativesList[i].hash == _representativesHash) {\r... */\n    tag_165:\n        /* \"VotingSystem.sol\":4398:4401  i++ */\n      dup1\n      dup1\n      tag_169\n      swap1\n      tag_68\n      jump\t// in\n    tag_169:\n      swap2\n      pop\n      pop\n        /* \"VotingSystem.sol\":4346:4575  for (uint256 i = 0; i < representativesList.length; i++) {\r... */\n      jump(tag_160)\n    tag_161:\n      pop\n        /* \"VotingSystem.sol\":4268:4582  function updateTheCandVotes(bytes32 _representativesHash) internal {\r... */\n      pop\n      jump\t// out\n    tag_81:\n      mload(0x40)\n      dup1\n      0x60\n      add\n      0x40\n      mstore\n      dup1\n      0x60\n      dup2\n      mstore\n      0x20\n      add\n      0x00\n      dup2\n      mstore\n      0x20\n      add\n      0x00\n      dup1\n      not\n      and\n      dup2\n      mstore\n      pop\n      swap1\n      jump\t// out\n    tag_124:\n      dup3\n      dup1\n      sload\n      tag_170\n      swap1\n      tag_74\n      jump\t// in\n    tag_170:\n      swap1\n      0x00\n      mstore\n      keccak256(0x00, 0x20)\n      swap1\n      0x1f\n      add\n      0x20\n      swap1\n      div\n      dup2\n      add\n      swap3\n      dup3\n      tag_172\n      jumpi\n      0x00\n      dup6\n      sstore\n      jump(tag_171)\n    tag_172:\n      dup3\n      0x1f\n      lt\n      tag_173\n      jumpi\n      dup1\n      mload\n      not(0xff)\n      and\n      dup4\n      dup1\n      add\n      or\n      dup6\n      sstore\n      jump(tag_171)\n    tag_173:\n      dup3\n      dup1\n      add\n      0x01\n      add\n      dup6\n      sstore\n      dup3\n      iszero\n      tag_171\n      jumpi\n      swap2\n      dup3\n      add\n    tag_174:\n      dup3\n      dup2\n      gt\n      iszero\n      tag_175\n      jumpi\n      dup3\n      mload\n      dup3\n      sstore\n      swap2\n      0x20\n      add\n      swap2\n      swap1\n      0x01\n      add\n      swap1\n      jump(tag_174)\n    tag_175:\n    tag_171:\n      pop\n      swap1\n      pop\n      tag_176\n      swap2\n      swap1\n      tag_177\n      jump\t// in\n    tag_176:\n      pop\n      swap1\n      jump\t// out\n    tag_128:\n      dup3\n      dup1\n      sload\n      tag_178\n      swap1\n      tag_74\n      jump\t// in\n    tag_178:\n      swap1\n      0x00\n      mstore\n      keccak256(0x00, 0x20)\n      swap1\n      0x1f\n      add\n      0x20\n      swap1\n      div\n      dup2\n      add\n      swap3\n      dup3\n      tag_180\n      jumpi\n      0x00\n      dup6\n      sstore\n      jump(tag_179)\n    tag_180:\n      dup3\n      0x1f\n      lt\n      tag_181\n      jumpi\n      dup1\n      sload\n      dup6\n      sstore\n      jump(tag_179)\n    tag_181:\n      dup3\n      dup1\n      add\n      0x01\n      add\n      dup6\n      sstore\n      dup3\n      iszero\n      tag_179\n      jumpi\n      0x00\n      mstore\n      keccak256(0x00, 0x20)\n      swap2\n      0x1f\n      add\n      0x20\n      swap1\n      div\n      dup3\n      add\n    tag_182:\n      dup3\n      dup2\n      gt\n      iszero\n      tag_183\n      jumpi\n      dup3\n      sload\n      dup3\n      sstore\n      swap2\n      0x01\n      add\n      swap2\n      swap1\n      0x01\n      add\n      swap1\n      jump(tag_182)\n    tag_183:\n    tag_179:\n      pop\n      swap1\n      pop\n      tag_184\n      swap2\n      swap1\n      tag_177\n      jump\t// in\n    tag_184:\n      pop\n      swap1\n      jump\t// out\n    tag_177:\n    tag_185:\n      dup1\n      dup3\n      gt\n      iszero\n      tag_186\n      jumpi\n      0x00\n      dup2\n      0x00\n      swap1\n      sstore\n      pop\n      0x01\n      add\n      jump(tag_185)\n    tag_186:\n      pop\n      swap1\n      jump\t// out\n        /* \"#utility.yul\":7:351   */\n    tag_188:\n      0x00\n        /* \"#utility.yul\":110:175   */\n      tag_190\n        /* \"#utility.yul\":125:174   */\n      tag_191\n        /* \"#utility.yul\":167:173   */\n      dup5\n        /* \"#utility.yul\":125:174   */\n      tag_192\n      jump\t// in\n    tag_191:\n        /* \"#utility.yul\":110:175   */\n      tag_193\n      jump\t// in\n    tag_190:\n        /* \"#utility.yul\":101:175   */\n      swap1\n      pop\n        /* \"#utility.yul\":198:204   */\n      dup3\n        /* \"#utility.yul\":191:196   */\n      dup2\n        /* \"#utility.yul\":184:205   */\n      mstore\n        /* \"#utility.yul\":236:240   */\n      0x20\n        /* \"#utility.yul\":229:234   */\n      dup2\n        /* \"#utility.yul\":225:241   */\n      add\n        /* \"#utility.yul\":274:277   */\n      dup5\n        /* \"#utility.yul\":265:271   */\n      dup5\n        /* \"#utility.yul\":260:263   */\n      dup5\n        /* \"#utility.yul\":256:272   */\n      add\n        /* \"#utility.yul\":253:278   */\n      gt\n        /* \"#utility.yul\":250:252   */\n      iszero\n      tag_194\n      jumpi\n        /* \"#utility.yul\":291:292   */\n      0x00\n        /* \"#utility.yul\":288:289   */\n      dup1\n        /* \"#utility.yul\":281:293   */\n      revert\n        /* \"#utility.yul\":250:252   */\n    tag_194:\n        /* \"#utility.yul\":304:345   */\n      tag_195\n        /* \"#utility.yul\":338:344   */\n      dup5\n        /* \"#utility.yul\":333:336   */\n      dup3\n        /* \"#utility.yul\":328:331   */\n      dup6\n        /* \"#utility.yul\":304:345   */\n      tag_196\n      jump\t// in\n    tag_195:\n        /* \"#utility.yul\":91:351   */\n      pop\n      swap4\n      swap3\n      pop\n      pop\n      pop\n      jump\t// out\n        /* \"#utility.yul\":357:496   */\n    tag_197:\n      0x00\n        /* \"#utility.yul\":441:447   */\n      dup2\n        /* \"#utility.yul\":428:448   */\n      calldataload\n        /* \"#utility.yul\":419:448   */\n      swap1\n      pop\n        /* \"#utility.yul\":457:490   */\n      tag_199\n        /* \"#utility.yul\":484:489   */\n      dup2\n        /* \"#utility.yul\":457:490   */\n      tag_200\n      jump\t// in\n    tag_199:\n        /* \"#utility.yul\":409:496   */\n      swap3\n      swap2\n      pop\n      pop\n      jump\t// out\n        /* \"#utility.yul\":502:641   */\n    tag_201:\n      0x00\n        /* \"#utility.yul\":586:592   */\n      dup2\n        /* \"#utility.yul\":573:593   */\n      calldataload\n        /* \"#utility.yul\":564:593   */\n      swap1\n      pop\n        /* \"#utility.yul\":602:635   */\n      tag_203\n        /* \"#utility.yul\":629:634   */\n      dup2\n        /* \"#utility.yul\":602:635   */\n      tag_204\n      jump\t// in\n    tag_203:\n        /* \"#utility.yul\":554:641   */\n      swap3\n      swap2\n      pop\n      pop\n      jump\t// out\n        /* \"#utility.yul\":661:934   */\n    tag_205:\n      0x00\n        /* \"#utility.yul\":766:769   */\n      dup3\n        /* \"#utility.yul\":759:763   */\n      0x1f\n        /* \"#utility.yul\":751:757   */\n      dup4\n        /* \"#utility.yul\":747:764   */\n      add\n        /* \"#utility.yul\":743:770   */\n      slt\n        /* \"#utility.yul\":733:735   */\n      tag_207\n      jumpi\n        /* \"#utility.yul\":784:785   */\n      0x00\n        /* \"#utility.yul\":781:782   */\n      dup1\n        /* \"#utility.yul\":774:786   */\n      revert\n        /* \"#utility.yul\":733:735   */\n    tag_207:\n        /* \"#utility.yul\":824:830   */\n      dup2\n        /* \"#utility.yul\":811:831   */\n      calldataload\n        /* \"#utility.yul\":849:928   */\n      tag_208\n        /* \"#utility.yul\":924:927   */\n      dup5\n        /* \"#utility.yul\":916:922   */\n      dup3\n        /* \"#utility.yul\":909:913   */\n      0x20\n        /* \"#utility.yul\":901:907   */\n      dup7\n        /* \"#utility.yul\":897:914   */\n      add\n        /* \"#utility.yul\":849:928   */\n      tag_188\n      jump\t// in\n    tag_208:\n        /* \"#utility.yul\":840:928   */\n      swap2\n      pop\n        /* \"#utility.yul\":723:934   */\n      pop\n      swap3\n      swap2\n      pop\n      pop\n      jump\t// out\n        /* \"#utility.yul\":940:1079   */\n    tag_209:\n      0x00\n        /* \"#utility.yul\":1024:1030   */\n      dup2\n        /* \"#utility.yul\":1011:1031   */\n      calldataload\n        /* \"#utility.yul\":1002:1031   */\n      swap1\n      pop\n        /* \"#utility.yul\":1040:1073   */\n      tag_211\n        /* \"#utility.yul\":1067:1072   */\n      dup2\n        /* \"#utility.yul\":1040:1073   */\n      tag_212\n      jump\t// in\n    tag_211:\n        /* \"#utility.yul\":992:1079   */\n      swap3\n      swap2\n      pop\n      pop\n      jump\t// out\n        /* \"#utility.yul\":1085:1605   */\n    tag_38:\n      0x00\n      dup1\n        /* \"#utility.yul\":1220:1222   */\n      0x40\n        /* \"#utility.yul\":1208:1217   */\n      dup4\n        /* \"#utility.yul\":1199:1206   */\n      dup6\n        /* \"#utility.yul\":1195:1218   */\n      sub\n        /* \"#utility.yul\":1191:1223   */\n      slt\n        /* \"#utility.yul\":1188:1190   */\n      iszero\n      tag_214\n      jumpi\n        /* \"#utility.yul\":1236:1237   */\n      0x00\n        /* \"#utility.yul\":1233:1234   */\n      dup1\n        /* \"#utility.yul\":1226:1238   */\n      revert\n        /* \"#utility.yul\":1188:1190   */\n    tag_214:\n        /* \"#utility.yul\":1279:1280   */\n      0x00\n        /* \"#utility.yul\":1304:1357   */\n      tag_215\n        /* \"#utility.yul\":1349:1356   */\n      dup6\n        /* \"#utility.yul\":1340:1346   */\n      dup3\n        /* \"#utility.yul\":1329:1338   */\n      dup7\n        /* \"#utility.yul\":1325:1347   */\n      add\n        /* \"#utility.yul\":1304:1357   */\n      tag_197\n      jump\t// in\n    tag_215:\n        /* \"#utility.yul\":1294:1357   */\n      swap3\n      pop\n        /* \"#utility.yul\":1250:1367   */\n      pop\n        /* \"#utility.yul\":1434:1436   */\n      0x20\n        /* \"#utility.yul\":1423:1432   */\n      dup4\n        /* \"#utility.yul\":1419:1437   */\n      add\n        /* \"#utility.yul\":1406:1438   */\n      calldataload\n        /* \"#utility.yul\":1465:1483   */\n      0xffffffffffffffff\n        /* \"#utility.yul\":1457:1463   */\n      dup2\n        /* \"#utility.yul\":1454:1484   */\n      gt\n        /* \"#utility.yul\":1451:1453   */\n      iszero\n      tag_216\n      jumpi\n        /* \"#utility.yul\":1497:1498   */\n      0x00\n        /* \"#utility.yul\":1494:1495   */\n      dup1\n        /* \"#utility.yul\":1487:1499   */\n      revert\n        /* \"#utility.yul\":1451:1453   */\n    tag_216:\n        /* \"#utility.yul\":1525:1588   */\n      tag_217\n        /* \"#utility.yul\":1580:1587   */\n      dup6\n        /* \"#utility.yul\":1571:1577   */\n      dup3\n        /* \"#utility.yul\":1560:1569   */\n      dup7\n        /* \"#utility.yul\":1556:1578   */\n      add\n        /* \"#utility.yul\":1525:1588   */\n      tag_205\n      jump\t// in\n    tag_217:\n        /* \"#utility.yul\":1515:1588   */\n      swap2\n      pop\n        /* \"#utility.yul\":1377:1598   */\n      pop\n        /* \"#utility.yul\":1178:1605   */\n      swap3\n      pop\n      swap3\n      swap1\n      pop\n      jump\t// out\n        /* \"#utility.yul\":1611:1873   */\n    tag_16:\n      0x00\n        /* \"#utility.yul\":1719:1721   */\n      0x20\n        /* \"#utility.yul\":1707:1716   */\n      dup3\n        /* \"#utility.yul\":1698:1705   */\n      dup5\n        /* \"#utility.yul\":1694:1717   */\n      sub\n        /* \"#utility.yul\":1690:1722   */\n      slt\n        /* \"#utility.yul\":1687:1689   */\n      iszero\n      tag_219\n      jumpi\n        /* \"#utility.yul\":1735:1736   */\n      0x00\n        /* \"#utility.yul\":1732:1733   */\n      dup1\n        /* \"#utility.yul\":1725:1737   */\n      revert\n        /* \"#utility.yul\":1687:1689   */\n    tag_219:\n        /* \"#utility.yul\":1778:1779   */\n      0x00\n        /* \"#utility.yul\":1803:1856   */\n      tag_220\n        /* \"#utility.yul\":1848:1855   */\n      dup5\n        /* \"#utility.yul\":1839:1845   */\n      dup3\n        /* \"#utility.yul\":1828:1837   */\n      dup6\n        /* \"#utility.yul\":1824:1846   */\n      add\n        /* \"#utility.yul\":1803:1856   */\n      tag_201\n      jump\t// in\n    tag_220:\n        /* \"#utility.yul\":1793:1856   */\n      swap2\n      pop\n        /* \"#utility.yul\":1749:1866   */\n      pop\n        /* \"#utility.yul\":1677:1873   */\n      swap3\n      swap2\n      pop\n      pop\n      jump\t// out\n        /* \"#utility.yul\":1879:2254   */\n    tag_45:\n      0x00\n        /* \"#utility.yul\":1997:1999   */\n      0x20\n        /* \"#utility.yul\":1985:1994   */\n      dup3\n        /* \"#utility.yul\":1976:1983   */\n      dup5\n        /* \"#utility.yul\":1972:1995   */\n      sub\n        /* \"#utility.yul\":1968:2000   */\n      slt\n        /* \"#utility.yul\":1965:1967   */\n      iszero\n      tag_222\n      jumpi\n        /* \"#utility.yul\":2013:2014   */\n      0x00\n        /* \"#utility.yul\":2010:2011   */\n      dup1\n        /* \"#utility.yul\":2003:2015   */\n      revert\n        /* \"#utility.yul\":1965:1967   */\n    tag_222:\n        /* \"#utility.yul\":2084:2085   */\n      0x00\n        /* \"#utility.yul\":2073:2082   */\n      dup3\n        /* \"#utility.yul\":2069:2086   */\n      add\n        /* \"#utility.yul\":2056:2087   */\n      calldataload\n        /* \"#utility.yul\":2114:2132   */\n      0xffffffffffffffff\n        /* \"#utility.yul\":2106:2112   */\n      dup2\n        /* \"#utility.yul\":2103:2133   */\n      gt\n        /* \"#utility.yul\":2100:2102   */\n      iszero\n      tag_223\n      jumpi\n        /* \"#utility.yul\":2146:2147   */\n      0x00\n        /* \"#utility.yul\":2143:2144   */\n      dup1\n        /* \"#utility.yul\":2136:2148   */\n      revert\n        /* \"#utility.yul\":2100:2102   */\n    tag_223:\n        /* \"#utility.yul\":2174:2237   */\n      tag_224\n        /* \"#utility.yul\":2229:2236   */\n      dup5\n        /* \"#utility.yul\":2220:2226   */\n      dup3\n        /* \"#utility.yul\":2209:2218   */\n      dup6\n        /* \"#utility.yul\":2205:2227   */\n      add\n        /* \"#utility.yul\":2174:2237   */\n      tag_205\n      jump\t// in\n    tag_224:\n        /* \"#utility.yul\":2164:2237   */\n      swap2\n      pop\n        /* \"#utility.yul\":2027:2247   */\n      pop\n        /* \"#utility.yul\":1955:2254   */\n      swap3\n      swap2\n      pop\n      pop\n      jump\t// out\n        /* \"#utility.yul\":2260:2522   */\n    tag_20:\n      0x00\n        /* \"#utility.yul\":2368:2370   */\n      0x20\n        /* \"#utility.yul\":2356:2365   */\n      dup3\n        /* \"#utility.yul\":2347:2354   */\n      dup5\n        /* \"#utility.yul\":2343:2366   */\n      sub\n        /* \"#utility.yul\":2339:2371   */\n      slt\n        /* \"#utility.yul\":2336:2338   */\n      iszero\n      tag_226\n      jumpi\n        /* \"#utility.yul\":2384:2385   */\n      0x00\n        /* \"#utility.yul\":2381:2382   */\n      dup1\n        /* \"#utility.yul\":2374:2386   */\n      revert\n        /* \"#utility.yul\":2336:2338   */\n    tag_226:\n        /* \"#utility.yul\":2427:2428   */\n      0x00\n        /* \"#utility.yul\":2452:2505   */\n      tag_227\n        /* \"#utility.yul\":2497:2504   */\n      dup5\n        /* \"#utility.yul\":2488:2494   */\n      dup3\n        /* \"#utility.yul\":2477:2486   */\n      dup6\n        /* \"#utility.yul\":2473:2495   */\n      add\n        /* \"#utility.yul\":2452:2505   */\n      tag_209\n      jump\t// in\n    tag_227:\n        /* \"#utility.yul\":2442:2505   */\n      swap2\n      pop\n        /* \"#utility.yul\":2398:2515   */\n      pop\n        /* \"#utility.yul\":2326:2522   */\n      swap3\n      swap2\n      pop\n      pop\n      jump\t// out\n        /* \"#utility.yul\":2528:2776   */\n    tag_228:\n      0x00\n        /* \"#utility.yul\":2678:2770   */\n      tag_230\n        /* \"#utility.yul\":2766:2769   */\n      dup4\n        /* \"#utility.yul\":2758:2764   */\n      dup4\n        /* \"#utility.yul\":2678:2770   */\n      tag_231\n      jump\t// in\n    tag_230:\n        /* \"#utility.yul\":2664:2770   */\n      swap1\n      pop\n        /* \"#utility.yul\":2654:2776   */\n      swap3\n      swap2\n      pop\n      pop\n      jump\t// out\n        /* \"#utility.yul\":2782:2900   */\n    tag_232:\n        /* \"#utility.yul\":2869:2893   */\n      tag_234\n        /* \"#utility.yul\":2887:2892   */\n      dup2\n        /* \"#utility.yul\":2869:2893   */\n      tag_235\n      jump\t// in\n    tag_234:\n        /* \"#utility.yul\":2864:2867   */\n      dup3\n        /* \"#utility.yul\":2857:2894   */\n      mstore\n        /* \"#utility.yul\":2847:2900   */\n      pop\n      pop\n      jump\t// out\n        /* \"#utility.yul\":2964:4059   */\n    tag_236:\n      0x00\n        /* \"#utility.yul\":3158:3235   */\n      tag_238\n        /* \"#utility.yul\":3229:3234   */\n      dup3\n        /* \"#utility.yul\":3158:3235   */\n      tag_239\n      jump\t// in\n    tag_238:\n        /* \"#utility.yul\":3251:3360   */\n      tag_240\n        /* \"#utility.yul\":3353:3359   */\n      dup2\n        /* \"#utility.yul\":3348:3351   */\n      dup6\n        /* \"#utility.yul\":3251:3360   */\n      tag_241\n      jump\t// in\n    tag_240:\n        /* \"#utility.yul\":3244:3360   */\n      swap4\n      pop\n        /* \"#utility.yul\":3386:3389   */\n      dup4\n        /* \"#utility.yul\":3431:3435   */\n      0x20\n        /* \"#utility.yul\":3423:3429   */\n      dup3\n        /* \"#utility.yul\":3419:3436   */\n      mul\n        /* \"#utility.yul\":3414:3417   */\n      dup6\n        /* \"#utility.yul\":3410:3437   */\n      add\n        /* \"#utility.yul\":3461:3540   */\n      tag_242\n        /* \"#utility.yul\":3534:3539   */\n      dup6\n        /* \"#utility.yul\":3461:3540   */\n      tag_243\n      jump\t// in\n    tag_242:\n        /* \"#utility.yul\":3563:3570   */\n      dup1\n        /* \"#utility.yul\":3594:3595   */\n      0x00\n        /* \"#utility.yul\":3579:4014   */\n    tag_244:\n        /* \"#utility.yul\":3604:3610   */\n      dup6\n        /* \"#utility.yul\":3601:3602   */\n      dup2\n        /* \"#utility.yul\":3598:3611   */\n      lt\n        /* \"#utility.yul\":3579:4014   */\n      iszero\n      tag_246\n      jumpi\n        /* \"#utility.yul\":3675:3684   */\n      dup5\n        /* \"#utility.yul\":3669:3673   */\n      dup5\n        /* \"#utility.yul\":3665:3685   */\n      sub\n        /* \"#utility.yul\":3660:3663   */\n      dup10\n        /* \"#utility.yul\":3653:3686   */\n      mstore\n        /* \"#utility.yul\":3726:3732   */\n      dup2\n        /* \"#utility.yul\":3720:3733   */\n      mload\n        /* \"#utility.yul\":3754:3864   */\n      tag_247\n        /* \"#utility.yul\":3859:3863   */\n      dup6\n        /* \"#utility.yul\":3844:3857   */\n      dup3\n        /* \"#utility.yul\":3754:3864   */\n      tag_228\n      jump\t// in\n    tag_247:\n        /* \"#utility.yul\":3746:3864   */\n      swap5\n      pop\n        /* \"#utility.yul\":3887:3970   */\n      tag_248\n        /* \"#utility.yul\":3963:3969   */\n      dup4\n        /* \"#utility.yul\":3887:3970   */\n      tag_249\n      jump\t// in\n    tag_248:\n        /* \"#utility.yul\":3877:3970   */\n      swap3\n      pop\n        /* \"#utility.yul\":3999:4003   */\n      0x20\n        /* \"#utility.yul\":3994:3997   */\n      dup11\n        /* \"#utility.yul\":3990:4004   */\n      add\n        /* \"#utility.yul\":3983:4004   */\n      swap10\n      pop\n        /* \"#utility.yul\":3639:4014   */\n      pop\n        /* \"#utility.yul\":3626:3627   */\n      0x01\n        /* \"#utility.yul\":3623:3624   */\n      dup2\n        /* \"#utility.yul\":3619:3628   */\n      add\n        /* \"#utility.yul\":3614:3628   */\n      swap1\n      pop\n        /* \"#utility.yul\":3579:4014   */\n      jump(tag_244)\n    tag_246:\n        /* \"#utility.yul\":3583:3597   */\n      pop\n        /* \"#utility.yul\":4030:4034   */\n      dup3\n        /* \"#utility.yul\":4023:4034   */\n      swap8\n      pop\n        /* \"#utility.yul\":4050:4053   */\n      dup8\n        /* \"#utility.yul\":4043:4053   */\n      swap6\n      pop\n        /* \"#utility.yul\":3134:4059   */\n      pop\n      pop\n      pop\n      pop\n      pop\n      swap3\n      swap2\n      pop\n      pop\n      jump\t// out\n        /* \"#utility.yul\":4065:4173   */\n    tag_250:\n        /* \"#utility.yul\":4142:4166   */\n      tag_252\n        /* \"#utility.yul\":4160:4165   */\n      dup2\n        /* \"#utility.yul\":4142:4166   */\n      tag_253\n      jump\t// in\n    tag_252:\n        /* \"#utility.yul\":4137:4140   */\n      dup3\n        /* \"#utility.yul\":4130:4167   */\n      mstore\n        /* \"#utility.yul\":4120:4173   */\n      pop\n      pop\n      jump\t// out\n        /* \"#utility.yul\":4179:4297   */\n    tag_254:\n        /* \"#utility.yul\":4266:4290   */\n      tag_256\n        /* \"#utility.yul\":4284:4289   */\n      dup2\n        /* \"#utility.yul\":4266:4290   */\n      tag_253\n      jump\t// in\n    tag_256:\n        /* \"#utility.yul\":4261:4264   */\n      dup3\n        /* \"#utility.yul\":4254:4291   */\n      mstore\n        /* \"#utility.yul\":4244:4297   */\n      pop\n      pop\n      jump\t// out\n        /* \"#utility.yul\":4303:4647   */\n    tag_257:\n      0x00\n        /* \"#utility.yul\":4409:4448   */\n      tag_259\n        /* \"#utility.yul\":4442:4447   */\n      dup3\n        /* \"#utility.yul\":4409:4448   */\n      tag_260\n      jump\t// in\n    tag_259:\n        /* \"#utility.yul\":4464:4525   */\n      tag_261\n        /* \"#utility.yul\":4518:4524   */\n      dup2\n        /* \"#utility.yul\":4513:4516   */\n      dup6\n        /* \"#utility.yul\":4464:4525   */\n      tag_262\n      jump\t// in\n    tag_261:\n        /* \"#utility.yul\":4457:4525   */\n      swap4\n      pop\n        /* \"#utility.yul\":4534:4586   */\n      tag_263\n        /* \"#utility.yul\":4579:4585   */\n      dup2\n        /* \"#utility.yul\":4574:4577   */\n      dup6\n        /* \"#utility.yul\":4567:4571   */\n      0x20\n        /* \"#utility.yul\":4560:4565   */\n      dup7\n        /* \"#utility.yul\":4556:4572   */\n      add\n        /* \"#utility.yul\":4534:4586   */\n      tag_264\n      jump\t// in\n    tag_263:\n        /* \"#utility.yul\":4611:4640   */\n      tag_265\n        /* \"#utility.yul\":4633:4639   */\n      dup2\n        /* \"#utility.yul\":4611:4640   */\n      tag_266\n      jump\t// in\n    tag_265:\n        /* \"#utility.yul\":4606:4609   */\n      dup5\n        /* \"#utility.yul\":4602:4641   */\n      add\n        /* \"#utility.yul\":4595:4641   */\n      swap2\n      pop\n        /* \"#utility.yul\":4385:4647   */\n      pop\n      swap3\n      swap2\n      pop\n      pop\n      jump\t// out\n        /* \"#utility.yul\":4653:5017   */\n    tag_267:\n      0x00\n        /* \"#utility.yul\":4769:4808   */\n      tag_269\n        /* \"#utility.yul\":4802:4807   */\n      dup3\n        /* \"#utility.yul\":4769:4808   */\n      tag_260\n      jump\t// in\n    tag_269:\n        /* \"#utility.yul\":4824:4895   */\n      tag_270\n        /* \"#utility.yul\":4888:4894   */\n      dup2\n        /* \"#utility.yul\":4883:4886   */\n      dup6\n        /* \"#utility.yul\":4824:4895   */\n      tag_271\n      jump\t// in\n    tag_270:\n        /* \"#utility.yul\":4817:4895   */\n      swap4\n      pop\n        /* \"#utility.yul\":4904:4956   */\n      tag_272\n        /* \"#utility.yul\":4949:4955   */\n      dup2\n        /* \"#utility.yul\":4944:4947   */\n      dup6\n        /* \"#utility.yul\":4937:4941   */\n      0x20\n        /* \"#utility.yul\":4930:4935   */\n      dup7\n        /* \"#utility.yul\":4926:4942   */\n      add\n        /* \"#utility.yul\":4904:4956   */\n      tag_264\n      jump\t// in\n    tag_272:\n        /* \"#utility.yul\":4981:5010   */\n      tag_273\n        /* \"#utility.yul\":5003:5009   */\n      dup2\n        /* \"#utility.yul\":4981:5010   */\n      tag_266\n      jump\t// in\n    tag_273:\n        /* \"#utility.yul\":4976:4979   */\n      dup5\n        /* \"#utility.yul\":4972:5011   */\n      add\n        /* \"#utility.yul\":4965:5011   */\n      swap2\n      pop\n        /* \"#utility.yul\":4745:5017   */\n      pop\n      swap3\n      swap2\n      pop\n      pop\n      jump\t// out\n        /* \"#utility.yul\":5023:5348   */\n    tag_274:\n      0x00\n        /* \"#utility.yul\":5186:5253   */\n      tag_276\n        /* \"#utility.yul\":5250:5252   */\n      0x1b\n        /* \"#utility.yul\":5245:5248   */\n      dup4\n        /* \"#utility.yul\":5186:5253   */\n      tag_271\n      jump\t// in\n    tag_276:\n        /* \"#utility.yul\":5179:5253   */\n      swap2\n      pop\n        /* \"#utility.yul\":5283:5312   */\n      0x4e6f7420612076616c696420726570726573656e746174697665730000000000\n        /* \"#utility.yul\":5279:5280   */\n      0x00\n        /* \"#utility.yul\":5274:5277   */\n      dup4\n        /* \"#utility.yul\":5270:5281   */\n      add\n        /* \"#utility.yul\":5263:5313   */\n      mstore\n        /* \"#utility.yul\":5339:5341   */\n      0x20\n        /* \"#utility.yul\":5334:5337   */\n      dup3\n        /* \"#utility.yul\":5330:5342   */\n      add\n        /* \"#utility.yul\":5323:5342   */\n      swap1\n      pop\n        /* \"#utility.yul\":5169:5348   */\n      swap2\n      swap1\n      pop\n      jump\t// out\n        /* \"#utility.yul\":5354:5673   */\n    tag_277:\n      0x00\n        /* \"#utility.yul\":5517:5584   */\n      tag_279\n        /* \"#utility.yul\":5581:5583   */\n      0x15\n        /* \"#utility.yul\":5576:5579   */\n      dup4\n        /* \"#utility.yul\":5517:5584   */\n      tag_271\n      jump\t// in\n    tag_279:\n        /* \"#utility.yul\":5510:5584   */\n      swap2\n      pop\n        /* \"#utility.yul\":5614:5637   */\n      0x41646d696e69747261746f722066756e6374696f6e0000000000000000000000\n        /* \"#utility.yul\":5610:5611   */\n      0x00\n        /* \"#utility.yul\":5605:5608   */\n      dup4\n        /* \"#utility.yul\":5601:5612   */\n      add\n        /* \"#utility.yul\":5594:5638   */\n      mstore\n        /* \"#utility.yul\":5664:5666   */\n      0x20\n        /* \"#utility.yul\":5659:5662   */\n      dup3\n        /* \"#utility.yul\":5655:5667   */\n      add\n        /* \"#utility.yul\":5648:5667   */\n      swap1\n      pop\n        /* \"#utility.yul\":5500:5673   */\n      swap2\n      swap1\n      pop\n      jump\t// out\n        /* \"#utility.yul\":5679:5995   */\n    tag_280:\n      0x00\n        /* \"#utility.yul\":5842:5909   */\n      tag_282\n        /* \"#utility.yul\":5906:5908   */\n      0x12\n        /* \"#utility.yul\":5901:5904   */\n      dup4\n        /* \"#utility.yul\":5842:5909   */\n      tag_271\n      jump\t// in\n    tag_282:\n        /* \"#utility.yul\":5835:5909   */\n      swap2\n      pop\n        /* \"#utility.yul\":5939:5959   */\n      0x4e6f74206120546865566f746572206164640000000000000000000000000000\n        /* \"#utility.yul\":5935:5936   */\n      0x00\n        /* \"#utility.yul\":5930:5933   */\n      dup4\n        /* \"#utility.yul\":5926:5937   */\n      add\n        /* \"#utility.yul\":5919:5960   */\n      mstore\n        /* \"#utility.yul\":5986:5988   */\n      0x20\n        /* \"#utility.yul\":5981:5984   */\n      dup3\n        /* \"#utility.yul\":5977:5989   */\n      add\n        /* \"#utility.yul\":5970:5989   */\n      swap1\n      pop\n        /* \"#utility.yul\":5825:5995   */\n      swap2\n      swap1\n      pop\n      jump\t// out\n        /* \"#utility.yul\":6001:6324   */\n    tag_283:\n      0x00\n        /* \"#utility.yul\":6164:6231   */\n      tag_285\n        /* \"#utility.yul\":6228:6230   */\n      0x19\n        /* \"#utility.yul\":6223:6226   */\n      dup4\n        /* \"#utility.yul\":6164:6231   */\n      tag_271\n      jump\t// in\n    tag_285:\n        /* \"#utility.yul\":6157:6231   */\n      swap2\n      pop\n        /* \"#utility.yul\":6261:6288   */\n      0x4e6f742076616c696420726570726573656e7461746976657300000000000000\n        /* \"#utility.yul\":6257:6258   */\n      0x00\n        /* \"#utility.yul\":6252:6255   */\n      dup4\n        /* \"#utility.yul\":6248:6259   */\n      add\n        /* \"#utility.yul\":6241:6289   */\n      mstore\n        /* \"#utility.yul\":6315:6317   */\n      0x20\n        /* \"#utility.yul\":6310:6313   */\n      dup3\n        /* \"#utility.yul\":6306:6318   */\n      add\n        /* \"#utility.yul\":6299:6318   */\n      swap1\n      pop\n        /* \"#utility.yul\":6147:6324   */\n      swap2\n      swap1\n      pop\n      jump\t// out\n        /* \"#utility.yul\":6330:6652   */\n    tag_286:\n      0x00\n        /* \"#utility.yul\":6493:6560   */\n      tag_288\n        /* \"#utility.yul\":6557:6559   */\n      0x18\n        /* \"#utility.yul\":6552:6555   */\n      dup4\n        /* \"#utility.yul\":6493:6560   */\n      tag_271\n      jump\t// in\n    tag_288:\n        /* \"#utility.yul\":6486:6560   */\n      swap2\n      pop\n        /* \"#utility.yul\":6590:6616   */\n      0x54686543616e642068617320746f2062652066696c6c65640000000000000000\n        /* \"#utility.yul\":6586:6587   */\n      0x00\n        /* \"#utility.yul\":6581:6584   */\n      dup4\n        /* \"#utility.yul\":6577:6588   */\n      add\n        /* \"#utility.yul\":6570:6617   */\n      mstore\n        /* \"#utility.yul\":6643:6645   */\n      0x20\n        /* \"#utility.yul\":6638:6641   */\n      dup3\n        /* \"#utility.yul\":6634:6646   */\n      add\n        /* \"#utility.yul\":6627:6646   */\n      swap1\n      pop\n        /* \"#utility.yul\":6476:6652   */\n      swap2\n      swap1\n      pop\n      jump\t// out\n        /* \"#utility.yul\":6658:6970   */\n    tag_289:\n      0x00\n        /* \"#utility.yul\":6821:6888   */\n      tag_291\n        /* \"#utility.yul\":6885:6887   */\n      0x0e\n        /* \"#utility.yul\":6880:6883   */\n      dup4\n        /* \"#utility.yul\":6821:6888   */\n      tag_271\n      jump\t// in\n    tag_291:\n        /* \"#utility.yul\":6814:6888   */\n      swap2\n      pop\n        /* \"#utility.yul\":6918:6934   */\n      0x546865566f74657220766f746564000000000000000000000000000000000000\n        /* \"#utility.yul\":6914:6915   */\n      0x00\n        /* \"#utility.yul\":6909:6912   */\n      dup4\n        /* \"#utility.yul\":6905:6916   */\n      add\n        /* \"#utility.yul\":6898:6935   */\n      mstore\n        /* \"#utility.yul\":6961:6963   */\n      0x20\n        /* \"#utility.yul\":6956:6959   */\n      dup3\n        /* \"#utility.yul\":6952:6964   */\n      add\n        /* \"#utility.yul\":6945:6964   */\n      swap1\n      pop\n        /* \"#utility.yul\":6804:6970   */\n      swap2\n      swap1\n      pop\n      jump\t// out\n        /* \"#utility.yul\":6976:7292   */\n    tag_292:\n      0x00\n        /* \"#utility.yul\":7139:7206   */\n      tag_294\n        /* \"#utility.yul\":7203:7205   */\n      0x12\n        /* \"#utility.yul\":7198:7201   */\n      dup4\n        /* \"#utility.yul\":7139:7206   */\n      tag_271\n      jump\t// in\n    tag_294:\n        /* \"#utility.yul\":7132:7206   */\n      swap2\n      pop\n        /* \"#utility.yul\":7236:7256   */\n      0x546865566f746572732066756e6374696f6e0000000000000000000000000000\n        /* \"#utility.yul\":7232:7233   */\n      0x00\n        /* \"#utility.yul\":7227:7230   */\n      dup4\n        /* \"#utility.yul\":7223:7234   */\n      add\n        /* \"#utility.yul\":7216:7257   */\n      mstore\n        /* \"#utility.yul\":7283:7285   */\n      0x20\n        /* \"#utility.yul\":7278:7281   */\n      dup3\n        /* \"#utility.yul\":7274:7286   */\n      add\n        /* \"#utility.yul\":7267:7286   */\n      swap1\n      pop\n        /* \"#utility.yul\":7122:7292   */\n      swap2\n      swap1\n      pop\n      jump\t// out\n        /* \"#utility.yul\":7298:7625   */\n    tag_295:\n      0x00\n        /* \"#utility.yul\":7461:7528   */\n      tag_297\n        /* \"#utility.yul\":7525:7527   */\n      0x1d\n        /* \"#utility.yul\":7520:7523   */\n      dup4\n        /* \"#utility.yul\":7461:7528   */\n      tag_271\n      jump\t// in\n    tag_297:\n        /* \"#utility.yul\":7454:7528   */\n      swap2\n      pop\n        /* \"#utility.yul\":7558:7589   */\n      0x4e6f20726570726573656e746174697665737320696e206d656d6f7279000000\n        /* \"#utility.yul\":7554:7555   */\n      0x00\n        /* \"#utility.yul\":7549:7552   */\n      dup4\n        /* \"#utility.yul\":7545:7556   */\n      add\n        /* \"#utility.yul\":7538:7590   */\n      mstore\n        /* \"#utility.yul\":7616:7618   */\n      0x20\n        /* \"#utility.yul\":7611:7614   */\n      dup3\n        /* \"#utility.yul\":7607:7619   */\n      add\n        /* \"#utility.yul\":7600:7619   */\n      swap1\n      pop\n        /* \"#utility.yul\":7444:7625   */\n      swap2\n      swap1\n      pop\n      jump\t// out\n        /* \"#utility.yul\":7685:8452   */\n    tag_231:\n      0x00\n        /* \"#utility.yul\":7826:7830   */\n      0x60\n        /* \"#utility.yul\":7821:7824   */\n      dup4\n        /* \"#utility.yul\":7817:7831   */\n      add\n        /* \"#utility.yul\":7913:7917   */\n      0x00\n        /* \"#utility.yul\":7906:7911   */\n      dup4\n        /* \"#utility.yul\":7902:7918   */\n      add\n        /* \"#utility.yul\":7896:7919   */\n      mload\n        /* \"#utility.yul\":7966:7969   */\n      dup5\n        /* \"#utility.yul\":7960:7964   */\n      dup3\n        /* \"#utility.yul\":7956:7970   */\n      sub\n        /* \"#utility.yul\":7949:7953   */\n      0x00\n        /* \"#utility.yul\":7944:7947   */\n      dup7\n        /* \"#utility.yul\":7940:7954   */\n      add\n        /* \"#utility.yul\":7933:7971   */\n      mstore\n        /* \"#utility.yul\":7992:8065   */\n      tag_299\n        /* \"#utility.yul\":8060:8064   */\n      dup3\n        /* \"#utility.yul\":8046:8058   */\n      dup3\n        /* \"#utility.yul\":7992:8065   */\n      tag_257\n      jump\t// in\n    tag_299:\n        /* \"#utility.yul\":7984:8065   */\n      swap2\n      pop\n        /* \"#utility.yul\":7841:8076   */\n      pop\n        /* \"#utility.yul\":8159:8163   */\n      0x20\n        /* \"#utility.yul\":8152:8157   */\n      dup4\n        /* \"#utility.yul\":8148:8164   */\n      add\n        /* \"#utility.yul\":8142:8165   */\n      mload\n        /* \"#utility.yul\":8178:8241   */\n      tag_300\n        /* \"#utility.yul\":8235:8239   */\n      0x20\n        /* \"#utility.yul\":8230:8233   */\n      dup7\n        /* \"#utility.yul\":8226:8240   */\n      add\n        /* \"#utility.yul\":8212:8224   */\n      dup3\n        /* \"#utility.yul\":8178:8241   */\n      tag_301\n      jump\t// in\n    tag_300:\n        /* \"#utility.yul\":8086:8251   */\n      pop\n        /* \"#utility.yul\":8333:8337   */\n      0x40\n        /* \"#utility.yul\":8326:8331   */\n      dup4\n        /* \"#utility.yul\":8322:8338   */\n      add\n        /* \"#utility.yul\":8316:8339   */\n      mload\n        /* \"#utility.yul\":8352:8415   */\n      tag_302\n        /* \"#utility.yul\":8409:8413   */\n      0x40\n        /* \"#utility.yul\":8404:8407   */\n      dup7\n        /* \"#utility.yul\":8400:8414   */\n      add\n        /* \"#utility.yul\":8386:8398   */\n      dup3\n        /* \"#utility.yul\":8352:8415   */\n      tag_250\n      jump\t// in\n    tag_302:\n        /* \"#utility.yul\":8261:8425   */\n      pop\n        /* \"#utility.yul\":8442:8446   */\n      dup1\n        /* \"#utility.yul\":8435:8446   */\n      swap2\n      pop\n        /* \"#utility.yul\":7795:8452   */\n      pop\n      swap3\n      swap2\n      pop\n      pop\n      jump\t// out\n        /* \"#utility.yul\":8512:9289   */\n    tag_303:\n      0x00\n        /* \"#utility.yul\":8663:8667   */\n      0x60\n        /* \"#utility.yul\":8658:8661   */\n      dup4\n        /* \"#utility.yul\":8654:8668   */\n      add\n        /* \"#utility.yul\":8750:8754   */\n      0x00\n        /* \"#utility.yul\":8743:8748   */\n      dup4\n        /* \"#utility.yul\":8739:8755   */\n      add\n        /* \"#utility.yul\":8733:8756   */\n      mload\n        /* \"#utility.yul\":8803:8806   */\n      dup5\n        /* \"#utility.yul\":8797:8801   */\n      dup3\n        /* \"#utility.yul\":8793:8807   */\n      sub\n        /* \"#utility.yul\":8786:8790   */\n      0x00\n        /* \"#utility.yul\":8781:8784   */\n      dup7\n        /* \"#utility.yul\":8777:8791   */\n      add\n        /* \"#utility.yul\":8770:8808   */\n      mstore\n        /* \"#utility.yul\":8829:8902   */\n      tag_305\n        /* \"#utility.yul\":8897:8901   */\n      dup3\n        /* \"#utility.yul\":8883:8895   */\n      dup3\n        /* \"#utility.yul\":8829:8902   */\n      tag_257\n      jump\t// in\n    tag_305:\n        /* \"#utility.yul\":8821:8902   */\n      swap2\n      pop\n        /* \"#utility.yul\":8678:8913   */\n      pop\n        /* \"#utility.yul\":8996:9000   */\n      0x20\n        /* \"#utility.yul\":8989:8994   */\n      dup4\n        /* \"#utility.yul\":8985:9001   */\n      add\n        /* \"#utility.yul\":8979:9002   */\n      mload\n        /* \"#utility.yul\":9015:9078   */\n      tag_306\n        /* \"#utility.yul\":9072:9076   */\n      0x20\n        /* \"#utility.yul\":9067:9070   */\n      dup7\n        /* \"#utility.yul\":9063:9077   */\n      add\n        /* \"#utility.yul\":9049:9061   */\n      dup3\n        /* \"#utility.yul\":9015:9078   */\n      tag_301\n      jump\t// in\n    tag_306:\n        /* \"#utility.yul\":8923:9088   */\n      pop\n        /* \"#utility.yul\":9170:9174   */\n      0x40\n        /* \"#utility.yul\":9163:9168   */\n      dup4\n        /* \"#utility.yul\":9159:9175   */\n      add\n        /* \"#utility.yul\":9153:9176   */\n      mload\n        /* \"#utility.yul\":9189:9252   */\n      tag_307\n        /* \"#utility.yul\":9246:9250   */\n      0x40\n        /* \"#utility.yul\":9241:9244   */\n      dup7\n        /* \"#utility.yul\":9237:9251   */\n      add\n        /* \"#utility.yul\":9223:9235   */\n      dup3\n        /* \"#utility.yul\":9189:9252   */\n      tag_250\n      jump\t// in\n    tag_307:\n        /* \"#utility.yul\":9098:9262   */\n      pop\n        /* \"#utility.yul\":9279:9283   */\n      dup1\n        /* \"#utility.yul\":9272:9283   */\n      swap2\n      pop\n        /* \"#utility.yul\":8632:9289   */\n      pop\n      swap3\n      swap2\n      pop\n      pop\n      jump\t// out\n        /* \"#utility.yul\":9295:9403   */\n    tag_301:\n        /* \"#utility.yul\":9372:9396   */\n      tag_309\n        /* \"#utility.yul\":9390:9395   */\n      dup2\n        /* \"#utility.yul\":9372:9396   */\n      tag_310\n      jump\t// in\n    tag_309:\n        /* \"#utility.yul\":9367:9370   */\n      dup3\n        /* \"#utility.yul\":9360:9397   */\n      mstore\n        /* \"#utility.yul\":9350:9403   */\n      pop\n      pop\n      jump\t// out\n        /* \"#utility.yul\":9409:9527   */\n    tag_311:\n        /* \"#utility.yul\":9496:9520   */\n      tag_313\n        /* \"#utility.yul\":9514:9519   */\n      dup2\n        /* \"#utility.yul\":9496:9520   */\n      tag_310\n      jump\t// in\n    tag_313:\n        /* \"#utility.yul\":9491:9494   */\n      dup3\n        /* \"#utility.yul\":9484:9521   */\n      mstore\n        /* \"#utility.yul\":9474:9527   */\n      pop\n      pop\n      jump\t// out\n        /* \"#utility.yul\":9533:9755   */\n    tag_54:\n      0x00\n        /* \"#utility.yul\":9664:9666   */\n      0x20\n        /* \"#utility.yul\":9653:9662   */\n      dup3\n        /* \"#utility.yul\":9649:9667   */\n      add\n        /* \"#utility.yul\":9641:9667   */\n      swap1\n      pop\n        /* \"#utility.yul\":9677:9748   */\n      tag_315\n        /* \"#utility.yul\":9745:9746   */\n      0x00\n        /* \"#utility.yul\":9734:9743   */\n      dup4\n        /* \"#utility.yul\":9730:9747   */\n      add\n        /* \"#utility.yul\":9721:9727   */\n      dup5\n        /* \"#utility.yul\":9677:9748   */\n      tag_232\n      jump\t// in\n    tag_315:\n        /* \"#utility.yul\":9631:9755   */\n      swap3\n      swap2\n      pop\n      pop\n      jump\t// out\n        /* \"#utility.yul\":9761:10226   */\n    tag_35:\n      0x00\n        /* \"#utility.yul\":9988:9990   */\n      0x20\n        /* \"#utility.yul\":9977:9986   */\n      dup3\n        /* \"#utility.yul\":9973:9991   */\n      add\n        /* \"#utility.yul\":9965:9991   */\n      swap1\n      pop\n        /* \"#utility.yul\":10037:10046   */\n      dup2\n        /* \"#utility.yul\":10031:10035   */\n      dup2\n        /* \"#utility.yul\":10027:10047   */\n      sub\n        /* \"#utility.yul\":10023:10024   */\n      0x00\n        /* \"#utility.yul\":10012:10021   */\n      dup4\n        /* \"#utility.yul\":10008:10025   */\n      add\n        /* \"#utility.yul\":10001:10048   */\n      mstore\n        /* \"#utility.yul\":10065:10219   */\n      tag_317\n        /* \"#utility.yul\":10214:10218   */\n      dup2\n        /* \"#utility.yul\":10205:10211   */\n      dup5\n        /* \"#utility.yul\":10065:10219   */\n      tag_236\n      jump\t// in\n    tag_317:\n        /* \"#utility.yul\":10057:10219   */\n      swap1\n      pop\n        /* \"#utility.yul\":9955:10226   */\n      swap3\n      swap2\n      pop\n      pop\n      jump\t// out\n        /* \"#utility.yul\":10232:10765   */\n    tag_23:\n      0x00\n        /* \"#utility.yul\":10439:10441   */\n      0x60\n        /* \"#utility.yul\":10428:10437   */\n      dup3\n        /* \"#utility.yul\":10424:10442   */\n      add\n        /* \"#utility.yul\":10416:10442   */\n      swap1\n      pop\n        /* \"#utility.yul\":10488:10497   */\n      dup2\n        /* \"#utility.yul\":10482:10486   */\n      dup2\n        /* \"#utility.yul\":10478:10498   */\n      sub\n        /* \"#utility.yul\":10474:10475   */\n      0x00\n        /* \"#utility.yul\":10463:10472   */\n      dup4\n        /* \"#utility.yul\":10459:10476   */\n      add\n        /* \"#utility.yul\":10452:10499   */\n      mstore\n        /* \"#utility.yul\":10516:10594   */\n      tag_319\n        /* \"#utility.yul\":10589:10593   */\n      dup2\n        /* \"#utility.yul\":10580:10586   */\n      dup7\n        /* \"#utility.yul\":10516:10594   */\n      tag_267\n      jump\t// in\n    tag_319:\n        /* \"#utility.yul\":10508:10594   */\n      swap1\n      pop\n        /* \"#utility.yul\":10604:10676   */\n      tag_320\n        /* \"#utility.yul\":10672:10674   */\n      0x20\n        /* \"#utility.yul\":10661:10670   */\n      dup4\n        /* \"#utility.yul\":10657:10675   */\n      add\n        /* \"#utility.yul\":10648:10654   */\n      dup6\n        /* \"#utility.yul\":10604:10676   */\n      tag_311\n      jump\t// in\n    tag_320:\n        /* \"#utility.yul\":10686:10758   */\n      tag_321\n        /* \"#utility.yul\":10754:10756   */\n      0x40\n        /* \"#utility.yul\":10743:10752   */\n      dup4\n        /* \"#utility.yul\":10739:10757   */\n      add\n        /* \"#utility.yul\":10730:10736   */\n      dup5\n        /* \"#utility.yul\":10686:10758   */\n      tag_254\n      jump\t// in\n    tag_321:\n        /* \"#utility.yul\":10406:10765   */\n      swap5\n      swap4\n      pop\n      pop\n      pop\n      pop\n      jump\t// out\n        /* \"#utility.yul\":10771:11190   */\n    tag_66:\n      0x00\n        /* \"#utility.yul\":10975:10977   */\n      0x20\n        /* \"#utility.yul\":10964:10973   */\n      dup3\n        /* \"#utility.yul\":10960:10978   */\n      add\n        /* \"#utility.yul\":10952:10978   */\n      swap1\n      pop\n        /* \"#utility.yul\":11024:11033   */\n      dup2\n        /* \"#utility.yul\":11018:11022   */\n      dup2\n        /* \"#utility.yul\":11014:11034   */\n      sub\n        /* \"#utility.yul\":11010:11011   */\n      0x00\n        /* \"#utility.yul\":10999:11008   */\n      dup4\n        /* \"#utility.yul\":10995:11012   */\n      add\n        /* \"#utility.yul\":10988:11035   */\n      mstore\n        /* \"#utility.yul\":11052:11183   */\n      tag_323\n        /* \"#utility.yul\":11178:11182   */\n      dup2\n        /* \"#utility.yul\":11052:11183   */\n      tag_274\n      jump\t// in\n    tag_323:\n        /* \"#utility.yul\":11044:11183   */\n      swap1\n      pop\n        /* \"#utility.yul\":10942:11190   */\n      swap2\n      swap1\n      pop\n      jump\t// out\n        /* \"#utility.yul\":11196:11615   */\n    tag_119:\n      0x00\n        /* \"#utility.yul\":11400:11402   */\n      0x20\n        /* \"#utility.yul\":11389:11398   */\n      dup3\n        /* \"#utility.yul\":11385:11403   */\n      add\n        /* \"#utility.yul\":11377:11403   */\n      swap1\n      pop\n        /* \"#utility.yul\":11449:11458   */\n      dup2\n        /* \"#utility.yul\":11443:11447   */\n      dup2\n        /* \"#utility.yul\":11439:11459   */\n      sub\n        /* \"#utility.yul\":11435:11436   */\n      0x00\n        /* \"#utility.yul\":11424:11433   */\n      dup4\n        /* \"#utility.yul\":11420:11437   */\n      add\n        /* \"#utility.yul\":11413:11460   */\n      mstore\n        /* \"#utility.yul\":11477:11608   */\n      tag_325\n        /* \"#utility.yul\":11603:11607   */\n      dup2\n        /* \"#utility.yul\":11477:11608   */\n      tag_277\n      jump\t// in\n    tag_325:\n        /* \"#utility.yul\":11469:11608   */\n      swap1\n      pop\n        /* \"#utility.yul\":11367:11615   */\n      swap2\n      swap1\n      pop\n      jump\t// out\n        /* \"#utility.yul\":11621:12040   */\n    tag_122:\n      0x00\n        /* \"#utility.yul\":11825:11827   */\n      0x20\n        /* \"#utility.yul\":11814:11823   */\n      dup3\n        /* \"#utility.yul\":11810:11828   */\n      add\n        /* \"#utility.yul\":11802:11828   */\n      swap1\n      pop\n        /* \"#utility.yul\":11874:11883   */\n      dup2\n        /* \"#utility.yul\":11868:11872   */\n      dup2\n        /* \"#utility.yul\":11864:11884   */\n      sub\n        /* \"#utility.yul\":11860:11861   */\n      0x00\n        /* \"#utility.yul\":11849:11858   */\n      dup4\n        /* \"#utility.yul\":11845:11862   */\n      add\n        /* \"#utility.yul\":11838:11885   */\n      mstore\n        /* \"#utility.yul\":11902:12033   */\n      tag_327\n        /* \"#utility.yul\":12028:12032   */\n      dup2\n        /* \"#utility.yul\":11902:12033   */\n      tag_280\n      jump\t// in\n    tag_327:\n        /* \"#utility.yul\":11894:12033   */\n      swap1\n      pop\n        /* \"#utility.yul\":11792:12040   */\n      swap2\n      swap1\n      pop\n      jump\t// out\n        /* \"#utility.yul\":12046:12465   */\n    tag_141:\n      0x00\n        /* \"#utility.yul\":12250:12252   */\n      0x20\n        /* \"#utility.yul\":12239:12248   */\n      dup3\n        /* \"#utility.yul\":12235:12253   */\n      add\n        /* \"#utility.yul\":12227:12253   */\n      swap1\n      pop\n        /* \"#utility.yul\":12299:12308   */\n      dup2\n        /* \"#utility.yul\":12293:12297   */\n      dup2\n        /* \"#utility.yul\":12289:12309   */\n      sub\n        /* \"#utility.yul\":12285:12286   */\n      0x00\n        /* \"#utility.yul\":12274:12283   */\n      dup4\n        /* \"#utility.yul\":12270:12287   */\n      add\n        /* \"#utility.yul\":12263:12310   */\n      mstore\n        /* \"#utility.yul\":12327:12458   */\n      tag_329\n        /* \"#utility.yul\":12453:12457   */\n      dup2\n        /* \"#utility.yul\":12327:12458   */\n      tag_283\n      jump\t// in\n    tag_329:\n        /* \"#utility.yul\":12319:12458   */\n      swap1\n      pop\n        /* \"#utility.yul\":12217:12465   */\n      swap2\n      swap1\n      pop\n      jump\t// out\n        /* \"#utility.yul\":12471:12890   */\n    tag_134:\n      0x00\n        /* \"#utility.yul\":12675:12677   */\n      0x20\n        /* \"#utility.yul\":12664:12673   */\n      dup3\n        /* \"#utility.yul\":12660:12678   */\n      add\n        /* \"#utility.yul\":12652:12678   */\n      swap1\n      pop\n        /* \"#utility.yul\":12724:12733   */\n      dup2\n        /* \"#utility.yul\":12718:12722   */\n      dup2\n        /* \"#utility.yul\":12714:12734   */\n      sub\n        /* \"#utility.yul\":12710:12711   */\n      0x00\n        /* \"#utility.yul\":12699:12708   */\n      dup4\n        /* \"#utility.yul\":12695:12712   */\n      add\n        /* \"#utility.yul\":12688:12735   */\n      mstore\n        /* \"#utility.yul\":12752:12883   */\n      tag_331\n        /* \"#utility.yul\":12878:12882   */\n      dup2\n        /* \"#utility.yul\":12752:12883   */\n      tag_286\n      jump\t// in\n    tag_331:\n        /* \"#utility.yul\":12744:12883   */\n      swap1\n      pop\n        /* \"#utility.yul\":12642:12890   */\n      swap2\n      swap1\n      pop\n      jump\t// out\n        /* \"#utility.yul\":12896:13315   */\n    tag_58:\n      0x00\n        /* \"#utility.yul\":13100:13102   */\n      0x20\n        /* \"#utility.yul\":13089:13098   */\n      dup3\n        /* \"#utility.yul\":13085:13103   */\n      add\n        /* \"#utility.yul\":13077:13103   */\n      swap1\n      pop\n        /* \"#utility.yul\":13149:13158   */\n      dup2\n        /* \"#utility.yul\":13143:13147   */\n      dup2\n        /* \"#utility.yul\":13139:13159   */\n      sub\n        /* \"#utility.yul\":13135:13136   */\n      0x00\n        /* \"#utility.yul\":13124:13133   */\n      dup4\n        /* \"#utility.yul\":13120:13137   */\n      add\n        /* \"#utility.yul\":13113:13160   */\n      mstore\n        /* \"#utility.yul\":13177:13308   */\n      tag_333\n        /* \"#utility.yul\":13303:13307   */\n      dup2\n        /* \"#utility.yul\":13177:13308   */\n      tag_289\n      jump\t// in\n    tag_333:\n        /* \"#utility.yul\":13169:13308   */\n      swap1\n      pop\n        /* \"#utility.yul\":13067:13315   */\n      swap2\n      swap1\n      pop\n      jump\t// out\n        /* \"#utility.yul\":13321:13740   */\n    tag_61:\n      0x00\n        /* \"#utility.yul\":13525:13527   */\n      0x20\n        /* \"#utility.yul\":13514:13523   */\n      dup3\n        /* \"#utility.yul\":13510:13528   */\n      add\n        /* \"#utility.yul\":13502:13528   */\n      swap1\n      pop\n        /* \"#utility.yul\":13574:13583   */\n      dup2\n        /* \"#utility.yul\":13568:13572   */\n      dup2\n        /* \"#utility.yul\":13564:13584   */\n      sub\n        /* \"#utility.yul\":13560:13561   */\n      0x00\n        /* \"#utility.yul\":13549:13558   */\n      dup4\n        /* \"#utility.yul\":13545:13562   */\n      add\n        /* \"#utility.yul\":13538:13585   */\n      mstore\n        /* \"#utility.yul\":13602:13733   */\n      tag_335\n        /* \"#utility.yul\":13728:13732   */\n      dup2\n        /* \"#utility.yul\":13602:13733   */\n      tag_292\n      jump\t// in\n    tag_335:\n        /* \"#utility.yul\":13594:13733   */\n      swap1\n      pop\n        /* \"#utility.yul\":13492:13740   */\n      swap2\n      swap1\n      pop\n      jump\t// out\n        /* \"#utility.yul\":13746:14165   */\n    tag_85:\n      0x00\n        /* \"#utility.yul\":13950:13952   */\n      0x20\n        /* \"#utility.yul\":13939:13948   */\n      dup3\n        /* \"#utility.yul\":13935:13953   */\n      add\n        /* \"#utility.yul\":13927:13953   */\n      swap1\n      pop\n        /* \"#utility.yul\":13999:14008   */\n      dup2\n        /* \"#utility.yul\":13993:13997   */\n      dup2\n        /* \"#utility.yul\":13989:14009   */\n      sub\n        /* \"#utility.yul\":13985:13986   */\n      0x00\n        /* \"#utility.yul\":13974:13983   */\n      dup4\n        /* \"#utility.yul\":13970:13987   */\n      add\n        /* \"#utility.yul\":13963:14010   */\n      mstore\n        /* \"#utility.yul\":14027:14158   */\n      tag_337\n        /* \"#utility.yul\":14153:14157   */\n      dup2\n        /* \"#utility.yul\":14027:14158   */\n      tag_295\n      jump\t// in\n    tag_337:\n        /* \"#utility.yul\":14019:14158   */\n      swap1\n      pop\n        /* \"#utility.yul\":13917:14165   */\n      swap2\n      swap1\n      pop\n      jump\t// out\n        /* \"#utility.yul\":14171:14536   */\n    tag_31:\n      0x00\n        /* \"#utility.yul\":14348:14350   */\n      0x20\n        /* \"#utility.yul\":14337:14346   */\n      dup3\n        /* \"#utility.yul\":14333:14351   */\n      add\n        /* \"#utility.yul\":14325:14351   */\n      swap1\n      pop\n        /* \"#utility.yul\":14397:14406   */\n      dup2\n        /* \"#utility.yul\":14391:14395   */\n      dup2\n        /* \"#utility.yul\":14387:14407   */\n      sub\n        /* \"#utility.yul\":14383:14384   */\n      0x00\n        /* \"#utility.yul\":14372:14381   */\n      dup4\n        /* \"#utility.yul\":14368:14385   */\n      add\n        /* \"#utility.yul\":14361:14408   */\n      mstore\n        /* \"#utility.yul\":14425:14529   */\n      tag_339\n        /* \"#utility.yul\":14524:14528   */\n      dup2\n        /* \"#utility.yul\":14515:14521   */\n      dup5\n        /* \"#utility.yul\":14425:14529   */\n      tag_303\n      jump\t// in\n    tag_339:\n        /* \"#utility.yul\":14417:14529   */\n      swap1\n      pop\n        /* \"#utility.yul\":14315:14536   */\n      swap3\n      swap2\n      pop\n      pop\n      jump\t// out\n        /* \"#utility.yul\":14542:14764   */\n    tag_27:\n      0x00\n        /* \"#utility.yul\":14673:14675   */\n      0x20\n        /* \"#utility.yul\":14662:14671   */\n      dup3\n        /* \"#utility.yul\":14658:14676   */\n      add\n        /* \"#utility.yul\":14650:14676   */\n      swap1\n      pop\n        /* \"#utility.yul\":14686:14757   */\n      tag_341\n        /* \"#utility.yul\":14754:14755   */\n      0x00\n        /* \"#utility.yul\":14743:14752   */\n      dup4\n        /* \"#utility.yul\":14739:14756   */\n      add\n        /* \"#utility.yul\":14730:14736   */\n      dup5\n        /* \"#utility.yul\":14686:14757   */\n      tag_311\n      jump\t// in\n    tag_341:\n        /* \"#utility.yul\":14640:14764   */\n      swap3\n      swap2\n      pop\n      pop\n      jump\t// out\n        /* \"#utility.yul\":14770:15053   */\n    tag_193:\n      0x00\n        /* \"#utility.yul\":14836:14838   */\n      0x40\n        /* \"#utility.yul\":14830:14839   */\n      mload\n        /* \"#utility.yul\":14820:14839   */\n      swap1\n      pop\n        /* \"#utility.yul\":14878:14882   */\n      dup2\n        /* \"#utility.yul\":14870:14876   */\n      dup2\n        /* \"#utility.yul\":14866:14883   */\n      add\n        /* \"#utility.yul\":14985:14991   */\n      dup2\n        /* \"#utility.yul\":14973:14983   */\n      dup2\n        /* \"#utility.yul\":14970:14992   */\n      lt\n        /* \"#utility.yul\":14949:14967   */\n      0xffffffffffffffff\n        /* \"#utility.yul\":14937:14947   */\n      dup3\n        /* \"#utility.yul\":14934:14968   */\n      gt\n        /* \"#utility.yul\":14931:14993   */\n      or\n        /* \"#utility.yul\":14928:14930   */\n      iszero\n      tag_343\n      jumpi\n        /* \"#utility.yul\":14996:15014   */\n      tag_344\n      tag_345\n      jump\t// in\n    tag_344:\n        /* \"#utility.yul\":14928:14930   */\n    tag_343:\n        /* \"#utility.yul\":15036:15046   */\n      dup1\n        /* \"#utility.yul\":15032:15034   */\n      0x40\n        /* \"#utility.yul\":15025:15047   */\n      mstore\n        /* \"#utility.yul\":14810:15053   */\n      pop\n      swap2\n      swap1\n      pop\n      jump\t// out\n        /* \"#utility.yul\":15059:15391   */\n    tag_192:\n      0x00\n        /* \"#utility.yul\":15211:15229   */\n      0xffffffffffffffff\n        /* \"#utility.yul\":15203:15209   */\n      dup3\n        /* \"#utility.yul\":15200:15230   */\n      gt\n        /* \"#utility.yul\":15197:15199   */\n      iszero\n      tag_347\n      jumpi\n        /* \"#utility.yul\":15233:15251   */\n      tag_348\n      tag_345\n      jump\t// in\n    tag_348:\n        /* \"#utility.yul\":15197:15199   */\n    tag_347:\n        /* \"#utility.yul\":15318:15322   */\n      0x1f\n        /* \"#utility.yul\":15314:15323   */\n      not\n        /* \"#utility.yul\":15307:15311   */\n      0x1f\n        /* \"#utility.yul\":15299:15305   */\n      dup4\n        /* \"#utility.yul\":15295:15312   */\n      add\n        /* \"#utility.yul\":15291:15324   */\n      and\n        /* \"#utility.yul\":15283:15324   */\n      swap1\n      pop\n        /* \"#utility.yul\":15379:15383   */\n      0x20\n        /* \"#utility.yul\":15373:15377   */\n      dup2\n        /* \"#utility.yul\":15369:15384   */\n      add\n        /* \"#utility.yul\":15361:15384   */\n      swap1\n      pop\n        /* \"#utility.yul\":15126:15391   */\n      swap2\n      swap1\n      pop\n      jump\t// out\n        /* \"#utility.yul\":15397:15552   */\n    tag_243:\n      0x00\n        /* \"#utility.yul\":15510:15513   */\n      dup2\n        /* \"#utility.yul\":15502:15513   */\n      swap1\n      pop\n        /* \"#utility.yul\":15540:15544   */\n      0x20\n        /* \"#utility.yul\":15535:15538   */\n      dup3\n        /* \"#utility.yul\":15531:15545   */\n      add\n        /* \"#utility.yul\":15523:15545   */\n      swap1\n      pop\n        /* \"#utility.yul\":15492:15552   */\n      swap2\n      swap1\n      pop\n      jump\t// out\n        /* \"#utility.yul\":15558:15695   */\n    tag_239:\n      0x00\n        /* \"#utility.yul\":15682:15687   */\n      dup2\n        /* \"#utility.yul\":15676:15688   */\n      mload\n        /* \"#utility.yul\":15666:15688   */\n      swap1\n      pop\n        /* \"#utility.yul\":15655:15695   */\n      swap2\n      swap1\n      pop\n      jump\t// out\n        /* \"#utility.yul\":15701:15800   */\n    tag_260:\n      0x00\n        /* \"#utility.yul\":15787:15792   */\n      dup2\n        /* \"#utility.yul\":15781:15793   */\n      mload\n        /* \"#utility.yul\":15771:15793   */\n      swap1\n      pop\n        /* \"#utility.yul\":15760:15800   */\n      swap2\n      swap1\n      pop\n      jump\t// out\n        /* \"#utility.yul\":15806:15942   */\n    tag_249:\n      0x00\n        /* \"#utility.yul\":15931:15935   */\n      0x20\n        /* \"#utility.yul\":15926:15929   */\n      dup3\n        /* \"#utility.yul\":15922:15936   */\n      add\n        /* \"#utility.yul\":15914:15936   */\n      swap1\n      pop\n        /* \"#utility.yul\":15904:15942   */\n      swap2\n      swap1\n      pop\n      jump\t// out\n        /* \"#utility.yul\":15948:16155   */\n    tag_241:\n      0x00\n        /* \"#utility.yul\":16104:16110   */\n      dup3\n        /* \"#utility.yul\":16099:16102   */\n      dup3\n        /* \"#utility.yul\":16092:16111   */\n      mstore\n        /* \"#utility.yul\":16144:16148   */\n      0x20\n        /* \"#utility.yul\":16139:16142   */\n      dup3\n        /* \"#utility.yul\":16135:16149   */\n      add\n        /* \"#utility.yul\":16120:16149   */\n      swap1\n      pop\n        /* \"#utility.yul\":16082:16155   */\n      swap3\n      swap2\n      pop\n      pop\n      jump\t// out\n        /* \"#utility.yul\":16161:16320   */\n    tag_262:\n      0x00\n        /* \"#utility.yul\":16269:16275   */\n      dup3\n        /* \"#utility.yul\":16264:16267   */\n      dup3\n        /* \"#utility.yul\":16257:16276   */\n      mstore\n        /* \"#utility.yul\":16309:16313   */\n      0x20\n        /* \"#utility.yul\":16304:16307   */\n      dup3\n        /* \"#utility.yul\":16300:16314   */\n      add\n        /* \"#utility.yul\":16285:16314   */\n      swap1\n      pop\n        /* \"#utility.yul\":16247:16320   */\n      swap3\n      swap2\n      pop\n      pop\n      jump\t// out\n        /* \"#utility.yul\":16326:16495   */\n    tag_271:\n      0x00\n        /* \"#utility.yul\":16444:16450   */\n      dup3\n        /* \"#utility.yul\":16439:16442   */\n      dup3\n        /* \"#utility.yul\":16432:16451   */\n      mstore\n        /* \"#utility.yul\":16484:16488   */\n      0x20\n        /* \"#utility.yul\":16479:16482   */\n      dup3\n        /* \"#utility.yul\":16475:16489   */\n      add\n        /* \"#utility.yul\":16460:16489   */\n      swap1\n      pop\n        /* \"#utility.yul\":16422:16495   */\n      swap3\n      swap2\n      pop\n      pop\n      jump\t// out\n        /* \"#utility.yul\":16501:16597   */\n    tag_235:\n      0x00\n        /* \"#utility.yul\":16567:16591   */\n      tag_357\n        /* \"#utility.yul\":16585:16590   */\n      dup3\n        /* \"#utility.yul\":16567:16591   */\n      tag_358\n      jump\t// in\n    tag_357:\n        /* \"#utility.yul\":16556:16591   */\n      swap1\n      pop\n        /* \"#utility.yul\":16546:16597   */\n      swap2\n      swap1\n      pop\n      jump\t// out\n        /* \"#utility.yul\":16603:16680   */\n    tag_253:\n      0x00\n        /* \"#utility.yul\":16669:16674   */\n      dup2\n        /* \"#utility.yul\":16658:16674   */\n      swap1\n      pop\n        /* \"#utility.yul\":16648:16680   */\n      swap2\n      swap1\n      pop\n      jump\t// out\n        /* \"#utility.yul\":16686:16812   */\n    tag_358:\n      0x00\n        /* \"#utility.yul\":16763:16805   */\n      0xffffffffffffffffffffffffffffffffffffffff\n        /* \"#utility.yul\":16756:16761   */\n      dup3\n        /* \"#utility.yul\":16752:16806   */\n      and\n        /* \"#utility.yul\":16741:16806   */\n      swap1\n      pop\n        /* \"#utility.yul\":16731:16812   */\n      swap2\n      swap1\n      pop\n      jump\t// out\n        /* \"#utility.yul\":16818:16895   */\n    tag_310:\n      0x00\n        /* \"#utility.yul\":16884:16889   */\n      dup2\n        /* \"#utility.yul\":16873:16889   */\n      swap1\n      pop\n        /* \"#utility.yul\":16863:16895   */\n      swap2\n      swap1\n      pop\n      jump\t// out\n        /* \"#utility.yul\":16901:17055   */\n    tag_196:\n        /* \"#utility.yul\":16985:16991   */\n      dup3\n        /* \"#utility.yul\":16980:16983   */\n      dup2\n        /* \"#utility.yul\":16975:16978   */\n      dup4\n        /* \"#utility.yul\":16962:16992   */\n      calldatacopy\n        /* \"#utility.yul\":17047:17048   */\n      0x00\n        /* \"#utility.yul\":17038:17044   */\n      dup4\n        /* \"#utility.yul\":17033:17036   */\n      dup4\n        /* \"#utility.yul\":17029:17045   */\n      add\n        /* \"#utility.yul\":17022:17049   */\n      mstore\n        /* \"#utility.yul\":16952:17055   */\n      pop\n      pop\n      pop\n      jump\t// out\n        /* \"#utility.yul\":17061:17368   */\n    tag_264:\n        /* \"#utility.yul\":17129:17130   */\n      0x00\n        /* \"#utility.yul\":17139:17252   */\n    tag_364:\n        /* \"#utility.yul\":17153:17159   */\n      dup4\n        /* \"#utility.yul\":17150:17151   */\n      dup2\n        /* \"#utility.yul\":17147:17160   */\n      lt\n        /* \"#utility.yul\":17139:17252   */\n      iszero\n      tag_366\n      jumpi\n        /* \"#utility.yul\":17238:17239   */\n      dup1\n        /* \"#utility.yul\":17233:17236   */\n      dup3\n        /* \"#utility.yul\":17229:17240   */\n      add\n        /* \"#utility.yul\":17223:17241   */\n      mload\n        /* \"#utility.yul\":17219:17220   */\n      dup2\n        /* \"#utility.yul\":17214:17217   */\n      dup5\n        /* \"#utility.yul\":17210:17221   */\n      add\n        /* \"#utility.yul\":17203:17242   */\n      mstore\n        /* \"#utility.yul\":17175:17177   */\n      0x20\n        /* \"#utility.yul\":17172:17173   */\n      dup2\n        /* \"#utility.yul\":17168:17178   */\n      add\n        /* \"#utility.yul\":17163:17178   */\n      swap1\n      pop\n        /* \"#utility.yul\":17139:17252   */\n      jump(tag_364)\n    tag_366:\n        /* \"#utility.yul\":17270:17276   */\n      dup4\n        /* \"#utility.yul\":17267:17268   */\n      dup2\n        /* \"#utility.yul\":17264:17277   */\n      gt\n        /* \"#utility.yul\":17261:17263   */\n      iszero\n      tag_367\n      jumpi\n        /* \"#utility.yul\":17350:17351   */\n      0x00\n        /* \"#utility.yul\":17341:17347   */\n      dup5\n        /* \"#utility.yul\":17336:17339   */\n      dup5\n        /* \"#utility.yul\":17332:17348   */\n      add\n        /* \"#utility.yul\":17325:17352   */\n      mstore\n        /* \"#utility.yul\":17261:17263   */\n    tag_367:\n        /* \"#utility.yul\":17110:17368   */\n      pop\n      pop\n      pop\n      pop\n      jump\t// out\n        /* \"#utility.yul\":17374:17694   */\n    tag_74:\n      0x00\n        /* \"#utility.yul\":17455:17456   */\n      0x02\n        /* \"#utility.yul\":17449:17453   */\n      dup3\n        /* \"#utility.yul\":17445:17457   */\n      div\n        /* \"#utility.yul\":17435:17457   */\n      swap1\n      pop\n        /* \"#utility.yul\":17502:17503   */\n      0x01\n        /* \"#utility.yul\":17496:17500   */\n      dup3\n        /* \"#utility.yul\":17492:17504   */\n      and\n        /* \"#utility.yul\":17523:17541   */\n      dup1\n        /* \"#utility.yul\":17513:17515   */\n      tag_369\n      jumpi\n        /* \"#utility.yul\":17579:17583   */\n      0x7f\n        /* \"#utility.yul\":17571:17577   */\n      dup3\n        /* \"#utility.yul\":17567:17584   */\n      and\n        /* \"#utility.yul\":17557:17584   */\n      swap2\n      pop\n        /* \"#utility.yul\":17513:17515   */\n    tag_369:\n        /* \"#utility.yul\":17641:17643   */\n      0x20\n        /* \"#utility.yul\":17633:17639   */\n      dup3\n        /* \"#utility.yul\":17630:17644   */\n      lt\n        /* \"#utility.yul\":17610:17628   */\n      dup2\n        /* \"#utility.yul\":17607:17645   */\n      eq\n        /* \"#utility.yul\":17604:17606   */\n      iszero\n      tag_370\n      jumpi\n        /* \"#utility.yul\":17660:17678   */\n      tag_371\n      tag_372\n      jump\t// in\n    tag_371:\n        /* \"#utility.yul\":17604:17606   */\n    tag_370:\n        /* \"#utility.yul\":17425:17694   */\n      pop\n      swap2\n      swap1\n      pop\n      jump\t// out\n        /* \"#utility.yul\":17700:17933   */\n    tag_68:\n      0x00\n        /* \"#utility.yul\":17762:17786   */\n      tag_374\n        /* \"#utility.yul\":17780:17785   */\n      dup3\n        /* \"#utility.yul\":17762:17786   */\n      tag_310\n      jump\t// in\n    tag_374:\n        /* \"#utility.yul\":17753:17786   */\n      swap2\n      pop\n        /* \"#utility.yul\":17808:17874   */\n      0xffffffffffffffffffffffffffffffffffffffffffffffffffffffffffffffff\n        /* \"#utility.yul\":17801:17806   */\n      dup3\n        /* \"#utility.yul\":17798:17875   */\n      eq\n        /* \"#utility.yul\":17795:17797   */\n      iszero\n      tag_375\n      jumpi\n        /* \"#utility.yul\":17878:17896   */\n      tag_376\n      tag_377\n      jump\t// in\n    tag_376:\n        /* \"#utility.yul\":17795:17797   */\n    tag_375:\n        /* \"#utility.yul\":17925:17926   */\n      0x01\n        /* \"#utility.yul\":17918:17923   */\n      dup3\n        /* \"#utility.yul\":17914:17927   */\n      add\n        /* \"#utility.yul\":17907:17927   */\n      swap1\n      pop\n        /* \"#utility.yul\":17743:17933   */\n      swap2\n      swap1\n      pop\n      jump\t// out\n        /* \"#utility.yul\":17939:18119   */\n    tag_377:\n        /* \"#utility.yul\":17987:18064   */\n      0x4e487b7100000000000000000000000000000000000000000000000000000000\n        /* \"#utility.yul\":17984:17985   */\n      0x00\n        /* \"#utility.yul\":17977:18065   */\n      mstore\n        /* \"#utility.yul\":18084:18088   */\n      0x11\n        /* \"#utility.yul\":18081:18082   */\n      0x04\n        /* \"#utility.yul\":18074:18089   */\n      mstore\n        /* \"#utility.yul\":18108:18112   */\n      0x24\n        /* \"#utility.yul\":18105:18106   */\n      0x00\n        /* \"#utility.yul\":18098:18113   */\n      revert\n        /* \"#utility.yul\":18125:18305   */\n    tag_372:\n        /* \"#utility.yul\":18173:18250   */\n      0x4e487b7100000000000000000000000000000000000000000000000000000000\n        /* \"#utility.yul\":18170:18171   */\n      0x00\n        /* \"#utility.yul\":18163:18251   */\n      mstore\n        /* \"#utility.yul\":18270:18274   */\n      0x22\n        /* \"#utility.yul\":18267:18268   */\n      0x04\n        /* \"#utility.yul\":18260:18275   */\n      mstore\n        /* \"#utility.yul\":18294:18298   */\n      0x24\n        /* \"#utility.yul\":18291:18292   */\n      0x00\n        /* \"#utility.yul\":18284:18299   */\n      revert\n        /* \"#utility.yul\":18311:18491   */\n    tag_345:\n        /* \"#utility.yul\":18359:18436   */\n      0x4e487b7100000000000000000000000000000000000000000000000000000000\n        /* \"#utility.yul\":18356:18357   */\n      0x00\n        /* \"#utility.yul\":18349:18437   */\n      mstore\n        /* \"#utility.yul\":18456:18460   */\n      0x41\n        /* \"#utility.yul\":18453:18454   */\n      0x04\n        /* \"#utility.yul\":18446:18461   */\n      mstore\n        /* \"#utility.yul\":18480:18484   */\n      0x24\n        /* \"#utility.yul\":18477:18478   */\n      0x00\n        /* \"#utility.yul\":18470:18485   */\n      revert\n        /* \"#utility.yul\":18497:18599   */\n    tag_266:\n      0x00\n        /* \"#utility.yul\":18589:18591   */\n      0x1f\n        /* \"#utility.yul\":18585:18592   */\n      not\n        /* \"#utility.yul\":18580:18582   */\n      0x1f\n        /* \"#utility.yul\":18573:18578   */\n      dup4\n        /* \"#utility.yul\":18569:18583   */\n      add\n        /* \"#utility.yul\":18565:18593   */\n      and\n        /* \"#utility.yul\":18555:18593   */\n      swap1\n      pop\n        /* \"#utility.yul\":18545:18599   */\n      swap2\n      swap1\n      pop\n      jump\t// out\n        /* \"#utility.yul\":18605:18727   */\n    tag_200:\n        /* \"#utility.yul\":18678:18702   */\n      tag_383\n        /* \"#utility.yul\":18696:18701   */\n      dup2\n        /* \"#utility.yul\":18678:18702   */\n      tag_235\n      jump\t// in\n    tag_383:\n        /* \"#utility.yul\":18671:18676   */\n      dup2\n        /* \"#utility.yul\":18668:18703   */\n      eq\n        /* \"#utility.yul\":18658:18660   */\n      tag_384\n      jumpi\n        /* \"#utility.yul\":18717:18718   */\n      0x00\n        /* \"#utility.yul\":18714:18715   */\n      dup1\n        /* \"#utility.yul\":18707:18719   */\n      revert\n        /* \"#utility.yul\":18658:18660   */\n    tag_384:\n        /* \"#utility.yul\":18648:18727   */\n      pop\n      jump\t// out\n        /* \"#utility.yul\":18733:18855   */\n    tag_204:\n        /* \"#utility.yul\":18806:18830   */\n      tag_386\n        /* \"#utility.yul\":18824:18829   */\n      dup2\n        /* \"#utility.yul\":18806:18830   */\n      tag_253\n      jump\t// in\n    tag_386:\n        /* \"#utility.yul\":18799:18804   */\n      dup2\n        /* \"#utility.yul\":18796:18831   */\n      eq\n        /* \"#utility.yul\":18786:18788   */\n      tag_387\n      jumpi\n        /* \"#utility.yul\":18845:18846   */\n      0x00\n        /* \"#utility.yul\":18842:18843   */\n      dup1\n        /* \"#utility.yul\":18835:18847   */\n      revert\n        /* \"#utility.yul\":18786:18788   */\n    tag_387:\n        /* \"#utility.yul\":18776:18855   */\n      pop\n      jump\t// out\n        /* \"#utility.yul\":18861:18983   */\n    tag_212:\n        /* \"#utility.yul\":18934:18958   */\n      tag_389\n        /* \"#utility.yul\":18952:18957   */\n      dup2\n        /* \"#utility.yul\":18934:18958   */\n      tag_310\n      jump\t// in\n    tag_389:\n        /* \"#utility.yul\":18927:18932   */\n      dup2\n        /* \"#utility.yul\":18924:18959   */\n      eq\n        /* \"#utility.yul\":18914:18916   */\n      tag_390\n      jumpi\n        /* \"#utility.yul\":18973:18974   */\n      0x00\n        /* \"#utility.yul\":18970:18971   */\n      dup1\n        /* \"#utility.yul\":18963:18975   */\n      revert\n        /* \"#utility.yul\":18914:18916   */\n    tag_390:\n        /* \"#utility.yul\":18904:18983   */\n      pop\n      jump\t// out\n\n    auxdata: 0xa2646970667358221220e80e97e98946c1aef360eda5f9f11810f188fd043b186681262513c77383876b64736f6c63430008000033\n}\n",
				"bytecode": {
					"linkReferences": {},
					"object": "608060405234801561001057600080fd5b50336000806101000a81548173ffffffffffffffffffffffffffffffffffffffff021916908373ffffffffffffffffffffffffffffffffffffffff160217905550611b67806100606000396000f3fe608060405234801561001057600080fd5b506004361061009e5760003560e01c80638d78e74c116100665780638d78e74c1461014b5780639ab05535146101675780639e9cf22e14610185578063d4abd19a146101a1578063f851a440146101d15761009e565b806305b6a8c6146100a357806310f8963f146100bf578063120d7b9e146100f157806327f8bb9d1461010f5780637067accb1461012d575b600080fd5b6100bd60048036038101906100b89190611253565b6101ef565b005b6100d960048036038101906100d491906112bd565b6103d5565b6040516100e893929190611709565b60405180910390f35b6100f9610497565b6040516101069190611869565b60405180910390f35b6101176104a1565b6040516101249190611847565b60405180910390f35b610135610778565b60405161014291906116e7565b60405180910390f35b610165600480360381019061016091906111ff565b61087d565b005b61016f610bef565b60405161017c9190611869565b60405180910390f35b61019f600480360381019061019a919061127c565b610bf5565b005b6101bb60048036038101906101b69190611253565b610d51565b6040516101c89190611869565b60405180910390f35b6101d9610e70565b6040516101e691906116cc565b60405180910390f35b600260003373ffffffffffffffffffffffffffffffffffffffff1673ffffffffffffffffffffffffffffffffffffffff16815260200190815260200160002060010160019054906101000a900460ff161561027f576040517f08c379a0000000000000000000000000000000000000000000000000000000008152600401610276906117e7565b60405180910390fd5b600260003373ffffffffffffffffffffffffffffffffffffffff1673ffffffffffffffffffffffffffffffffffffffff16815260200190815260200160002060010160009054906101000a900460ff1661030e576040517f08c379a000000000000000000000000000000000000000000000000000000000815260040161030590611807565b60405180910390fd5b61031781610e94565b610356576040517f08c379a000000000000000000000000000000000000000000000000000000000815260040161034d90611747565b60405180910390fd5b6004600081548092919061036990611a05565b919050555061037781610f24565b6001600260003373ffffffffffffffffffffffffffffffffffffffff1673ffffffffffffffffffffffffffffffffffffffff16815260200190815260200160002060010160016101000a81548160ff02191690831515021790555050565b600381815481106103e557600080fd5b9060005260206000209060030201600091509050806000018054610408906119d3565b80601f0160208091040260200160405190810160405280929190818152602001828054610434906119d3565b80156104815780601f1061045657610100808354040283529160200191610481565b820191906000526020600020905b81548152906001019060200180831161046457829003601f168201915b5050505050908060010154908060020154905083565b6000600454905090565b6104a9611004565b6000600380549050116104f1576040517f08c379a00000000000000000000000000000000000000000000000000000000081526004016104e890611827565b60405180910390fd5b600360008154811061052c577f4e487b7100000000000000000000000000000000000000000000000000000000600052603260045260246000fd5b9060005260206000209060030201604051806060016040529081600082018054610555906119d3565b80601f0160208091040260200160405190810160405280929190818152602001828054610581906119d3565b80156105ce5780601f106105a3576101008083540402835291602001916105ce565b820191906000526020600020905b8154815290600101906020018083116105b157829003601f168201915b505050505081526020016001820154815260200160028201548152505090506000816020015190506000600190505b600380549050811015610773578160038281548110610645577f4e487b7100000000000000000000000000000000000000000000000000000000600052603260045260246000fd5b90600052602060002090600302016001015411156107605760038181548110610697577f4e487b7100000000000000000000000000000000000000000000000000000000600052603260045260246000fd5b90600052602060002090600302016040518060600160405290816000820180546106c0906119d3565b80601f01602080910402602001604051908101604052809291908181526020018280546106ec906119d3565b80156107395780601f1061070e57610100808354040283529160200191610739565b820191906000526020600020905b81548152906001019060200180831161071c57829003601f168201915b50505050508152602001600182015481526020016002820154815250509250826020015191505b808061076b90611a05565b9150506105fd565b505090565b60606003805480602002602001604051908101604052809291908181526020016000905b8282101561087457838290600052602060002090600302016040518060600160405290816000820180546107cf906119d3565b80601f01602080910402602001604051908101604052809291908181526020018280546107fb906119d3565b80156108485780601f1061081d57610100808354040283529160200191610848565b820191906000526020600020905b81548152906001019060200180831161082b57829003601f168201915b50505050508152602001600182015481526020016002820154815250508152602001906001019061079c565b50505050905090565b60008054906101000a900473ffffffffffffffffffffffffffffffffffffffff1673ffffffffffffffffffffffffffffffffffffffff163373ffffffffffffffffffffffffffffffffffffffff161461090b576040517f08c379a000000000000000000000000000000000000000000000000000000000815260040161090290611767565b60405180910390fd5b600073ffffffffffffffffffffffffffffffffffffffff168273ffffffffffffffffffffffffffffffffffffffff16141561097b576040517f08c379a000000000000000000000000000000000000000000000000000000000815260040161097290611787565b60405180910390fd5b60405180608001604052808281526020016001151581526020016000151581526020018373ffffffffffffffffffffffffffffffffffffffff16815250600260008473ffffffffffffffffffffffffffffffffffffffff1673ffffffffffffffffffffffffffffffffffffffff1681526020019081526020016000206000820151816000019080519060200190610a13929190611028565b5060208201518160010160006101000a81548160ff02191690831515021790555060408201518160010160016101000a81548160ff02191690831515021790555060608201518160010160026101000a81548173ffffffffffffffffffffffffffffffffffffffff021916908373ffffffffffffffffffffffffffffffffffffffff1602179055509050506001600260008473ffffffffffffffffffffffffffffffffffffffff1673ffffffffffffffffffffffffffffffffffffffff16815260200190815260200160002090806001815401808255809150506001900390600052602060002090600202016000909190919091506000820181600001908054610b1c906119d3565b610b279291906110ae565b506001820160009054906101000a900460ff168160010160006101000a81548160ff0219169083151502179055506001820160019054906101000a900460ff168160010160016101000a81548160ff0219169083151502179055506001820160029054906101000a900473ffffffffffffffffffffffffffffffffffffffff168160010160026101000a81548173ffffffffffffffffffffffffffffffffffffffff021916908373ffffffffffffffffffffffffffffffffffffffff16021790555050505050565b60045481565b60008054906101000a900473ffffffffffffffffffffffffffffffffffffffff1673ffffffffffffffffffffffffffffffffffffffff163373ffffffffffffffffffffffffffffffffffffffff1614610c83576040517f08c379a0000000000000000000000000000000000000000000000000000000008152600401610c7a90611767565b60405180910390fd5b6000815111610cc7576040517f08c379a0000000000000000000000000000000000000000000000000000000008152600401610cbe906117c7565b60405180910390fd5b60008180519060200120905060036040518060600160405280848152602001600081526020018381525090806001815401808255809150506001900390600052602060002090600302016000909190919091506000820151816000019080519060200190610d36929190611028565b50602082015181600101556040820151816002015550505050565b6000610d5c82610e94565b610d9b576040517f08c379a0000000000000000000000000000000000000000000000000000000008152600401610d92906117a7565b60405180910390fd5b60005b600380549050811015610e65578260038281548110610de6577f4e487b7100000000000000000000000000000000000000000000000000000000600052603260045260246000fd5b9060005260206000209060030201600201541415610e525760038181548110610e38577f4e487b7100000000000000000000000000000000000000000000000000000000600052603260045260246000fd5b906000526020600020906003020160010154915050610e6b565b8080610e5d90611a05565b915050610d9e565b50600090505b919050565b60008054906101000a900473ffffffffffffffffffffffffffffffffffffffff1681565b600080600090505b600380549050811015610f19578260038281548110610ee4577f4e487b7100000000000000000000000000000000000000000000000000000000600052603260045260246000fd5b9060005260206000209060030201600201541415610f06576001915050610f1f565b8080610f1190611a05565b915050610e9c565b50600090505b919050565b60005b600380549050811015611000578160038281548110610f6f577f4e487b7100000000000000000000000000000000000000000000000000000000600052603260045260246000fd5b9060005260206000209060030201600201541415610fed5760038181548110610fc1577f4e487b7100000000000000000000000000000000000000000000000000000000600052603260045260246000fd5b90600052602060002090600302016001016000815480929190610fe390611a05565b9190505550611000565b8080610ff890611a05565b915050610f27565b5050565b60405180606001604052806060815260200160008152602001600080191681525090565b828054611034906119d3565b90600052602060002090601f016020900481019282611056576000855561109d565b82601f1061106f57805160ff191683800117855561109d565b8280016001018555821561109d579182015b8281111561109c578251825591602001919060010190611081565b5b5090506110aa919061113b565b5090565b8280546110ba906119d3565b90600052602060002090601f0160209004810192826110dc576000855561112a565b82601f106110ed578054855561112a565b8280016001018555821561112a57600052602060002091601f016020900482015b8281111561112957825482559160010191906001019061110e565b5b509050611137919061113b565b5090565b5b8082111561115457600081600090555060010161113c565b5090565b600061116b611166846118b5565b611884565b90508281526020810184848401111561118357600080fd5b61118e848285611991565b509392505050565b6000813590506111a581611aec565b92915050565b6000813590506111ba81611b03565b92915050565b600082601f8301126111d157600080fd5b81356111e1848260208601611158565b91505092915050565b6000813590506111f981611b1a565b92915050565b6000806040838503121561121257600080fd5b600061122085828601611196565b925050602083013567ffffffffffffffff81111561123d57600080fd5b611249858286016111c0565b9150509250929050565b60006020828403121561126557600080fd5b6000611273848285016111ab565b91505092915050565b60006020828403121561128e57600080fd5b600082013567ffffffffffffffff8111156112a857600080fd5b6112b4848285016111c0565b91505092915050565b6000602082840312156112cf57600080fd5b60006112dd848285016111ea565b91505092915050565b60006112f2838361160e565b905092915050565b6113038161194b565b82525050565b6000611314826118f5565b61131e8185611918565b935083602082028501611330856118e5565b8060005b8581101561136c578484038952815161134d85826112e6565b94506113588361190b565b925060208a01995050600181019050611334565b50829750879550505050505092915050565b6113878161195d565b82525050565b6113968161195d565b82525050565b60006113a782611900565b6113b18185611929565b93506113c18185602086016119a0565b6113ca81611adb565b840191505092915050565b60006113e082611900565b6113ea818561193a565b93506113fa8185602086016119a0565b61140381611adb565b840191505092915050565b600061141b601b8361193a565b91507f4e6f7420612076616c696420726570726573656e7461746976657300000000006000830152602082019050919050565b600061145b60158361193a565b91507f41646d696e69747261746f722066756e6374696f6e00000000000000000000006000830152602082019050919050565b600061149b60128361193a565b91507f4e6f74206120546865566f7465722061646400000000000000000000000000006000830152602082019050919050565b60006114db60198361193a565b91507f4e6f742076616c696420726570726573656e74617469766573000000000000006000830152602082019050919050565b600061151b60188361193a565b91507f54686543616e642068617320746f2062652066696c6c656400000000000000006000830152602082019050919050565b600061155b600e8361193a565b91507f546865566f74657220766f7465640000000000000000000000000000000000006000830152602082019050919050565b600061159b60128361193a565b91507f546865566f746572732066756e6374696f6e00000000000000000000000000006000830152602082019050919050565b60006115db601d8361193a565b91507f4e6f20726570726573656e746174697665737320696e206d656d6f72790000006000830152602082019050919050565b6000606083016000830151848203600086015261162b828261139c565b915050602083015161164060208601826116ae565b506040830151611653604086018261137e565b508091505092915050565b6000606083016000830151848203600086015261167b828261139c565b915050602083015161169060208601826116ae565b5060408301516116a3604086018261137e565b508091505092915050565b6116b781611987565b82525050565b6116c681611987565b82525050565b60006020820190506116e160008301846112fa565b92915050565b600060208201905081810360008301526117018184611309565b905092915050565b6000606082019050818103600083015261172381866113d5565b905061173260208301856116bd565b61173f604083018461138d565b949350505050565b600060208201905081810360008301526117608161140e565b9050919050565b600060208201905081810360008301526117808161144e565b9050919050565b600060208201905081810360008301526117a08161148e565b9050919050565b600060208201905081810360008301526117c0816114ce565b9050919050565b600060208201905081810360008301526117e08161150e565b9050919050565b600060208201905081810360008301526118008161154e565b9050919050565b600060208201905081810360008301526118208161158e565b9050919050565b60006020820190508181036000830152611840816115ce565b9050919050565b60006020820190508181036000830152611861818461165e565b905092915050565b600060208201905061187e60008301846116bd565b92915050565b6000604051905081810181811067ffffffffffffffff821117156118ab576118aa611aac565b5b8060405250919050565b600067ffffffffffffffff8211156118d0576118cf611aac565b5b601f19601f8301169050602081019050919050565b6000819050602082019050919050565b600081519050919050565b600081519050919050565b6000602082019050919050565b600082825260208201905092915050565b600082825260208201905092915050565b600082825260208201905092915050565b600061195682611967565b9050919050565b6000819050919050565b600073ffffffffffffffffffffffffffffffffffffffff82169050919050565b6000819050919050565b82818337600083830152505050565b60005b838110156119be5780820151818401526020810190506119a3565b838111156119cd576000848401525b50505050565b600060028204905060018216806119eb57607f821691505b602082108114156119ff576119fe611a7d565b5b50919050565b6000611a1082611987565b91507fffffffffffffffffffffffffffffffffffffffffffffffffffffffffffffffff821415611a4357611a42611a4e565b5b600182019050919050565b7f4e487b7100000000000000000000000000000000000000000000000000000000600052601160045260246000fd5b7f4e487b7100000000000000000000000000000000000000000000000000000000600052602260045260246000fd5b7f4e487b7100000000000000000000000000000000000000000000000000000000600052604160045260246000fd5b6000601f19601f8301169050919050565b611af58161194b565b8114611b0057600080fd5b50565b611b0c8161195d565b8114611b1757600080fd5b50565b611b2381611987565b8114611b2e57600080fd5b5056fea2646970667358221220e80e97e98946c1aef360eda5f9f11810f188fd043b186681262513c77383876b64736f6c63430008000033",
					"opcodes": "PUSH1 0x80 PUSH1 0x40 MSTORE CALLVALUE DUP1 ISZERO PUSH2 0x10 JUMPI PUSH1 0x0 DUP1 REVERT JUMPDEST POP CALLER PUSH1 0x0 DUP1 PUSH2 0x100 EXP DUP2 SLOAD DUP2 PUSH20 0xFFFFFFFFFFFFFFFFFFFFFFFFFFFFFFFFFFFFFFFF MUL NOT AND SWAP1 DUP4 PUSH20 0xFFFFFFFFFFFFFFFFFFFFFFFFFFFFFFFFFFFFFFFF AND MUL OR SWAP1 SSTORE POP PUSH2 0x1B67 DUP1 PUSH2 0x60 PUSH1 0x0 CODECOPY PUSH1 0x0 RETURN INVALID PUSH1 0x80 PUSH1 0x40 MSTORE CALLVALUE DUP1 ISZERO PUSH2 0x10 JUMPI PUSH1 0x0 DUP1 REVERT JUMPDEST POP PUSH1 0x4 CALLDATASIZE LT PUSH2 0x9E JUMPI PUSH1 0x0 CALLDATALOAD PUSH1 0xE0 SHR DUP1 PUSH4 0x8D78E74C GT PUSH2 0x66 JUMPI DUP1 PUSH4 0x8D78E74C EQ PUSH2 0x14B JUMPI DUP1 PUSH4 0x9AB05535 EQ PUSH2 0x167 JUMPI DUP1 PUSH4 0x9E9CF22E EQ PUSH2 0x185 JUMPI DUP1 PUSH4 0xD4ABD19A EQ PUSH2 0x1A1 JUMPI DUP1 PUSH4 0xF851A440 EQ PUSH2 0x1D1 JUMPI PUSH2 0x9E JUMP JUMPDEST DUP1 PUSH4 0x5B6A8C6 EQ PUSH2 0xA3 JUMPI DUP1 PUSH4 0x10F8963F EQ PUSH2 0xBF JUMPI DUP1 PUSH4 0x120D7B9E EQ PUSH2 0xF1 JUMPI DUP1 PUSH4 0x27F8BB9D EQ PUSH2 0x10F JUMPI DUP1 PUSH4 0x7067ACCB EQ PUSH2 0x12D JUMPI JUMPDEST PUSH1 0x0 DUP1 REVERT JUMPDEST PUSH2 0xBD PUSH1 0x4 DUP1 CALLDATASIZE SUB DUP2 ADD SWAP1 PUSH2 0xB8 SWAP2 SWAP1 PUSH2 0x1253 JUMP JUMPDEST PUSH2 0x1EF JUMP JUMPDEST STOP JUMPDEST PUSH2 0xD9 PUSH1 0x4 DUP1 CALLDATASIZE SUB DUP2 ADD SWAP1 PUSH2 0xD4 SWAP2 SWAP1 PUSH2 0x12BD JUMP JUMPDEST PUSH2 0x3D5 JUMP JUMPDEST PUSH1 0x40 MLOAD PUSH2 0xE8 SWAP4 SWAP3 SWAP2 SWAP1 PUSH2 0x1709 JUMP JUMPDEST PUSH1 0x40 MLOAD DUP1 SWAP2 SUB SWAP1 RETURN JUMPDEST PUSH2 0xF9 PUSH2 0x497 JUMP JUMPDEST PUSH1 0x40 MLOAD PUSH2 0x106 SWAP2 SWAP1 PUSH2 0x1869 JUMP JUMPDEST PUSH1 0x40 MLOAD DUP1 SWAP2 SUB SWAP1 RETURN JUMPDEST PUSH2 0x117 PUSH2 0x4A1 JUMP JUMPDEST PUSH1 0x40 MLOAD PUSH2 0x124 SWAP2 SWAP1 PUSH2 0x1847 JUMP JUMPDEST PUSH1 0x40 MLOAD DUP1 SWAP2 SUB SWAP1 RETURN JUMPDEST PUSH2 0x135 PUSH2 0x778 JUMP JUMPDEST PUSH1 0x40 MLOAD PUSH2 0x142 SWAP2 SWAP1 PUSH2 0x16E7 JUMP JUMPDEST PUSH1 0x40 MLOAD DUP1 SWAP2 SUB SWAP1 RETURN JUMPDEST PUSH2 0x165 PUSH1 0x4 DUP1 CALLDATASIZE SUB DUP2 ADD SWAP1 PUSH2 0x160 SWAP2 SWAP1 PUSH2 0x11FF JUMP JUMPDEST PUSH2 0x87D JUMP JUMPDEST STOP JUMPDEST PUSH2 0x16F PUSH2 0xBEF JUMP JUMPDEST PUSH1 0x40 MLOAD PUSH2 0x17C SWAP2 SWAP1 PUSH2 0x1869 JUMP JUMPDEST PUSH1 0x40 MLOAD DUP1 SWAP2 SUB SWAP1 RETURN JUMPDEST PUSH2 0x19F PUSH1 0x4 DUP1 CALLDATASIZE SUB DUP2 ADD SWAP1 PUSH2 0x19A SWAP2 SWAP1 PUSH2 0x127C JUMP JUMPDEST PUSH2 0xBF5 JUMP JUMPDEST STOP JUMPDEST PUSH2 0x1BB PUSH1 0x4 DUP1 CALLDATASIZE SUB DUP2 ADD SWAP1 PUSH2 0x1B6 SWAP2 SWAP1 PUSH2 0x1253 JUMP JUMPDEST PUSH2 0xD51 JUMP JUMPDEST PUSH1 0x40 MLOAD PUSH2 0x1C8 SWAP2 SWAP1 PUSH2 0x1869 JUMP JUMPDEST PUSH1 0x40 MLOAD DUP1 SWAP2 SUB SWAP1 RETURN JUMPDEST PUSH2 0x1D9 PUSH2 0xE70 JUMP JUMPDEST PUSH1 0x40 MLOAD PUSH2 0x1E6 SWAP2 SWAP1 PUSH2 0x16CC JUMP JUMPDEST PUSH1 0x40 MLOAD DUP1 SWAP2 SUB SWAP1 RETURN JUMPDEST PUSH1 0x2 PUSH1 0x0 CALLER PUSH20 0xFFFFFFFFFFFFFFFFFFFFFFFFFFFFFFFFFFFFFFFF AND PUSH20 0xFFFFFFFFFFFFFFFFFFFFFFFFFFFFFFFFFFFFFFFF AND DUP2 MSTORE PUSH1 0x20 ADD SWAP1 DUP2 MSTORE PUSH1 0x20 ADD PUSH1 0x0 KECCAK256 PUSH1 0x1 ADD PUSH1 0x1 SWAP1 SLOAD SWAP1 PUSH2 0x100 EXP SWAP1 DIV PUSH1 0xFF AND ISZERO PUSH2 0x27F JUMPI PUSH1 0x40 MLOAD PUSH32 0x8C379A000000000000000000000000000000000000000000000000000000000 DUP2 MSTORE PUSH1 0x4 ADD PUSH2 0x276 SWAP1 PUSH2 0x17E7 JUMP JUMPDEST PUSH1 0x40 MLOAD DUP1 SWAP2 SUB SWAP1 REVERT JUMPDEST PUSH1 0x2 PUSH1 0x0 CALLER PUSH20 0xFFFFFFFFFFFFFFFFFFFFFFFFFFFFFFFFFFFFFFFF AND PUSH20 0xFFFFFFFFFFFFFFFFFFFFFFFFFFFFFFFFFFFFFFFF AND DUP2 MSTORE PUSH1 0x20 ADD SWAP1 DUP2 MSTORE PUSH1 0x20 ADD PUSH1 0x0 KECCAK256 PUSH1 0x1 ADD PUSH1 0x0 SWAP1 SLOAD SWAP1 PUSH2 0x100 EXP SWAP1 DIV PUSH1 0xFF AND PUSH2 0x30E JUMPI PUSH1 0x40 MLOAD PUSH32 0x8C379A000000000000000000000000000000000000000000000000000000000 DUP2 MSTORE PUSH1 0x4 ADD PUSH2 0x305 SWAP1 PUSH2 0x1807 JUMP JUMPDEST PUSH1 0x40 MLOAD DUP1 SWAP2 SUB SWAP1 REVERT JUMPDEST PUSH2 0x317 DUP2 PUSH2 0xE94 JUMP JUMPDEST PUSH2 0x356 JUMPI PUSH1 0x40 MLOAD PUSH32 0x8C379A000000000000000000000000000000000000000000000000000000000 DUP2 MSTORE PUSH1 0x4 ADD PUSH2 0x34D SWAP1 PUSH2 0x1747 JUMP JUMPDEST PUSH1 0x40 MLOAD DUP1 SWAP2 SUB SWAP1 REVERT JUMPDEST PUSH1 0x4 PUSH1 0x0 DUP2 SLOAD DUP1 SWAP3 SWAP2 SWAP1 PUSH2 0x369 SWAP1 PUSH2 0x1A05 JUMP JUMPDEST SWAP2 SWAP1 POP SSTORE POP PUSH2 0x377 DUP2 PUSH2 0xF24 JUMP JUMPDEST PUSH1 0x1 PUSH1 0x2 PUSH1 0x0 CALLER PUSH20 0xFFFFFFFFFFFFFFFFFFFFFFFFFFFFFFFFFFFFFFFF AND PUSH20 0xFFFFFFFFFFFFFFFFFFFFFFFFFFFFFFFFFFFFFFFF AND DUP2 MSTORE PUSH1 0x20 ADD SWAP1 DUP2 MSTORE PUSH1 0x20 ADD PUSH1 0x0 KECCAK256 PUSH1 0x1 ADD PUSH1 0x1 PUSH2 0x100 EXP DUP2 SLOAD DUP2 PUSH1 0xFF MUL NOT AND SWAP1 DUP4 ISZERO ISZERO MUL OR SWAP1 SSTORE POP POP JUMP JUMPDEST PUSH1 0x3 DUP2 DUP2 SLOAD DUP2 LT PUSH2 0x3E5 JUMPI PUSH1 0x0 DUP1 REVERT JUMPDEST SWAP1 PUSH1 0x0 MSTORE PUSH1 0x20 PUSH1 0x0 KECCAK256 SWAP1 PUSH1 0x3 MUL ADD PUSH1 0x0 SWAP2 POP SWAP1 POP DUP1 PUSH1 0x0 ADD DUP1 SLOAD PUSH2 0x408 SWAP1 PUSH2 0x19D3 JUMP JUMPDEST DUP1 PUSH1 0x1F ADD PUSH1 0x20 DUP1 SWAP2 DIV MUL PUSH1 0x20 ADD PUSH1 0x40 MLOAD SWAP1 DUP2 ADD PUSH1 0x40 MSTORE DUP1 SWAP3 SWAP2 SWAP1 DUP2 DUP2 MSTORE PUSH1 0x20 ADD DUP3 DUP1 SLOAD PUSH2 0x434 SWAP1 PUSH2 0x19D3 JUMP JUMPDEST DUP1 ISZERO PUSH2 0x481 JUMPI DUP1 PUSH1 0x1F LT PUSH2 0x456 JUMPI PUSH2 0x100 DUP1 DUP4 SLOAD DIV MUL DUP4 MSTORE SWAP2 PUSH1 0x20 ADD SWAP2 PUSH2 0x481 JUMP JUMPDEST DUP3 ADD SWAP2 SWAP1 PUSH1 0x0 MSTORE PUSH1 0x20 PUSH1 0x0 KECCAK256 SWAP1 JUMPDEST DUP2 SLOAD DUP2 MSTORE SWAP1 PUSH1 0x1 ADD SWAP1 PUSH1 0x20 ADD DUP1 DUP4 GT PUSH2 0x464 JUMPI DUP3 SWAP1 SUB PUSH1 0x1F AND DUP3 ADD SWAP2 JUMPDEST POP POP POP POP POP SWAP1 DUP1 PUSH1 0x1 ADD SLOAD SWAP1 DUP1 PUSH1 0x2 ADD SLOAD SWAP1 POP DUP4 JUMP JUMPDEST PUSH1 0x0 PUSH1 0x4 SLOAD SWAP1 POP SWAP1 JUMP JUMPDEST PUSH2 0x4A9 PUSH2 0x1004 JUMP JUMPDEST PUSH1 0x0 PUSH1 0x3 DUP1 SLOAD SWAP1 POP GT PUSH2 0x4F1 JUMPI PUSH1 0x40 MLOAD PUSH32 0x8C379A000000000000000000000000000000000000000000000000000000000 DUP2 MSTORE PUSH1 0x4 ADD PUSH2 0x4E8 SWAP1 PUSH2 0x1827 JUMP JUMPDEST PUSH1 0x40 MLOAD DUP1 SWAP2 SUB SWAP1 REVERT JUMPDEST PUSH1 0x3 PUSH1 0x0 DUP2 SLOAD DUP2 LT PUSH2 0x52C JUMPI PUSH32 0x4E487B7100000000000000000000000000000000000000000000000000000000 PUSH1 0x0 MSTORE PUSH1 0x32 PUSH1 0x4 MSTORE PUSH1 0x24 PUSH1 0x0 REVERT JUMPDEST SWAP1 PUSH1 0x0 MSTORE PUSH1 0x20 PUSH1 0x0 KECCAK256 SWAP1 PUSH1 0x3 MUL ADD PUSH1 0x40 MLOAD DUP1 PUSH1 0x60 ADD PUSH1 0x40 MSTORE SWAP1 DUP2 PUSH1 0x0 DUP3 ADD DUP1 SLOAD PUSH2 0x555 SWAP1 PUSH2 0x19D3 JUMP JUMPDEST DUP1 PUSH1 0x1F ADD PUSH1 0x20 DUP1 SWAP2 DIV MUL PUSH1 0x20 ADD PUSH1 0x40 MLOAD SWAP1 DUP2 ADD PUSH1 0x40 MSTORE DUP1 SWAP3 SWAP2 SWAP1 DUP2 DUP2 MSTORE PUSH1 0x20 ADD DUP3 DUP1 SLOAD PUSH2 0x581 SWAP1 PUSH2 0x19D3 JUMP JUMPDEST DUP1 ISZERO PUSH2 0x5CE JUMPI DUP1 PUSH1 0x1F LT PUSH2 0x5A3 JUMPI PUSH2 0x100 DUP1 DUP4 SLOAD DIV MUL DUP4 MSTORE SWAP2 PUSH1 0x20 ADD SWAP2 PUSH2 0x5CE JUMP JUMPDEST DUP3 ADD SWAP2 SWAP1 PUSH1 0x0 MSTORE PUSH1 0x20 PUSH1 0x0 KECCAK256 SWAP1 JUMPDEST DUP2 SLOAD DUP2 MSTORE SWAP1 PUSH1 0x1 ADD SWAP1 PUSH1 0x20 ADD DUP1 DUP4 GT PUSH2 0x5B1 JUMPI DUP3 SWAP1 SUB PUSH1 0x1F AND DUP3 ADD SWAP2 JUMPDEST POP POP POP POP POP DUP2 MSTORE PUSH1 0x20 ADD PUSH1 0x1 DUP3 ADD SLOAD DUP2 MSTORE PUSH1 0x20 ADD PUSH1 0x2 DUP3 ADD SLOAD DUP2 MSTORE POP POP SWAP1 POP PUSH1 0x0 DUP2 PUSH1 0x20 ADD MLOAD SWAP1 POP PUSH1 0x0 PUSH1 0x1 SWAP1 POP JUMPDEST PUSH1 0x3 DUP1 SLOAD SWAP1 POP DUP2 LT ISZERO PUSH2 0x773 JUMPI DUP2 PUSH1 0x3 DUP3 DUP2 SLOAD DUP2 LT PUSH2 0x645 JUMPI PUSH32 0x4E487B7100000000000000000000000000000000000000000000000000000000 PUSH1 0x0 MSTORE PUSH1 0x32 PUSH1 0x4 MSTORE PUSH1 0x24 PUSH1 0x0 REVERT JUMPDEST SWAP1 PUSH1 0x0 MSTORE PUSH1 0x20 PUSH1 0x0 KECCAK256 SWAP1 PUSH1 0x3 MUL ADD PUSH1 0x1 ADD SLOAD GT ISZERO PUSH2 0x760 JUMPI PUSH1 0x3 DUP2 DUP2 SLOAD DUP2 LT PUSH2 0x697 JUMPI PUSH32 0x4E487B7100000000000000000000000000000000000000000000000000000000 PUSH1 0x0 MSTORE PUSH1 0x32 PUSH1 0x4 MSTORE PUSH1 0x24 PUSH1 0x0 REVERT JUMPDEST SWAP1 PUSH1 0x0 MSTORE PUSH1 0x20 PUSH1 0x0 KECCAK256 SWAP1 PUSH1 0x3 MUL ADD PUSH1 0x40 MLOAD DUP1 PUSH1 0x60 ADD PUSH1 0x40 MSTORE SWAP1 DUP2 PUSH1 0x0 DUP3 ADD DUP1 SLOAD PUSH2 0x6C0 SWAP1 PUSH2 0x19D3 JUMP JUMPDEST DUP1 PUSH1 0x1F ADD PUSH1 0x20 DUP1 SWAP2 DIV MUL PUSH1 0x20 ADD PUSH1 0x40 MLOAD SWAP1 DUP2 ADD PUSH1 0x40 MSTORE DUP1 SWAP3 SWAP2 SWAP1 DUP2 DUP2 MSTORE PUSH1 0x20 ADD DUP3 DUP1 SLOAD PUSH2 0x6EC SWAP1 PUSH2 0x19D3 JUMP JUMPDEST DUP1 ISZERO PUSH2 0x739 JUMPI DUP1 PUSH1 0x1F LT PUSH2 0x70E JUMPI PUSH2 0x100 DUP1 DUP4 SLOAD DIV MUL DUP4 MSTORE SWAP2 PUSH1 0x20 ADD SWAP2 PUSH2 0x739 JUMP JUMPDEST DUP3 ADD SWAP2 SWAP1 PUSH1 0x0 MSTORE PUSH1 0x20 PUSH1 0x0 KECCAK256 SWAP1 JUMPDEST DUP2 SLOAD DUP2 MSTORE SWAP1 PUSH1 0x1 ADD SWAP1 PUSH1 0x20 ADD DUP1 DUP4 GT PUSH2 0x71C JUMPI DUP3 SWAP1 SUB PUSH1 0x1F AND DUP3 ADD SWAP2 JUMPDEST POP POP POP POP POP DUP2 MSTORE PUSH1 0x20 ADD PUSH1 0x1 DUP3 ADD SLOAD DUP2 MSTORE PUSH1 0x20 ADD PUSH1 0x2 DUP3 ADD SLOAD DUP2 MSTORE POP POP SWAP3 POP DUP3 PUSH1 0x20 ADD MLOAD SWAP2 POP JUMPDEST DUP1 DUP1 PUSH2 0x76B SWAP1 PUSH2 0x1A05 JUMP JUMPDEST SWAP2 POP POP PUSH2 0x5FD JUMP JUMPDEST POP POP SWAP1 JUMP JUMPDEST PUSH1 0x60 PUSH1 0x3 DUP1 SLOAD DUP1 PUSH1 0x20 MUL PUSH1 0x20 ADD PUSH1 0x40 MLOAD SWAP1 DUP2 ADD PUSH1 0x40 MSTORE DUP1 SWAP3 SWAP2 SWAP1 DUP2 DUP2 MSTORE PUSH1 0x20 ADD PUSH1 0x0 SWAP1 JUMPDEST DUP3 DUP3 LT ISZERO PUSH2 0x874 JUMPI DUP4 DUP3 SWAP1 PUSH1 0x0 MSTORE PUSH1 0x20 PUSH1 0x0 KECCAK256 SWAP1 PUSH1 0x3 MUL ADD PUSH1 0x40 MLOAD DUP1 PUSH1 0x60 ADD PUSH1 0x40 MSTORE SWAP1 DUP2 PUSH1 0x0 DUP3 ADD DUP1 SLOAD PUSH2 0x7CF SWAP1 PUSH2 0x19D3 JUMP JUMPDEST DUP1 PUSH1 0x1F ADD PUSH1 0x20 DUP1 SWAP2 DIV MUL PUSH1 0x20 ADD PUSH1 0x40 MLOAD SWAP1 DUP2 ADD PUSH1 0x40 MSTORE DUP1 SWAP3 SWAP2 SWAP1 DUP2 DUP2 MSTORE PUSH1 0x20 ADD DUP3 DUP1 SLOAD PUSH2 0x7FB SWAP1 PUSH2 0x19D3 JUMP JUMPDEST DUP1 ISZERO PUSH2 0x848 JUMPI DUP1 PUSH1 0x1F LT PUSH2 0x81D JUMPI PUSH2 0x100 DUP1 DUP4 SLOAD DIV MUL DUP4 MSTORE SWAP2 PUSH1 0x20 ADD SWAP2 PUSH2 0x848 JUMP JUMPDEST DUP3 ADD SWAP2 SWAP1 PUSH1 0x0 MSTORE PUSH1 0x20 PUSH1 0x0 KECCAK256 SWAP1 JUMPDEST DUP2 SLOAD DUP2 MSTORE SWAP1 PUSH1 0x1 ADD SWAP1 PUSH1 0x20 ADD DUP1 DUP4 GT PUSH2 0x82B JUMPI DUP3 SWAP1 SUB PUSH1 0x1F AND DUP3 ADD SWAP2 JUMPDEST POP POP POP POP POP DUP2 MSTORE PUSH1 0x20 ADD PUSH1 0x1 DUP3 ADD SLOAD DUP2 MSTORE PUSH1 0x20 ADD PUSH1 0x2 DUP3 ADD SLOAD DUP2 MSTORE POP POP DUP2 MSTORE PUSH1 0x20 ADD SWAP1 PUSH1 0x1 ADD SWAP1 PUSH2 0x79C JUMP JUMPDEST POP POP POP POP SWAP1 POP SWAP1 JUMP JUMPDEST PUSH1 0x0 DUP1 SLOAD SWAP1 PUSH2 0x100 EXP SWAP1 DIV PUSH20 0xFFFFFFFFFFFFFFFFFFFFFFFFFFFFFFFFFFFFFFFF AND PUSH20 0xFFFFFFFFFFFFFFFFFFFFFFFFFFFFFFFFFFFFFFFF AND CALLER PUSH20 0xFFFFFFFFFFFFFFFFFFFFFFFFFFFFFFFFFFFFFFFF AND EQ PUSH2 0x90B JUMPI PUSH1 0x40 MLOAD PUSH32 0x8C379A000000000000000000000000000000000000000000000000000000000 DUP2 MSTORE PUSH1 0x4 ADD PUSH2 0x902 SWAP1 PUSH2 0x1767 JUMP JUMPDEST PUSH1 0x40 MLOAD DUP1 SWAP2 SUB SWAP1 REVERT JUMPDEST PUSH1 0x0 PUSH20 0xFFFFFFFFFFFFFFFFFFFFFFFFFFFFFFFFFFFFFFFF AND DUP3 PUSH20 0xFFFFFFFFFFFFFFFFFFFFFFFFFFFFFFFFFFFFFFFF AND EQ ISZERO PUSH2 0x97B JUMPI PUSH1 0x40 MLOAD PUSH32 0x8C379A000000000000000000000000000000000000000000000000000000000 DUP2 MSTORE PUSH1 0x4 ADD PUSH2 0x972 SWAP1 PUSH2 0x1787 JUMP JUMPDEST PUSH1 0x40 MLOAD DUP1 SWAP2 SUB SWAP1 REVERT JUMPDEST PUSH1 0x40 MLOAD DUP1 PUSH1 0x80 ADD PUSH1 0x40 MSTORE DUP1 DUP3 DUP2 MSTORE PUSH1 0x20 ADD PUSH1 0x1 ISZERO ISZERO DUP2 MSTORE PUSH1 0x20 ADD PUSH1 0x0 ISZERO ISZERO DUP2 MSTORE PUSH1 0x20 ADD DUP4 PUSH20 0xFFFFFFFFFFFFFFFFFFFFFFFFFFFFFFFFFFFFFFFF AND DUP2 MSTORE POP PUSH1 0x2 PUSH1 0x0 DUP5 PUSH20 0xFFFFFFFFFFFFFFFFFFFFFFFFFFFFFFFFFFFFFFFF AND PUSH20 0xFFFFFFFFFFFFFFFFFFFFFFFFFFFFFFFFFFFFFFFF AND DUP2 MSTORE PUSH1 0x20 ADD SWAP1 DUP2 MSTORE PUSH1 0x20 ADD PUSH1 0x0 KECCAK256 PUSH1 0x0 DUP3 ADD MLOAD DUP2 PUSH1 0x0 ADD SWAP1 DUP1 MLOAD SWAP1 PUSH1 0x20 ADD SWAP1 PUSH2 0xA13 SWAP3 SWAP2 SWAP1 PUSH2 0x1028 JUMP JUMPDEST POP PUSH1 0x20 DUP3 ADD MLOAD DUP2 PUSH1 0x1 ADD PUSH1 0x0 PUSH2 0x100 EXP DUP2 SLOAD DUP2 PUSH1 0xFF MUL NOT AND SWAP1 DUP4 ISZERO ISZERO MUL OR SWAP1 SSTORE POP PUSH1 0x40 DUP3 ADD MLOAD DUP2 PUSH1 0x1 ADD PUSH1 0x1 PUSH2 0x100 EXP DUP2 SLOAD DUP2 PUSH1 0xFF MUL NOT AND SWAP1 DUP4 ISZERO ISZERO MUL OR SWAP1 SSTORE POP PUSH1 0x60 DUP3 ADD MLOAD DUP2 PUSH1 0x1 ADD PUSH1 0x2 PUSH2 0x100 EXP DUP2 SLOAD DUP2 PUSH20 0xFFFFFFFFFFFFFFFFFFFFFFFFFFFFFFFFFFFFFFFF MUL NOT AND SWAP1 DUP4 PUSH20 0xFFFFFFFFFFFFFFFFFFFFFFFFFFFFFFFFFFFFFFFF AND MUL OR SWAP1 SSTORE POP SWAP1 POP POP PUSH1 0x1 PUSH1 0x2 PUSH1 0x0 DUP5 PUSH20 0xFFFFFFFFFFFFFFFFFFFFFFFFFFFFFFFFFFFFFFFF AND PUSH20 0xFFFFFFFFFFFFFFFFFFFFFFFFFFFFFFFFFFFFFFFF AND DUP2 MSTORE PUSH1 0x20 ADD SWAP1 DUP2 MSTORE PUSH1 0x20 ADD PUSH1 0x0 KECCAK256 SWAP1 DUP1 PUSH1 0x1 DUP2 SLOAD ADD DUP1 DUP3 SSTORE DUP1 SWAP2 POP POP PUSH1 0x1 SWAP1 SUB SWAP1 PUSH1 0x0 MSTORE PUSH1 0x20 PUSH1 0x0 KECCAK256 SWAP1 PUSH1 0x2 MUL ADD PUSH1 0x0 SWAP1 SWAP2 SWAP1 SWAP2 SWAP1 SWAP2 POP PUSH1 0x0 DUP3 ADD DUP2 PUSH1 0x0 ADD SWAP1 DUP1 SLOAD PUSH2 0xB1C SWAP1 PUSH2 0x19D3 JUMP JUMPDEST PUSH2 0xB27 SWAP3 SWAP2 SWAP1 PUSH2 0x10AE JUMP JUMPDEST POP PUSH1 0x1 DUP3 ADD PUSH1 0x0 SWAP1 SLOAD SWAP1 PUSH2 0x100 EXP SWAP1 DIV PUSH1 0xFF AND DUP2 PUSH1 0x1 ADD PUSH1 0x0 PUSH2 0x100 EXP DUP2 SLOAD DUP2 PUSH1 0xFF MUL NOT AND SWAP1 DUP4 ISZERO ISZERO MUL OR SWAP1 SSTORE POP PUSH1 0x1 DUP3 ADD PUSH1 0x1 SWAP1 SLOAD SWAP1 PUSH2 0x100 EXP SWAP1 DIV PUSH1 0xFF AND DUP2 PUSH1 0x1 ADD PUSH1 0x1 PUSH2 0x100 EXP DUP2 SLOAD DUP2 PUSH1 0xFF MUL NOT AND SWAP1 DUP4 ISZERO ISZERO MUL OR SWAP1 SSTORE POP PUSH1 0x1 DUP3 ADD PUSH1 0x2 SWAP1 SLOAD SWAP1 PUSH2 0x100 EXP SWAP1 DIV PUSH20 0xFFFFFFFFFFFFFFFFFFFFFFFFFFFFFFFFFFFFFFFF AND DUP2 PUSH1 0x1 ADD PUSH1 0x2 PUSH2 0x100 EXP DUP2 SLOAD DUP2 PUSH20 0xFFFFFFFFFFFFFFFFFFFFFFFFFFFFFFFFFFFFFFFF MUL NOT AND SWAP1 DUP4 PUSH20 0xFFFFFFFFFFFFFFFFFFFFFFFFFFFFFFFFFFFFFFFF AND MUL OR SWAP1 SSTORE POP POP POP POP POP JUMP JUMPDEST PUSH1 0x4 SLOAD DUP2 JUMP JUMPDEST PUSH1 0x0 DUP1 SLOAD SWAP1 PUSH2 0x100 EXP SWAP1 DIV PUSH20 0xFFFFFFFFFFFFFFFFFFFFFFFFFFFFFFFFFFFFFFFF AND PUSH20 0xFFFFFFFFFFFFFFFFFFFFFFFFFFFFFFFFFFFFFFFF AND CALLER PUSH20 0xFFFFFFFFFFFFFFFFFFFFFFFFFFFFFFFFFFFFFFFF AND EQ PUSH2 0xC83 JUMPI PUSH1 0x40 MLOAD PUSH32 0x8C379A000000000000000000000000000000000000000000000000000000000 DUP2 MSTORE PUSH1 0x4 ADD PUSH2 0xC7A SWAP1 PUSH2 0x1767 JUMP JUMPDEST PUSH1 0x40 MLOAD DUP1 SWAP2 SUB SWAP1 REVERT JUMPDEST PUSH1 0x0 DUP2 MLOAD GT PUSH2 0xCC7 JUMPI PUSH1 0x40 MLOAD PUSH32 0x8C379A000000000000000000000000000000000000000000000000000000000 DUP2 MSTORE PUSH1 0x4 ADD PUSH2 0xCBE SWAP1 PUSH2 0x17C7 JUMP JUMPDEST PUSH1 0x40 MLOAD DUP1 SWAP2 SUB SWAP1 REVERT JUMPDEST PUSH1 0x0 DUP2 DUP1 MLOAD SWAP1 PUSH1 0x20 ADD KECCAK256 SWAP1 POP PUSH1 0x3 PUSH1 0x40 MLOAD DUP1 PUSH1 0x60 ADD PUSH1 0x40 MSTORE DUP1 DUP5 DUP2 MSTORE PUSH1 0x20 ADD PUSH1 0x0 DUP2 MSTORE PUSH1 0x20 ADD DUP4 DUP2 MSTORE POP SWAP1 DUP1 PUSH1 0x1 DUP2 SLOAD ADD DUP1 DUP3 SSTORE DUP1 SWAP2 POP POP PUSH1 0x1 SWAP1 SUB SWAP1 PUSH1 0x0 MSTORE PUSH1 0x20 PUSH1 0x0 KECCAK256 SWAP1 PUSH1 0x3 MUL ADD PUSH1 0x0 SWAP1 SWAP2 SWAP1 SWAP2 SWAP1 SWAP2 POP PUSH1 0x0 DUP3 ADD MLOAD DUP2 PUSH1 0x0 ADD SWAP1 DUP1 MLOAD SWAP1 PUSH1 0x20 ADD SWAP1 PUSH2 0xD36 SWAP3 SWAP2 SWAP1 PUSH2 0x1028 JUMP JUMPDEST POP PUSH1 0x20 DUP3 ADD MLOAD DUP2 PUSH1 0x1 ADD SSTORE PUSH1 0x40 DUP3 ADD MLOAD DUP2 PUSH1 0x2 ADD SSTORE POP POP POP POP JUMP JUMPDEST PUSH1 0x0 PUSH2 0xD5C DUP3 PUSH2 0xE94 JUMP JUMPDEST PUSH2 0xD9B JUMPI PUSH1 0x40 MLOAD PUSH32 0x8C379A000000000000000000000000000000000000000000000000000000000 DUP2 MSTORE PUSH1 0x4 ADD PUSH2 0xD92 SWAP1 PUSH2 0x17A7 JUMP JUMPDEST PUSH1 0x40 MLOAD DUP1 SWAP2 SUB SWAP1 REVERT JUMPDEST PUSH1 0x0 JUMPDEST PUSH1 0x3 DUP1 SLOAD SWAP1 POP DUP2 LT ISZERO PUSH2 0xE65 JUMPI DUP3 PUSH1 0x3 DUP3 DUP2 SLOAD DUP2 LT PUSH2 0xDE6 JUMPI PUSH32 0x4E487B7100000000000000000000000000000000000000000000000000000000 PUSH1 0x0 MSTORE PUSH1 0x32 PUSH1 0x4 MSTORE PUSH1 0x24 PUSH1 0x0 REVERT JUMPDEST SWAP1 PUSH1 0x0 MSTORE PUSH1 0x20 PUSH1 0x0 KECCAK256 SWAP1 PUSH1 0x3 MUL ADD PUSH1 0x2 ADD SLOAD EQ ISZERO PUSH2 0xE52 JUMPI PUSH1 0x3 DUP2 DUP2 SLOAD DUP2 LT PUSH2 0xE38 JUMPI PUSH32 0x4E487B7100000000000000000000000000000000000000000000000000000000 PUSH1 0x0 MSTORE PUSH1 0x32 PUSH1 0x4 MSTORE PUSH1 0x24 PUSH1 0x0 REVERT JUMPDEST SWAP1 PUSH1 0x0 MSTORE PUSH1 0x20 PUSH1 0x0 KECCAK256 SWAP1 PUSH1 0x3 MUL ADD PUSH1 0x1 ADD SLOAD SWAP2 POP POP PUSH2 0xE6B JUMP JUMPDEST DUP1 DUP1 PUSH2 0xE5D SWAP1 PUSH2 0x1A05 JUMP JUMPDEST SWAP2 POP POP PUSH2 0xD9E JUMP JUMPDEST POP PUSH1 0x0 SWAP1 POP JUMPDEST SWAP2 SWAP1 POP JUMP JUMPDEST PUSH1 0x0 DUP1 SLOAD SWAP1 PUSH2 0x100 EXP SWAP1 DIV PUSH20 0xFFFFFFFFFFFFFFFFFFFFFFFFFFFFFFFFFFFFFFFF AND DUP2 JUMP JUMPDEST PUSH1 0x0 DUP1 PUSH1 0x0 SWAP1 POP JUMPDEST PUSH1 0x3 DUP1 SLOAD SWAP1 POP DUP2 LT ISZERO PUSH2 0xF19 JUMPI DUP3 PUSH1 0x3 DUP3 DUP2 SLOAD DUP2 LT PUSH2 0xEE4 JUMPI PUSH32 0x4E487B7100000000000000000000000000000000000000000000000000000000 PUSH1 0x0 MSTORE PUSH1 0x32 PUSH1 0x4 MSTORE PUSH1 0x24 PUSH1 0x0 REVERT JUMPDEST SWAP1 PUSH1 0x0 MSTORE PUSH1 0x20 PUSH1 0x0 KECCAK256 SWAP1 PUSH1 0x3 MUL ADD PUSH1 0x2 ADD SLOAD EQ ISZERO PUSH2 0xF06 JUMPI PUSH1 0x1 SWAP2 POP POP PUSH2 0xF1F JUMP JUMPDEST DUP1 DUP1 PUSH2 0xF11 SWAP1 PUSH2 0x1A05 JUMP JUMPDEST SWAP2 POP POP PUSH2 0xE9C JUMP JUMPDEST POP PUSH1 0x0 SWAP1 POP JUMPDEST SWAP2 SWAP1 POP JUMP JUMPDEST PUSH1 0x0 JUMPDEST PUSH1 0x3 DUP1 SLOAD SWAP1 POP DUP2 LT ISZERO PUSH2 0x1000 JUMPI DUP2 PUSH1 0x3 DUP3 DUP2 SLOAD DUP2 LT PUSH2 0xF6F JUMPI PUSH32 0x4E487B7100000000000000000000000000000000000000000000000000000000 PUSH1 0x0 MSTORE PUSH1 0x32 PUSH1 0x4 MSTORE PUSH1 0x24 PUSH1 0x0 REVERT JUMPDEST SWAP1 PUSH1 0x0 MSTORE PUSH1 0x20 PUSH1 0x0 KECCAK256 SWAP1 PUSH1 0x3 MUL ADD PUSH1 0x2 ADD SLOAD EQ ISZERO PUSH2 0xFED JUMPI PUSH1 0x3 DUP2 DUP2 SLOAD DUP2 LT PUSH2 0xFC1 JUMPI PUSH32 0x4E487B7100000000000000000000000000000000000000000000000000000000 PUSH1 0x0 MSTORE PUSH1 0x32 PUSH1 0x4 MSTORE PUSH1 0x24 PUSH1 0x0 REVERT JUMPDEST SWAP1 PUSH1 0x0 MSTORE PUSH1 0x20 PUSH1 0x0 KECCAK256 SWAP1 PUSH1 0x3 MUL ADD PUSH1 0x1 ADD PUSH1 0x0 DUP2 SLOAD DUP1 SWAP3 SWAP2 SWAP1 PUSH2 0xFE3 SWAP1 PUSH2 0x1A05 JUMP JUMPDEST SWAP2 SWAP1 POP SSTORE POP PUSH2 0x1000 JUMP JUMPDEST DUP1 DUP1 PUSH2 0xFF8 SWAP1 PUSH2 0x1A05 JUMP JUMPDEST SWAP2 POP POP PUSH2 0xF27 JUMP JUMPDEST POP POP JUMP JUMPDEST PUSH1 0x40 MLOAD DUP1 PUSH1 0x60 ADD PUSH1 0x40 MSTORE DUP1 PUSH1 0x60 DUP2 MSTORE PUSH1 0x20 ADD PUSH1 0x0 DUP2 MSTORE PUSH1 0x20 ADD PUSH1 0x0 DUP1 NOT AND DUP2 MSTORE POP SWAP1 JUMP JUMPDEST DUP3 DUP1 SLOAD PUSH2 0x1034 SWAP1 PUSH2 0x19D3 JUMP JUMPDEST SWAP1 PUSH1 0x0 MSTORE PUSH1 0x20 PUSH1 0x0 KECCAK256 SWAP1 PUSH1 0x1F ADD PUSH1 0x20 SWAP1 DIV DUP2 ADD SWAP3 DUP3 PUSH2 0x1056 JUMPI PUSH1 0x0 DUP6 SSTORE PUSH2 0x109D JUMP JUMPDEST DUP3 PUSH1 0x1F LT PUSH2 0x106F JUMPI DUP1 MLOAD PUSH1 0xFF NOT AND DUP4 DUP1 ADD OR DUP6 SSTORE PUSH2 0x109D JUMP JUMPDEST DUP3 DUP1 ADD PUSH1 0x1 ADD DUP6 SSTORE DUP3 ISZERO PUSH2 0x109D JUMPI SWAP2 DUP3 ADD JUMPDEST DUP3 DUP2 GT ISZERO PUSH2 0x109C JUMPI DUP3 MLOAD DUP3 SSTORE SWAP2 PUSH1 0x20 ADD SWAP2 SWAP1 PUSH1 0x1 ADD SWAP1 PUSH2 0x1081 JUMP JUMPDEST JUMPDEST POP SWAP1 POP PUSH2 0x10AA SWAP2 SWAP1 PUSH2 0x113B JUMP JUMPDEST POP SWAP1 JUMP JUMPDEST DUP3 DUP1 SLOAD PUSH2 0x10BA SWAP1 PUSH2 0x19D3 JUMP JUMPDEST SWAP1 PUSH1 0x0 MSTORE PUSH1 0x20 PUSH1 0x0 KECCAK256 SWAP1 PUSH1 0x1F ADD PUSH1 0x20 SWAP1 DIV DUP2 ADD SWAP3 DUP3 PUSH2 0x10DC JUMPI PUSH1 0x0 DUP6 SSTORE PUSH2 0x112A JUMP JUMPDEST DUP3 PUSH1 0x1F LT PUSH2 0x10ED JUMPI DUP1 SLOAD DUP6 SSTORE PUSH2 0x112A JUMP JUMPDEST DUP3 DUP1 ADD PUSH1 0x1 ADD DUP6 SSTORE DUP3 ISZERO PUSH2 0x112A JUMPI PUSH1 0x0 MSTORE PUSH1 0x20 PUSH1 0x0 KECCAK256 SWAP2 PUSH1 0x1F ADD PUSH1 0x20 SWAP1 DIV DUP3 ADD JUMPDEST DUP3 DUP2 GT ISZERO PUSH2 0x1129 JUMPI DUP3 SLOAD DUP3 SSTORE SWAP2 PUSH1 0x1 ADD SWAP2 SWAP1 PUSH1 0x1 ADD SWAP1 PUSH2 0x110E JUMP JUMPDEST JUMPDEST POP SWAP1 POP PUSH2 0x1137 SWAP2 SWAP1 PUSH2 0x113B JUMP JUMPDEST POP SWAP1 JUMP JUMPDEST JUMPDEST DUP1 DUP3 GT ISZERO PUSH2 0x1154 JUMPI PUSH1 0x0 DUP2 PUSH1 0x0 SWAP1 SSTORE POP PUSH1 0x1 ADD PUSH2 0x113C JUMP JUMPDEST POP SWAP1 JUMP JUMPDEST PUSH1 0x0 PUSH2 0x116B PUSH2 0x1166 DUP5 PUSH2 0x18B5 JUMP JUMPDEST PUSH2 0x1884 JUMP JUMPDEST SWAP1 POP DUP3 DUP2 MSTORE PUSH1 0x20 DUP2 ADD DUP5 DUP5 DUP5 ADD GT ISZERO PUSH2 0x1183 JUMPI PUSH1 0x0 DUP1 REVERT JUMPDEST PUSH2 0x118E DUP5 DUP3 DUP6 PUSH2 0x1991 JUMP JUMPDEST POP SWAP4 SWAP3 POP POP POP JUMP JUMPDEST PUSH1 0x0 DUP2 CALLDATALOAD SWAP1 POP PUSH2 0x11A5 DUP2 PUSH2 0x1AEC JUMP JUMPDEST SWAP3 SWAP2 POP POP JUMP JUMPDEST PUSH1 0x0 DUP2 CALLDATALOAD SWAP1 POP PUSH2 0x11BA DUP2 PUSH2 0x1B03 JUMP JUMPDEST SWAP3 SWAP2 POP POP JUMP JUMPDEST PUSH1 0x0 DUP3 PUSH1 0x1F DUP4 ADD SLT PUSH2 0x11D1 JUMPI PUSH1 0x0 DUP1 REVERT JUMPDEST DUP2 CALLDATALOAD PUSH2 0x11E1 DUP5 DUP3 PUSH1 0x20 DUP7 ADD PUSH2 0x1158 JUMP JUMPDEST SWAP2 POP POP SWAP3 SWAP2 POP POP JUMP JUMPDEST PUSH1 0x0 DUP2 CALLDATALOAD SWAP1 POP PUSH2 0x11F9 DUP2 PUSH2 0x1B1A JUMP JUMPDEST SWAP3 SWAP2 POP POP JUMP JUMPDEST PUSH1 0x0 DUP1 PUSH1 0x40 DUP4 DUP6 SUB SLT ISZERO PUSH2 0x1212 JUMPI PUSH1 0x0 DUP1 REVERT JUMPDEST PUSH1 0x0 PUSH2 0x1220 DUP6 DUP3 DUP7 ADD PUSH2 0x1196 JUMP JUMPDEST SWAP3 POP POP PUSH1 0x20 DUP4 ADD CALLDATALOAD PUSH8 0xFFFFFFFFFFFFFFFF DUP2 GT ISZERO PUSH2 0x123D JUMPI PUSH1 0x0 DUP1 REVERT JUMPDEST PUSH2 0x1249 DUP6 DUP3 DUP7 ADD PUSH2 0x11C0 JUMP JUMPDEST SWAP2 POP POP SWAP3 POP SWAP3 SWAP1 POP JUMP JUMPDEST PUSH1 0x0 PUSH1 0x20 DUP3 DUP5 SUB SLT ISZERO PUSH2 0x1265 JUMPI PUSH1 0x0 DUP1 REVERT JUMPDEST PUSH1 0x0 PUSH2 0x1273 DUP5 DUP3 DUP6 ADD PUSH2 0x11AB JUMP JUMPDEST SWAP2 POP POP SWAP3 SWAP2 POP POP JUMP JUMPDEST PUSH1 0x0 PUSH1 0x20 DUP3 DUP5 SUB SLT ISZERO PUSH2 0x128E JUMPI PUSH1 0x0 DUP1 REVERT JUMPDEST PUSH1 0x0 DUP3 ADD CALLDATALOAD PUSH8 0xFFFFFFFFFFFFFFFF DUP2 GT ISZERO PUSH2 0x12A8 JUMPI PUSH1 0x0 DUP1 REVERT JUMPDEST PUSH2 0x12B4 DUP5 DUP3 DUP6 ADD PUSH2 0x11C0 JUMP JUMPDEST SWAP2 POP POP SWAP3 SWAP2 POP POP JUMP JUMPDEST PUSH1 0x0 PUSH1 0x20 DUP3 DUP5 SUB SLT ISZERO PUSH2 0x12CF JUMPI PUSH1 0x0 DUP1 REVERT JUMPDEST PUSH1 0x0 PUSH2 0x12DD DUP5 DUP3 DUP6 ADD PUSH2 0x11EA JUMP JUMPDEST SWAP2 POP POP SWAP3 SWAP2 POP POP JUMP JUMPDEST PUSH1 0x0 PUSH2 0x12F2 DUP4 DUP4 PUSH2 0x160E JUMP JUMPDEST SWAP1 POP SWAP3 SWAP2 POP POP JUMP JUMPDEST PUSH2 0x1303 DUP2 PUSH2 0x194B JUMP JUMPDEST DUP3 MSTORE POP POP JUMP JUMPDEST PUSH1 0x0 PUSH2 0x1314 DUP3 PUSH2 0x18F5 JUMP JUMPDEST PUSH2 0x131E DUP2 DUP6 PUSH2 0x1918 JUMP JUMPDEST SWAP4 POP DUP4 PUSH1 0x20 DUP3 MUL DUP6 ADD PUSH2 0x1330 DUP6 PUSH2 0x18E5 JUMP JUMPDEST DUP1 PUSH1 0x0 JUMPDEST DUP6 DUP2 LT ISZERO PUSH2 0x136C JUMPI DUP5 DUP5 SUB DUP10 MSTORE DUP2 MLOAD PUSH2 0x134D DUP6 DUP3 PUSH2 0x12E6 JUMP JUMPDEST SWAP5 POP PUSH2 0x1358 DUP4 PUSH2 0x190B JUMP JUMPDEST SWAP3 POP PUSH1 0x20 DUP11 ADD SWAP10 POP POP PUSH1 0x1 DUP2 ADD SWAP1 POP PUSH2 0x1334 JUMP JUMPDEST POP DUP3 SWAP8 POP DUP8 SWAP6 POP POP POP POP POP POP SWAP3 SWAP2 POP POP JUMP JUMPDEST PUSH2 0x1387 DUP2 PUSH2 0x195D JUMP JUMPDEST DUP3 MSTORE POP POP JUMP JUMPDEST PUSH2 0x1396 DUP2 PUSH2 0x195D JUMP JUMPDEST DUP3 MSTORE POP POP JUMP JUMPDEST PUSH1 0x0 PUSH2 0x13A7 DUP3 PUSH2 0x1900 JUMP JUMPDEST PUSH2 0x13B1 DUP2 DUP6 PUSH2 0x1929 JUMP JUMPDEST SWAP4 POP PUSH2 0x13C1 DUP2 DUP6 PUSH1 0x20 DUP7 ADD PUSH2 0x19A0 JUMP JUMPDEST PUSH2 0x13CA DUP2 PUSH2 0x1ADB JUMP JUMPDEST DUP5 ADD SWAP2 POP POP SWAP3 SWAP2 POP POP JUMP JUMPDEST PUSH1 0x0 PUSH2 0x13E0 DUP3 PUSH2 0x1900 JUMP JUMPDEST PUSH2 0x13EA DUP2 DUP6 PUSH2 0x193A JUMP JUMPDEST SWAP4 POP PUSH2 0x13FA DUP2 DUP6 PUSH1 0x20 DUP7 ADD PUSH2 0x19A0 JUMP JUMPDEST PUSH2 0x1403 DUP2 PUSH2 0x1ADB JUMP JUMPDEST DUP5 ADD SWAP2 POP POP SWAP3 SWAP2 POP POP JUMP JUMPDEST PUSH1 0x0 PUSH2 0x141B PUSH1 0x1B DUP4 PUSH2 0x193A JUMP JUMPDEST SWAP2 POP PUSH32 0x4E6F7420612076616C696420726570726573656E746174697665730000000000 PUSH1 0x0 DUP4 ADD MSTORE PUSH1 0x20 DUP3 ADD SWAP1 POP SWAP2 SWAP1 POP JUMP JUMPDEST PUSH1 0x0 PUSH2 0x145B PUSH1 0x15 DUP4 PUSH2 0x193A JUMP JUMPDEST SWAP2 POP PUSH32 0x41646D696E69747261746F722066756E6374696F6E0000000000000000000000 PUSH1 0x0 DUP4 ADD MSTORE PUSH1 0x20 DUP3 ADD SWAP1 POP SWAP2 SWAP1 POP JUMP JUMPDEST PUSH1 0x0 PUSH2 0x149B PUSH1 0x12 DUP4 PUSH2 0x193A JUMP JUMPDEST SWAP2 POP PUSH32 0x4E6F74206120546865566F746572206164640000000000000000000000000000 PUSH1 0x0 DUP4 ADD MSTORE PUSH1 0x20 DUP3 ADD SWAP1 POP SWAP2 SWAP1 POP JUMP JUMPDEST PUSH1 0x0 PUSH2 0x14DB PUSH1 0x19 DUP4 PUSH2 0x193A JUMP JUMPDEST SWAP2 POP PUSH32 0x4E6F742076616C696420726570726573656E7461746976657300000000000000 PUSH1 0x0 DUP4 ADD MSTORE PUSH1 0x20 DUP3 ADD SWAP1 POP SWAP2 SWAP1 POP JUMP JUMPDEST PUSH1 0x0 PUSH2 0x151B PUSH1 0x18 DUP4 PUSH2 0x193A JUMP JUMPDEST SWAP2 POP PUSH32 0x54686543616E642068617320746F2062652066696C6C65640000000000000000 PUSH1 0x0 DUP4 ADD MSTORE PUSH1 0x20 DUP3 ADD SWAP1 POP SWAP2 SWAP1 POP JUMP JUMPDEST PUSH1 0x0 PUSH2 0x155B PUSH1 0xE DUP4 PUSH2 0x193A JUMP JUMPDEST SWAP2 POP PUSH32 0x546865566F74657220766F746564000000000000000000000000000000000000 PUSH1 0x0 DUP4 ADD MSTORE PUSH1 0x20 DUP3 ADD SWAP1 POP SWAP2 SWAP1 POP JUMP JUMPDEST PUSH1 0x0 PUSH2 0x159B PUSH1 0x12 DUP4 PUSH2 0x193A JUMP JUMPDEST SWAP2 POP PUSH32 0x546865566F746572732066756E6374696F6E0000000000000000000000000000 PUSH1 0x0 DUP4 ADD MSTORE PUSH1 0x20 DUP3 ADD SWAP1 POP SWAP2 SWAP1 POP JUMP JUMPDEST PUSH1 0x0 PUSH2 0x15DB PUSH1 0x1D DUP4 PUSH2 0x193A JUMP JUMPDEST SWAP2 POP PUSH32 0x4E6F20726570726573656E746174697665737320696E206D656D6F7279000000 PUSH1 0x0 DUP4 ADD MSTORE PUSH1 0x20 DUP3 ADD SWAP1 POP SWAP2 SWAP1 POP JUMP JUMPDEST PUSH1 0x0 PUSH1 0x60 DUP4 ADD PUSH1 0x0 DUP4 ADD MLOAD DUP5 DUP3 SUB PUSH1 0x0 DUP7 ADD MSTORE PUSH2 0x162B DUP3 DUP3 PUSH2 0x139C JUMP JUMPDEST SWAP2 POP POP PUSH1 0x20 DUP4 ADD MLOAD PUSH2 0x1640 PUSH1 0x20 DUP7 ADD DUP3 PUSH2 0x16AE JUMP JUMPDEST POP PUSH1 0x40 DUP4 ADD MLOAD PUSH2 0x1653 PUSH1 0x40 DUP7 ADD DUP3 PUSH2 0x137E JUMP JUMPDEST POP DUP1 SWAP2 POP POP SWAP3 SWAP2 POP POP JUMP JUMPDEST PUSH1 0x0 PUSH1 0x60 DUP4 ADD PUSH1 0x0 DUP4 ADD MLOAD DUP5 DUP3 SUB PUSH1 0x0 DUP7 ADD MSTORE PUSH2 0x167B DUP3 DUP3 PUSH2 0x139C JUMP JUMPDEST SWAP2 POP POP PUSH1 0x20 DUP4 ADD MLOAD PUSH2 0x1690 PUSH1 0x20 DUP7 ADD DUP3 PUSH2 0x16AE JUMP JUMPDEST POP PUSH1 0x40 DUP4 ADD MLOAD PUSH2 0x16A3 PUSH1 0x40 DUP7 ADD DUP3 PUSH2 0x137E JUMP JUMPDEST POP DUP1 SWAP2 POP POP SWAP3 SWAP2 POP POP JUMP JUMPDEST PUSH2 0x16B7 DUP2 PUSH2 0x1987 JUMP JUMPDEST DUP3 MSTORE POP POP JUMP JUMPDEST PUSH2 0x16C6 DUP2 PUSH2 0x1987 JUMP JUMPDEST DUP3 MSTORE POP POP JUMP JUMPDEST PUSH1 0x0 PUSH1 0x20 DUP3 ADD SWAP1 POP PUSH2 0x16E1 PUSH1 0x0 DUP4 ADD DUP5 PUSH2 0x12FA JUMP JUMPDEST SWAP3 SWAP2 POP POP JUMP JUMPDEST PUSH1 0x0 PUSH1 0x20 DUP3 ADD SWAP1 POP DUP2 DUP2 SUB PUSH1 0x0 DUP4 ADD MSTORE PUSH2 0x1701 DUP2 DUP5 PUSH2 0x1309 JUMP JUMPDEST SWAP1 POP SWAP3 SWAP2 POP POP JUMP JUMPDEST PUSH1 0x0 PUSH1 0x60 DUP3 ADD SWAP1 POP DUP2 DUP2 SUB PUSH1 0x0 DUP4 ADD MSTORE PUSH2 0x1723 DUP2 DUP7 PUSH2 0x13D5 JUMP JUMPDEST SWAP1 POP PUSH2 0x1732 PUSH1 0x20 DUP4 ADD DUP6 PUSH2 0x16BD JUMP JUMPDEST PUSH2 0x173F PUSH1 0x40 DUP4 ADD DUP5 PUSH2 0x138D JUMP JUMPDEST SWAP5 SWAP4 POP POP POP POP JUMP JUMPDEST PUSH1 0x0 PUSH1 0x20 DUP3 ADD SWAP1 POP DUP2 DUP2 SUB PUSH1 0x0 DUP4 ADD MSTORE PUSH2 0x1760 DUP2 PUSH2 0x140E JUMP JUMPDEST SWAP1 POP SWAP2 SWAP1 POP JUMP JUMPDEST PUSH1 0x0 PUSH1 0x20 DUP3 ADD SWAP1 POP DUP2 DUP2 SUB PUSH1 0x0 DUP4 ADD MSTORE PUSH2 0x1780 DUP2 PUSH2 0x144E JUMP JUMPDEST SWAP1 POP SWAP2 SWAP1 POP JUMP JUMPDEST PUSH1 0x0 PUSH1 0x20 DUP3 ADD SWAP1 POP DUP2 DUP2 SUB PUSH1 0x0 DUP4 ADD MSTORE PUSH2 0x17A0 DUP2 PUSH2 0x148E JUMP JUMPDEST SWAP1 POP SWAP2 SWAP1 POP JUMP JUMPDEST PUSH1 0x0 PUSH1 0x20 DUP3 ADD SWAP1 POP DUP2 DUP2 SUB PUSH1 0x0 DUP4 ADD MSTORE PUSH2 0x17C0 DUP2 PUSH2 0x14CE JUMP JUMPDEST SWAP1 POP SWAP2 SWAP1 POP JUMP JUMPDEST PUSH1 0x0 PUSH1 0x20 DUP3 ADD SWAP1 POP DUP2 DUP2 SUB PUSH1 0x0 DUP4 ADD MSTORE PUSH2 0x17E0 DUP2 PUSH2 0x150E JUMP JUMPDEST SWAP1 POP SWAP2 SWAP1 POP JUMP JUMPDEST PUSH1 0x0 PUSH1 0x20 DUP3 ADD SWAP1 POP DUP2 DUP2 SUB PUSH1 0x0 DUP4 ADD MSTORE PUSH2 0x1800 DUP2 PUSH2 0x154E JUMP JUMPDEST SWAP1 POP SWAP2 SWAP1 POP JUMP JUMPDEST PUSH1 0x0 PUSH1 0x20 DUP3 ADD SWAP1 POP DUP2 DUP2 SUB PUSH1 0x0 DUP4 ADD MSTORE PUSH2 0x1820 DUP2 PUSH2 0x158E JUMP JUMPDEST SWAP1 POP SWAP2 SWAP1 POP JUMP JUMPDEST PUSH1 0x0 PUSH1 0x20 DUP3 ADD SWAP1 POP DUP2 DUP2 SUB PUSH1 0x0 DUP4 ADD MSTORE PUSH2 0x1840 DUP2 PUSH2 0x15CE JUMP JUMPDEST SWAP1 POP SWAP2 SWAP1 POP JUMP JUMPDEST PUSH1 0x0 PUSH1 0x20 DUP3 ADD SWAP1 POP DUP2 DUP2 SUB PUSH1 0x0 DUP4 ADD MSTORE PUSH2 0x1861 DUP2 DUP5 PUSH2 0x165E JUMP JUMPDEST SWAP1 POP SWAP3 SWAP2 POP POP JUMP JUMPDEST PUSH1 0x0 PUSH1 0x20 DUP3 ADD SWAP1 POP PUSH2 0x187E PUSH1 0x0 DUP4 ADD DUP5 PUSH2 0x16BD JUMP JUMPDEST SWAP3 SWAP2 POP POP JUMP JUMPDEST PUSH1 0x0 PUSH1 0x40 MLOAD SWAP1 POP DUP2 DUP2 ADD DUP2 DUP2 LT PUSH8 0xFFFFFFFFFFFFFFFF DUP3 GT OR ISZERO PUSH2 0x18AB JUMPI PUSH2 0x18AA PUSH2 0x1AAC JUMP JUMPDEST JUMPDEST DUP1 PUSH1 0x40 MSTORE POP SWAP2 SWAP1 POP JUMP JUMPDEST PUSH1 0x0 PUSH8 0xFFFFFFFFFFFFFFFF DUP3 GT ISZERO PUSH2 0x18D0 JUMPI PUSH2 0x18CF PUSH2 0x1AAC JUMP JUMPDEST JUMPDEST PUSH1 0x1F NOT PUSH1 0x1F DUP4 ADD AND SWAP1 POP PUSH1 0x20 DUP2 ADD SWAP1 POP SWAP2 SWAP1 POP JUMP JUMPDEST PUSH1 0x0 DUP2 SWAP1 POP PUSH1 0x20 DUP3 ADD SWAP1 POP SWAP2 SWAP1 POP JUMP JUMPDEST PUSH1 0x0 DUP2 MLOAD SWAP1 POP SWAP2 SWAP1 POP JUMP JUMPDEST PUSH1 0x0 DUP2 MLOAD SWAP1 POP SWAP2 SWAP1 POP JUMP JUMPDEST PUSH1 0x0 PUSH1 0x20 DUP3 ADD SWAP1 POP SWAP2 SWAP1 POP JUMP JUMPDEST PUSH1 0x0 DUP3 DUP3 MSTORE PUSH1 0x20 DUP3 ADD SWAP1 POP SWAP3 SWAP2 POP POP JUMP JUMPDEST PUSH1 0x0 DUP3 DUP3 MSTORE PUSH1 0x20 DUP3 ADD SWAP1 POP SWAP3 SWAP2 POP POP JUMP JUMPDEST PUSH1 0x0 DUP3 DUP3 MSTORE PUSH1 0x20 DUP3 ADD SWAP1 POP SWAP3 SWAP2 POP POP JUMP JUMPDEST PUSH1 0x0 PUSH2 0x1956 DUP3 PUSH2 0x1967 JUMP JUMPDEST SWAP1 POP SWAP2 SWAP1 POP JUMP JUMPDEST PUSH1 0x0 DUP2 SWAP1 POP SWAP2 SWAP1 POP JUMP JUMPDEST PUSH1 0x0 PUSH20 0xFFFFFFFFFFFFFFFFFFFFFFFFFFFFFFFFFFFFFFFF DUP3 AND SWAP1 POP SWAP2 SWAP1 POP JUMP JUMPDEST PUSH1 0x0 DUP2 SWAP1 POP SWAP2 SWAP1 POP JUMP JUMPDEST DUP3 DUP2 DUP4 CALLDATACOPY PUSH1 0x0 DUP4 DUP4 ADD MSTORE POP POP POP JUMP JUMPDEST PUSH1 0x0 JUMPDEST DUP4 DUP2 LT ISZERO PUSH2 0x19BE JUMPI DUP1 DUP3 ADD MLOAD DUP2 DUP5 ADD MSTORE PUSH1 0x20 DUP2 ADD SWAP1 POP PUSH2 0x19A3 JUMP JUMPDEST DUP4 DUP2 GT ISZERO PUSH2 0x19CD JUMPI PUSH1 0x0 DUP5 DUP5 ADD MSTORE JUMPDEST POP POP POP POP JUMP JUMPDEST PUSH1 0x0 PUSH1 0x2 DUP3 DIV SWAP1 POP PUSH1 0x1 DUP3 AND DUP1 PUSH2 0x19EB JUMPI PUSH1 0x7F DUP3 AND SWAP2 POP JUMPDEST PUSH1 0x20 DUP3 LT DUP2 EQ ISZERO PUSH2 0x19FF JUMPI PUSH2 0x19FE PUSH2 0x1A7D JUMP JUMPDEST JUMPDEST POP SWAP2 SWAP1 POP JUMP JUMPDEST PUSH1 0x0 PUSH2 0x1A10 DUP3 PUSH2 0x1987 JUMP JUMPDEST SWAP2 POP PUSH32 0xFFFFFFFFFFFFFFFFFFFFFFFFFFFFFFFFFFFFFFFFFFFFFFFFFFFFFFFFFFFFFFFF DUP3 EQ ISZERO PUSH2 0x1A43 JUMPI PUSH2 0x1A42 PUSH2 0x1A4E JUMP JUMPDEST JUMPDEST PUSH1 0x1 DUP3 ADD SWAP1 POP SWAP2 SWAP1 POP JUMP JUMPDEST PUSH32 0x4E487B7100000000000000000000000000000000000000000000000000000000 PUSH1 0x0 MSTORE PUSH1 0x11 PUSH1 0x4 MSTORE PUSH1 0x24 PUSH1 0x0 REVERT JUMPDEST PUSH32 0x4E487B7100000000000000000000000000000000000000000000000000000000 PUSH1 0x0 MSTORE PUSH1 0x22 PUSH1 0x4 MSTORE PUSH1 0x24 PUSH1 0x0 REVERT JUMPDEST PUSH32 0x4E487B7100000000000000000000000000000000000000000000000000000000 PUSH1 0x0 MSTORE PUSH1 0x41 PUSH1 0x4 MSTORE PUSH1 0x24 PUSH1 0x0 REVERT JUMPDEST PUSH1 0x0 PUSH1 0x1F NOT PUSH1 0x1F DUP4 ADD AND SWAP1 POP SWAP2 SWAP1 POP JUMP JUMPDEST PUSH2 0x1AF5 DUP2 PUSH2 0x194B JUMP JUMPDEST DUP2 EQ PUSH2 0x1B00 JUMPI PUSH1 0x0 DUP1 REVERT JUMPDEST POP JUMP JUMPDEST PUSH2 0x1B0C DUP2 PUSH2 0x195D JUMP JUMPDEST DUP2 EQ PUSH2 0x1B17 JUMPI PUSH1 0x0 DUP1 REVERT JUMPDEST POP JUMP JUMPDEST PUSH2 0x1B23 DUP2 PUSH2 0x1987 JUMP JUMPDEST DUP2 EQ PUSH2 0x1B2E JUMPI PUSH1 0x0 DUP1 REVERT JUMPDEST POP JUMP INVALID LOG2 PUSH5 0x6970667358 0x22 SLT KECCAK256 0xE8 0xE SWAP8 0xE9 DUP10 CHAINID 0xC1 0xAE RETURN PUSH1 0xED 0xA5 0xF9 CALL XOR LT CALL DUP9 REVERT DIV EXTCODESIZE XOR PUSH7 0x81262513C77383 DUP8 PUSH12 0x64736F6C6343000800003300 "
				},
				"gasEstimates": {
					"creation": {
						"codeDepositCost": "1403000",
						"executionCost": "22331",
						"totalCost": "1425331"
					},
					"external": {
						"addTheCand(string)": "infinite",
						"admin()": "1299",
						"allVotesIn()": "1151",
						"castBallot(bytes32)": "infinite",
						"checkVotesPerGotRep(bytes32)": "infinite",
						"getTheCandList()": "infinite",
						"numberOfTotalVotes()": "1182",
						"registerTheVoter(address,string)": "infinite",
						"representativesList(uint256)": "infinite",
						"winnerChecking()": "infinite"
					},
					"internal": {
						"CheckIfVoterVoted(address)": "infinite",
						"getTheCands()": "infinite",
						"getTheVoterDetails(address)": "infinite",
						"getTheVotersList()": "infinite",
						"representativesExists(bytes32)": "infinite",
						"updateTheCandVotes(bytes32)": "infinite"
					}
				},
				"methodIdentifiers": {
					"addTheCand(string)": "9e9cf22e",
					"admin()": "f851a440",
					"allVotesIn()": "9ab05535",
					"castBallot(bytes32)": "05b6a8c6",
					"checkVotesPerGotRep(bytes32)": "d4abd19a",
					"getTheCandList()": "7067accb",
					"numberOfTotalVotes()": "120d7b9e",
					"registerTheVoter(address,string)": "8d78e74c",
					"representativesList(uint256)": "10f8963f",
					"winnerChecking()": "27f8bb9d"
				}
			},
			"storageLayout": {
				"storage": [
					{
						"astId": 4,
						"contract": "VotingSystem.sol:Voting",
						"label": "admin",
						"offset": 0,
						"slot": "0",
						"type": "t_address"
					},
					{
						"astId": 8,
						"contract": "VotingSystem.sol:Voting",
						"label": "TheVotersList",
						"offset": 0,
						"slot": "1",
						"type": "t_array(t_struct(TheVoter)29_storage)dyn_storage"
					},
					{
						"astId": 13,
						"contract": "VotingSystem.sol:Voting",
						"label": "TheVoters",
						"offset": 0,
						"slot": "2",
						"type": "t_mapping(t_address,t_struct(TheVoter)29_storage)"
					},
					{
						"astId": 33,
						"contract": "VotingSystem.sol:Voting",
						"label": "representativesList",
						"offset": 0,
						"slot": "3",
						"type": "t_array(t_struct(TheCand)20_storage)dyn_storage"
					},
					{
						"astId": 35,
						"contract": "VotingSystem.sol:Voting",
						"label": "allVotesIn",
						"offset": 0,
						"slot": "4",
						"type": "t_uint256"
					}
				],
				"types": {
					"t_address": {
						"encoding": "inplace",
						"label": "address",
						"numberOfBytes": "20"
					},
					"t_array(t_struct(TheCand)20_storage)dyn_storage": {
						"base": "t_struct(TheCand)20_storage",
						"encoding": "dynamic_array",
						"label": "struct Voting.TheCand[]",
						"numberOfBytes": "32"
					},
					"t_array(t_struct(TheVoter)29_storage)dyn_storage": {
						"base": "t_struct(TheVoter)29_storage",
						"encoding": "dynamic_array",
						"label": "struct Voting.TheVoter[]",
						"numberOfBytes": "32"
					},
					"t_bool": {
						"encoding": "inplace",
						"label": "bool",
						"numberOfBytes": "1"
					},
					"t_bytes32": {
						"encoding": "inplace",
						"label": "bytes32",
						"numberOfBytes": "32"
					},
					"t_mapping(t_address,t_struct(TheVoter)29_storage)": {
						"encoding": "mapping",
						"key": "t_address",
						"label": "mapping(address => struct Voting.TheVoter)",
						"numberOfBytes": "32",
						"value": "t_struct(TheVoter)29_storage"
					},
					"t_string_storage": {
						"encoding": "bytes",
						"label": "string",
						"numberOfBytes": "32"
					},
					"t_struct(TheCand)20_storage": {
						"encoding": "inplace",
						"label": "struct Voting.TheCand",
						"members": [
							{
								"astId": 15,
								"contract": "VotingSystem.sol:Voting",
								"label": "name",
								"offset": 0,
								"slot": "0",
								"type": "t_string_storage"
							},
							{
								"astId": 17,
								"contract": "VotingSystem.sol:Voting",
								"label": "votes",
								"offset": 0,
								"slot": "1",
								"type": "t_uint256"
							},
							{
								"astId": 19,
								"contract": "VotingSystem.sol:Voting",
								"label": "hash",
								"offset": 0,
								"slot": "2",
								"type": "t_bytes32"
							}
						],
						"numberOfBytes": "96"
					},
					"t_struct(TheVoter)29_storage": {
						"encoding": "inplace",
						"label": "struct Voting.TheVoter",
						"members": [
							{
								"astId": 22,
								"contract": "VotingSystem.sol:Voting",
								"label": "name",
								"offset": 0,
								"slot": "0",
								"type": "t_string_storage"
							},
							{
								"astId": 24,
								"contract": "VotingSystem.sol:Voting",
								"label": "isRegistered",
								"offset": 0,
								"slot": "1",
								"type": "t_bool"
							},
							{
								"astId": 26,
								"contract": "VotingSystem.sol:Voting",
								"label": "hasVoted",
								"offset": 1,
								"slot": "1",
								"type": "t_bool"
							},
							{
								"astId": 28,
								"contract": "VotingSystem.sol:Voting",
								"label": "TheVoterAddress",
								"offset": 2,
								"slot": "1",
								"type": "t_address"
							}
						],
						"numberOfBytes": "64"
					},
					"t_uint256": {
						"encoding": "inplace",
						"label": "uint256",
						"numberOfBytes": "32"
					}
				}
			},
			"userdoc": {
				"kind": "user",
				"methods": {},
				"version": 1
			}
		}
	}
}